{
	"FundMe.sol": {
		"FundMe": {
			"abi": [
				{
					"inputs": [
						{
							"internalType": "uint256",
							"name": "_lockTime",
							"type": "uint256"
						}
					],
					"stateMutability": "nonpayable",
					"type": "constructor"
				},
				{
					"inputs": [],
					"name": "fund",
					"outputs": [],
					"stateMutability": "payable",
					"type": "function"
				},
				{
					"inputs": [
						{
							"internalType": "address",
							"name": "",
							"type": "address"
						}
					],
					"name": "fundersToAmount",
					"outputs": [
						{
							"internalType": "uint256",
							"name": "",
							"type": "uint256"
						}
					],
					"stateMutability": "view",
					"type": "function"
				},
				{
					"inputs": [],
					"name": "getChainlinkDataFeedLatestAnswer",
					"outputs": [
						{
							"internalType": "int256",
							"name": "",
							"type": "int256"
						}
					],
					"stateMutability": "view",
					"type": "function"
				},
				{
					"inputs": [],
					"name": "getFund",
					"outputs": [],
					"stateMutability": "nonpayable",
					"type": "function"
				},
				{
					"inputs": [],
					"name": "getFundSuccess",
					"outputs": [
						{
							"internalType": "bool",
							"name": "",
							"type": "bool"
						}
					],
					"stateMutability": "view",
					"type": "function"
				},
				{
					"inputs": [],
					"name": "owner",
					"outputs": [
						{
							"internalType": "address",
							"name": "",
							"type": "address"
						}
					],
					"stateMutability": "view",
					"type": "function"
				},
				{
					"inputs": [],
					"name": "refund",
					"outputs": [],
					"stateMutability": "nonpayable",
					"type": "function"
				},
				{
					"inputs": [
						{
							"internalType": "address",
							"name": "_erc20Addr",
							"type": "address"
						}
					],
					"name": "setErc20Addr",
					"outputs": [],
					"stateMutability": "nonpayable",
					"type": "function"
				},
				{
					"inputs": [
						{
							"internalType": "address",
							"name": "funder",
							"type": "address"
						},
						{
							"internalType": "uint256",
							"name": "amountToUpdate",
							"type": "uint256"
						}
					],
					"name": "setFunderToAmount",
					"outputs": [],
					"stateMutability": "nonpayable",
					"type": "function"
				},
				{
					"inputs": [
						{
							"internalType": "address",
							"name": "newOwner",
							"type": "address"
						}
					],
					"name": "transferOwnership",
					"outputs": [],
					"stateMutability": "nonpayable",
					"type": "function"
				}
			],
			"devdoc": {
				"kind": "dev",
				"methods": {},
				"version": 1
			},
			"evm": {
				"assembly": "    /* \"FundMe.sol\":389:3940  contract FundMe {... */\n  mstore(0x40, 0x80)\n    /* \"FundMe.sol\":775:780  false */\n  0x00\n    /* \"FundMe.sol\":746:780  bool public getFundSuccess = false */\n  0x05\n  exp(0x0100, 0x14)\n  dup2\n  sload\n  dup2\n  0xff\n  mul\n  not\n  and\n  swap1\n  dup4\n  iszero\n  iszero\n  mul\n  or\n  swap1\n  sstore\n  pop\n    /* \"FundMe.sol\":789:1047  constructor(uint256 _lockTime) {... */\n  callvalue\n  dup1\n  iszero\n  tag_1\n  jumpi\n  0x00\n  dup1\n  revert\ntag_1:\n  pop\n  mload(0x40)\n  sub(codesize, bytecodeSize)\n  dup1\n  bytecodeSize\n  dup4\n  codecopy\n  dup2\n  dup2\n  add\n  0x40\n  mstore\n  dup2\n  add\n  swap1\n  tag_2\n  swap2\n  swap1\n  tag_3\n  jump\t// in\ntag_2:\n    /* \"FundMe.sol\":888:930  0x694AA1769357215DE4FAC081bf1f309aDC325306 */\n  0x694aa1769357215de4fac081bf1f309adc325306\n    /* \"FundMe.sol\":855:863  dataFeed */\n  0x01\n  0x00\n    /* \"FundMe.sol\":855:931  dataFeed = AggregatorV3Interface(0x694AA1769357215DE4FAC081bf1f309aDC325306) */\n  0x0100\n  exp\n  dup2\n  sload\n  dup2\n  0xffffffffffffffffffffffffffffffffffffffff\n  mul\n  not\n  and\n  swap1\n  dup4\n  0xffffffffffffffffffffffffffffffffffffffff\n  and\n  mul\n  or\n  swap1\n  sstore\n  pop\n    /* \"FundMe.sol\":950:960  msg.sender */\n  caller\n    /* \"FundMe.sol\":942:947  owner */\n  0x02\n  0x00\n    /* \"FundMe.sol\":942:960  owner = msg.sender */\n  0x0100\n  exp\n  dup2\n  sload\n  dup2\n  0xffffffffffffffffffffffffffffffffffffffff\n  mul\n  not\n  and\n  swap1\n  dup4\n  0xffffffffffffffffffffffffffffffffffffffff\n  and\n  mul\n  or\n  swap1\n  sstore\n  pop\n    /* \"FundMe.sol\":993:1008  block.timestamp */\n  timestamp\n    /* \"FundMe.sol\":971:990  deploymentTimestamp */\n  0x03\n    /* \"FundMe.sol\":971:1008  deploymentTimestamp = block.timestamp */\n  dup2\n  swap1\n  sstore\n  pop\n    /* \"FundMe.sol\":1030:1039  _lockTime */\n  dup1\n    /* \"FundMe.sol\":1019:1027  lockTime */\n  0x04\n    /* \"FundMe.sol\":1019:1039  lockTime = _lockTime */\n  dup2\n  swap1\n  sstore\n  pop\n    /* \"FundMe.sol\":789:1047  constructor(uint256 _lockTime) {... */\n  pop\n    /* \"FundMe.sol\":389:3940  contract FundMe {... */\n  jump(tag_6)\n    /* \"#utility.yul\":88:205   */\ntag_8:\n    /* \"#utility.yul\":197:198   */\n  0x00\n    /* \"#utility.yul\":194:195   */\n  dup1\n    /* \"#utility.yul\":187:199   */\n  revert\n    /* \"#utility.yul\":334:411   */\ntag_10:\n    /* \"#utility.yul\":371:378   */\n  0x00\n    /* \"#utility.yul\":400:405   */\n  dup2\n    /* \"#utility.yul\":389:405   */\n  swap1\n  pop\n    /* \"#utility.yul\":334:411   */\n  swap2\n  swap1\n  pop\n  jump\t// out\n    /* \"#utility.yul\":417:539   */\ntag_11:\n    /* \"#utility.yul\":490:514   */\n  tag_19\n    /* \"#utility.yul\":508:513   */\n  dup2\n    /* \"#utility.yul\":490:514   */\n  tag_10\n  jump\t// in\ntag_19:\n    /* \"#utility.yul\":483:488   */\n  dup2\n    /* \"#utility.yul\":480:515   */\n  eq\n    /* \"#utility.yul\":470:533   */\n  tag_20\n  jumpi\n    /* \"#utility.yul\":529:530   */\n  0x00\n    /* \"#utility.yul\":526:527   */\n  dup1\n    /* \"#utility.yul\":519:531   */\n  revert\n    /* \"#utility.yul\":470:533   */\ntag_20:\n    /* \"#utility.yul\":417:539   */\n  pop\n  jump\t// out\n    /* \"#utility.yul\":545:688   */\ntag_12:\n    /* \"#utility.yul\":602:607   */\n  0x00\n    /* \"#utility.yul\":633:639   */\n  dup2\n    /* \"#utility.yul\":627:640   */\n  mload\n    /* \"#utility.yul\":618:640   */\n  swap1\n  pop\n    /* \"#utility.yul\":649:682   */\n  tag_22\n    /* \"#utility.yul\":676:681   */\n  dup2\n    /* \"#utility.yul\":649:682   */\n  tag_11\n  jump\t// in\ntag_22:\n    /* \"#utility.yul\":545:688   */\n  swap3\n  swap2\n  pop\n  pop\n  jump\t// out\n    /* \"#utility.yul\":694:1045   */\ntag_3:\n    /* \"#utility.yul\":764:770   */\n  0x00\n    /* \"#utility.yul\":813:815   */\n  0x20\n    /* \"#utility.yul\":801:810   */\n  dup3\n    /* \"#utility.yul\":792:799   */\n  dup5\n    /* \"#utility.yul\":788:811   */\n  sub\n    /* \"#utility.yul\":784:816   */\n  slt\n    /* \"#utility.yul\":781:900   */\n  iszero\n  tag_24\n  jumpi\n    /* \"#utility.yul\":819:898   */\n  tag_25\n  tag_8\n  jump\t// in\ntag_25:\n    /* \"#utility.yul\":781:900   */\ntag_24:\n    /* \"#utility.yul\":939:940   */\n  0x00\n    /* \"#utility.yul\":964:1028   */\n  tag_26\n    /* \"#utility.yul\":1020:1027   */\n  dup5\n    /* \"#utility.yul\":1011:1017   */\n  dup3\n    /* \"#utility.yul\":1000:1009   */\n  dup6\n    /* \"#utility.yul\":996:1018   */\n  add\n    /* \"#utility.yul\":964:1028   */\n  tag_12\n  jump\t// in\ntag_26:\n    /* \"#utility.yul\":954:1028   */\n  swap2\n  pop\n    /* \"#utility.yul\":910:1038   */\n  pop\n    /* \"#utility.yul\":694:1045   */\n  swap3\n  swap2\n  pop\n  pop\n  jump\t// out\n    /* \"FundMe.sol\":389:3940  contract FundMe {... */\ntag_6:\n  dataSize(sub_0)\n  dup1\n  dataOffset(sub_0)\n  0x00\n  codecopy\n  0x00\n  return\nstop\n\nsub_0: assembly {\n        /* \"FundMe.sol\":389:3940  contract FundMe {... */\n      mstore(0x40, 0x80)\n      jumpi(tag_1, lt(calldatasize, 0x04))\n      shr(0xe0, calldataload(0x00))\n      dup1\n      0xb60d4288\n      gt\n      tag_12\n      jumpi\n      dup1\n      0xb60d4288\n      eq\n      tag_7\n      jumpi\n      dup1\n      0xbea4dfb5\n      eq\n      tag_8\n      jumpi\n      dup1\n      0xd39cf006\n      eq\n      tag_9\n      jumpi\n      dup1\n      0xda4658e0\n      eq\n      tag_10\n      jumpi\n      dup1\n      0xf2fde38b\n      eq\n      tag_11\n      jumpi\n      jump(tag_1)\n    tag_12:\n      dup1\n      0x13ffff01\n      eq\n      tag_2\n      jumpi\n      dup1\n      0x590e1ae3\n      eq\n      tag_3\n      jumpi\n      dup1\n      0x8da5cb5b\n      eq\n      tag_4\n      jumpi\n      dup1\n      0x8edd6eb6\n      eq\n      tag_5\n      jumpi\n      dup1\n      0x9f883a05\n      eq\n      tag_6\n      jumpi\n    tag_1:\n      0x00\n      dup1\n      revert\n        /* \"FundMe.sol\":3270:3369  function setErc20Addr(address _erc20Addr) public onlyOwner{... */\n    tag_2:\n      callvalue\n      dup1\n      iszero\n      tag_13\n      jumpi\n      0x00\n      dup1\n      revert\n    tag_13:\n      pop\n      tag_14\n      0x04\n      dup1\n      calldatasize\n      sub\n      dup2\n      add\n      swap1\n      tag_15\n      swap2\n      swap1\n      tag_16\n      jump\t// in\n    tag_15:\n      tag_17\n      jump\t// in\n    tag_14:\n      stop\n        /* \"FundMe.sol\":2843:3262  function refund() external windowClosed {... */\n    tag_3:\n      callvalue\n      dup1\n      iszero\n      tag_18\n      jumpi\n      0x00\n      dup1\n      revert\n    tag_18:\n      pop\n      tag_19\n      tag_20\n      jump\t// in\n    tag_19:\n      stop\n        /* \"FundMe.sol\":632:652  address public owner */\n    tag_4:\n      callvalue\n      dup1\n      iszero\n      tag_21\n      jumpi\n      0x00\n      dup1\n      revert\n    tag_21:\n      pop\n      tag_22\n      tag_23\n      jump\t// in\n    tag_22:\n      mload(0x40)\n      tag_24\n      swap2\n      swap1\n      tag_25\n      jump\t// in\n    tag_24:\n      mload(0x40)\n      dup1\n      swap2\n      sub\n      swap1\n      return\n        /* \"FundMe.sol\":2058:2835  function getFund() external windowClosed onlyOwner{... */\n    tag_5:\n      callvalue\n      dup1\n      iszero\n      tag_26\n      jumpi\n      0x00\n      dup1\n      revert\n    tag_26:\n      pop\n      tag_27\n      tag_28\n      jump\t// in\n    tag_27:\n      stop\n        /* \"FundMe.sol\":412:463  mapping (address => uint256) public fundersToAmount */\n    tag_6:\n      callvalue\n      dup1\n      iszero\n      tag_29\n      jumpi\n      0x00\n      dup1\n      revert\n    tag_29:\n      pop\n      tag_30\n      0x04\n      dup1\n      calldatasize\n      sub\n      dup2\n      add\n      swap1\n      tag_31\n      swap2\n      swap1\n      tag_16\n      jump\t// in\n    tag_31:\n      tag_32\n      jump\t// in\n    tag_30:\n      mload(0x40)\n      tag_33\n      swap2\n      swap1\n      tag_34\n      jump\t// in\n    tag_33:\n      mload(0x40)\n      dup1\n      swap2\n      sub\n      swap1\n      return\n        /* \"FundMe.sol\":1055:1316  function fund() external payable {... */\n    tag_7:\n      tag_35\n      tag_36\n      jump\t// in\n    tag_35:\n      stop\n        /* \"FundMe.sol\":1377:1734  function getChainlinkDataFeedLatestAnswer() public view returns (int) {... */\n    tag_8:\n      callvalue\n      dup1\n      iszero\n      tag_37\n      jumpi\n      0x00\n      dup1\n      revert\n    tag_37:\n      pop\n      tag_38\n      tag_39\n      jump\t// in\n    tag_38:\n      mload(0x40)\n      tag_40\n      swap2\n      swap1\n      tag_41\n      jump\t// in\n    tag_40:\n      mload(0x40)\n      dup1\n      swap2\n      sub\n      swap1\n      return\n        /* \"FundMe.sol\":3377:3612  function setFunderToAmount(address funder, uint256 amountToUpdate) external { ... */\n    tag_9:\n      callvalue\n      dup1\n      iszero\n      tag_42\n      jumpi\n      0x00\n      dup1\n      revert\n    tag_42:\n      pop\n      tag_43\n      0x04\n      dup1\n      calldatasize\n      sub\n      dup2\n      add\n      swap1\n      tag_44\n      swap2\n      swap1\n      tag_45\n      jump\t// in\n    tag_44:\n      tag_46\n      jump\t// in\n    tag_43:\n      stop\n        /* \"FundMe.sol\":746:780  bool public getFundSuccess = false */\n    tag_10:\n      callvalue\n      dup1\n      iszero\n      tag_47\n      jumpi\n      0x00\n      dup1\n      revert\n    tag_47:\n      pop\n      tag_48\n      tag_49\n      jump\t// in\n    tag_48:\n      mload(0x40)\n      tag_50\n      swap2\n      swap1\n      tag_51\n      jump\t// in\n    tag_50:\n      mload(0x40)\n      dup1\n      swap2\n      sub\n      swap1\n      return\n        /* \"FundMe.sol\":1954:2050  function transferOwnership(address newOwner) public onlyOwner{... */\n    tag_11:\n      callvalue\n      dup1\n      iszero\n      tag_52\n      jumpi\n      0x00\n      dup1\n      revert\n    tag_52:\n      pop\n      tag_53\n      0x04\n      dup1\n      calldatasize\n      sub\n      dup2\n      add\n      swap1\n      tag_54\n      swap2\n      swap1\n      tag_16\n      jump\t// in\n    tag_54:\n      tag_55\n      jump\t// in\n    tag_53:\n      stop\n        /* \"FundMe.sol\":3270:3369  function setErc20Addr(address _erc20Addr) public onlyOwner{... */\n    tag_17:\n        /* \"FundMe.sol\":3870:3875  owner */\n      0x02\n      0x00\n      swap1\n      sload\n      swap1\n      0x0100\n      exp\n      swap1\n      div\n      0xffffffffffffffffffffffffffffffffffffffff\n      and\n        /* \"FundMe.sol\":3856:3875  msg.sender == owner */\n      0xffffffffffffffffffffffffffffffffffffffff\n      and\n        /* \"FundMe.sol\":3856:3866  msg.sender */\n      caller\n        /* \"FundMe.sol\":3856:3875  msg.sender == owner */\n      0xffffffffffffffffffffffffffffffffffffffff\n      and\n      eq\n        /* \"FundMe.sol\":3848:3913  require(msg.sender == owner, \"Only owner can call this function\") */\n      tag_57\n      jumpi\n      mload(0x40)\n      0x08c379a000000000000000000000000000000000000000000000000000000000\n      dup2\n      mstore\n      0x04\n      add\n      tag_58\n      swap1\n      tag_59\n      jump\t// in\n    tag_58:\n      mload(0x40)\n      dup1\n      swap2\n      sub\n      swap1\n      revert\n    tag_57:\n        /* \"FundMe.sol\":3351:3361  _erc20Addr */\n      dup1\n        /* \"FundMe.sol\":3339:3348  erc20Addr */\n      0x05\n      0x00\n        /* \"FundMe.sol\":3339:3361  erc20Addr = _erc20Addr */\n      0x0100\n      exp\n      dup2\n      sload\n      dup2\n      0xffffffffffffffffffffffffffffffffffffffff\n      mul\n      not\n      and\n      swap1\n      dup4\n      0xffffffffffffffffffffffffffffffffffffffff\n      and\n      mul\n      or\n      swap1\n      sstore\n      pop\n        /* \"FundMe.sol\":3270:3369  function setErc20Addr(address _erc20Addr) public onlyOwner{... */\n      pop\n      jump\t// out\n        /* \"FundMe.sol\":2843:3262  function refund() external windowClosed {... */\n    tag_20:\n        /* \"FundMe.sol\":3703:3711  lockTime */\n      sload(0x04)\n        /* \"FundMe.sol\":3681:3700  deploymentTimestamp */\n      sload(0x03)\n        /* \"FundMe.sol\":3681:3711  deploymentTimestamp + lockTime */\n      tag_62\n      swap2\n      swap1\n      tag_63\n      jump\t// in\n    tag_62:\n        /* \"FundMe.sol\":3662:3677  block.timestamp */\n      timestamp\n        /* \"FundMe.sol\":3662:3711  block.timestamp >= deploymentTimestamp + lockTime */\n      lt\n      iszero\n        /* \"FundMe.sol\":3654:3736  require(block.timestamp >= deploymentTimestamp + lockTime, \"window is not closed\") */\n      tag_64\n      jumpi\n      mload(0x40)\n      0x08c379a000000000000000000000000000000000000000000000000000000000\n      dup2\n      mstore\n      0x04\n      add\n      tag_65\n      swap1\n      tag_66\n      jump\t// in\n    tag_65:\n      mload(0x40)\n      dup1\n      swap2\n      sub\n      swap1\n      revert\n    tag_64:\n        /* \"FundMe.sol\":608:623  1000 * 10 ** 18 */\n      0x3635c9adc5dea00000\n        /* \"FundMe.sol\":2902:2940  convertEthToUsd(address(this).balance) */\n      tag_68\n        /* \"FundMe.sol\":2918:2939  address(this).balance */\n      selfbalance\n        /* \"FundMe.sol\":2902:2917  convertEthToUsd */\n      tag_69\n        /* \"FundMe.sol\":2902:2940  convertEthToUsd(address(this).balance) */\n      jump\t// in\n    tag_68:\n        /* \"FundMe.sol\":2902:2949  convertEthToUsd(address(this).balance) < TARGET */\n      lt\n        /* \"FundMe.sol\":2894:2971  require(convertEthToUsd(address(this).balance) < TARGET, \"TARGET is reached\") */\n      tag_70\n      jumpi\n      mload(0x40)\n      0x08c379a000000000000000000000000000000000000000000000000000000000\n      dup2\n      mstore\n      0x04\n      add\n      tag_71\n      swap1\n      tag_72\n      jump\t// in\n    tag_71:\n      mload(0x40)\n      dup1\n      swap2\n      sub\n      swap1\n      revert\n    tag_70:\n        /* \"FundMe.sol\":3021:3022  0 */\n      0x00\n        /* \"FundMe.sol\":2990:3005  fundersToAmount */\n      dup1\n        /* \"FundMe.sol\":2990:3017  fundersToAmount[msg.sender] */\n      0x00\n        /* \"FundMe.sol\":3006:3016  msg.sender */\n      caller\n        /* \"FundMe.sol\":2990:3017  fundersToAmount[msg.sender] */\n      0xffffffffffffffffffffffffffffffffffffffff\n      and\n      0xffffffffffffffffffffffffffffffffffffffff\n      and\n      dup2\n      mstore\n      0x20\n      add\n      swap1\n      dup2\n      mstore\n      0x20\n      add\n      0x00\n      keccak256\n      sload\n        /* \"FundMe.sol\":2990:3022  fundersToAmount[msg.sender] != 0 */\n      sub\n        /* \"FundMe.sol\":2982:3051  require(fundersToAmount[msg.sender] != 0, \"there is no fund for you\") */\n      tag_73\n      jumpi\n      mload(0x40)\n      0x08c379a000000000000000000000000000000000000000000000000000000000\n      dup2\n      mstore\n      0x04\n      add\n      tag_74\n      swap1\n      tag_75\n      jump\t// in\n    tag_74:\n      mload(0x40)\n      dup1\n      swap2\n      sub\n      swap1\n      revert\n    tag_73:\n        /* \"FundMe.sol\":3062:3074  bool success */\n      0x00\n        /* \"FundMe.sol\":3107:3117  msg.sender */\n      caller\n        /* \"FundMe.sol\":3099:3123  payable(msg.sender).call */\n      0xffffffffffffffffffffffffffffffffffffffff\n      and\n        /* \"FundMe.sol\":3131:3146  fundersToAmount */\n      0x00\n        /* \"FundMe.sol\":3131:3158  fundersToAmount[msg.sender] */\n      dup1\n        /* \"FundMe.sol\":3147:3157  msg.sender */\n      caller\n        /* \"FundMe.sol\":3131:3158  fundersToAmount[msg.sender] */\n      0xffffffffffffffffffffffffffffffffffffffff\n      and\n      0xffffffffffffffffffffffffffffffffffffffff\n      and\n      dup2\n      mstore\n      0x20\n      add\n      swap1\n      dup2\n      mstore\n      0x20\n      add\n      0x00\n      keccak256\n      sload\n        /* \"FundMe.sol\":3099:3163  payable(msg.sender).call{value: fundersToAmount[msg.sender]}(\"\") */\n      mload(0x40)\n      tag_76\n      swap1\n      tag_77\n      jump\t// in\n    tag_76:\n      0x00\n      mload(0x40)\n      dup1\n      dup4\n      sub\n      dup2\n      dup6\n      dup8\n      gas\n      call\n      swap3\n      pop\n      pop\n      pop\n      returndatasize\n      dup1\n      0x00\n      dup2\n      eq\n      tag_80\n      jumpi\n      mload(0x40)\n      swap2\n      pop\n      and(add(returndatasize, 0x3f), not(0x1f))\n      dup3\n      add\n      0x40\n      mstore\n      returndatasize\n      dup3\n      mstore\n      returndatasize\n      0x00\n      0x20\n      dup5\n      add\n      returndatacopy\n      jump(tag_79)\n    tag_80:\n      0x60\n      swap2\n      pop\n    tag_79:\n      pop\n        /* \"FundMe.sol\":3085:3163  (success, ) = payable(msg.sender).call{value: fundersToAmount[msg.sender]}(\"\") */\n      pop\n      dup1\n      swap2\n      pop\n      pop\n        /* \"FundMe.sol\":3182:3189  success */\n      dup1\n        /* \"FundMe.sol\":3174:3212  require(success, \"transfer tx failed\") */\n      tag_81\n      jumpi\n      mload(0x40)\n      0x08c379a000000000000000000000000000000000000000000000000000000000\n      dup2\n      mstore\n      0x04\n      add\n      tag_82\n      swap1\n      tag_83\n      jump\t// in\n    tag_82:\n      mload(0x40)\n      dup1\n      swap2\n      sub\n      swap1\n      revert\n    tag_81:\n        /* \"FundMe.sol\":3253:3254  0 */\n      0x00\n        /* \"FundMe.sol\":3223:3238  fundersToAmount */\n      dup1\n        /* \"FundMe.sol\":3223:3250  fundersToAmount[msg.sender] */\n      0x00\n        /* \"FundMe.sol\":3239:3249  msg.sender */\n      caller\n        /* \"FundMe.sol\":3223:3250  fundersToAmount[msg.sender] */\n      0xffffffffffffffffffffffffffffffffffffffff\n      and\n      0xffffffffffffffffffffffffffffffffffffffff\n      and\n      dup2\n      mstore\n      0x20\n      add\n      swap1\n      dup2\n      mstore\n      0x20\n      add\n      0x00\n      keccak256\n        /* \"FundMe.sol\":3223:3254  fundersToAmount[msg.sender] = 0 */\n      dup2\n      swap1\n      sstore\n      pop\n        /* \"FundMe.sol\":2883:3262  {... */\n      pop\n        /* \"FundMe.sol\":2843:3262  function refund() external windowClosed {... */\n      jump\t// out\n        /* \"FundMe.sol\":632:652  address public owner */\n    tag_23:\n      0x02\n      0x00\n      swap1\n      sload\n      swap1\n      0x0100\n      exp\n      swap1\n      div\n      0xffffffffffffffffffffffffffffffffffffffff\n      and\n      dup2\n      jump\t// out\n        /* \"FundMe.sol\":2058:2835  function getFund() external windowClosed onlyOwner{... */\n    tag_28:\n        /* \"FundMe.sol\":3703:3711  lockTime */\n      sload(0x04)\n        /* \"FundMe.sol\":3681:3700  deploymentTimestamp */\n      sload(0x03)\n        /* \"FundMe.sol\":3681:3711  deploymentTimestamp + lockTime */\n      tag_85\n      swap2\n      swap1\n      tag_63\n      jump\t// in\n    tag_85:\n        /* \"FundMe.sol\":3662:3677  block.timestamp */\n      timestamp\n        /* \"FundMe.sol\":3662:3711  block.timestamp >= deploymentTimestamp + lockTime */\n      lt\n      iszero\n        /* \"FundMe.sol\":3654:3736  require(block.timestamp >= deploymentTimestamp + lockTime, \"window is not closed\") */\n      tag_86\n      jumpi\n      mload(0x40)\n      0x08c379a000000000000000000000000000000000000000000000000000000000\n      dup2\n      mstore\n      0x04\n      add\n      tag_87\n      swap1\n      tag_66\n      jump\t// in\n    tag_87:\n      mload(0x40)\n      dup1\n      swap2\n      sub\n      swap1\n      revert\n    tag_86:\n        /* \"FundMe.sol\":3870:3875  owner */\n      0x02\n      0x00\n      swap1\n      sload\n      swap1\n      0x0100\n      exp\n      swap1\n      div\n      0xffffffffffffffffffffffffffffffffffffffff\n      and\n        /* \"FundMe.sol\":3856:3875  msg.sender == owner */\n      0xffffffffffffffffffffffffffffffffffffffff\n      and\n        /* \"FundMe.sol\":3856:3866  msg.sender */\n      caller\n        /* \"FundMe.sol\":3856:3875  msg.sender == owner */\n      0xffffffffffffffffffffffffffffffffffffffff\n      and\n      eq\n        /* \"FundMe.sol\":3848:3913  require(msg.sender == owner, \"Only owner can call this function\") */\n      tag_89\n      jumpi\n      mload(0x40)\n      0x08c379a000000000000000000000000000000000000000000000000000000000\n      dup2\n      mstore\n      0x04\n      add\n      tag_90\n      swap1\n      tag_59\n      jump\t// in\n    tag_90:\n      mload(0x40)\n      dup1\n      swap2\n      sub\n      swap1\n      revert\n    tag_89:\n        /* \"FundMe.sol\":608:623  1000 * 10 ** 18 */\n      0x3635c9adc5dea00000\n        /* \"FundMe.sol\":2127:2165  convertEthToUsd(address(this).balance) */\n      tag_92\n        /* \"FundMe.sol\":2143:2164  address(this).balance */\n      selfbalance\n        /* \"FundMe.sol\":2127:2142  convertEthToUsd */\n      tag_69\n        /* \"FundMe.sol\":2127:2165  convertEthToUsd(address(this).balance) */\n      jump\t// in\n    tag_92:\n        /* \"FundMe.sol\":2127:2175  convertEthToUsd(address(this).balance) >= TARGET */\n      lt\n      iszero\n        /* \"FundMe.sol\":2119:2195  require(convertEthToUsd(address(this).balance) >= TARGET, \"Not enough fund\") */\n      tag_93\n      jumpi\n      mload(0x40)\n      0x08c379a000000000000000000000000000000000000000000000000000000000\n      dup2\n      mstore\n      0x04\n      add\n      tag_94\n      swap1\n      tag_95\n      jump\t// in\n    tag_94:\n      mload(0x40)\n      dup1\n      swap2\n      sub\n      swap1\n      revert\n    tag_93:\n        /* \"FundMe.sol\":2607:2619  bool success */\n      0x00\n        /* \"FundMe.sol\":2652:2662  msg.sender */\n      caller\n        /* \"FundMe.sol\":2644:2668  payable(msg.sender).call */\n      0xffffffffffffffffffffffffffffffffffffffff\n      and\n        /* \"FundMe.sol\":2676:2697  address(this).balance */\n      selfbalance\n        /* \"FundMe.sol\":2644:2702  payable(msg.sender).call{value: address(this).balance}(\"\") */\n      mload(0x40)\n      tag_96\n      swap1\n      tag_77\n      jump\t// in\n    tag_96:\n      0x00\n      mload(0x40)\n      dup1\n      dup4\n      sub\n      dup2\n      dup6\n      dup8\n      gas\n      call\n      swap3\n      pop\n      pop\n      pop\n      returndatasize\n      dup1\n      0x00\n      dup2\n      eq\n      tag_99\n      jumpi\n      mload(0x40)\n      swap2\n      pop\n      and(add(returndatasize, 0x3f), not(0x1f))\n      dup3\n      add\n      0x40\n      mstore\n      returndatasize\n      dup3\n      mstore\n      returndatasize\n      0x00\n      0x20\n      dup5\n      add\n      returndatacopy\n      jump(tag_98)\n    tag_99:\n      0x60\n      swap2\n      pop\n    tag_98:\n      pop\n        /* \"FundMe.sol\":2630:2702  (success, ) = payable(msg.sender).call{value: address(this).balance}(\"\") */\n      pop\n      dup1\n      swap2\n      pop\n      pop\n        /* \"FundMe.sol\":2721:2728  success */\n      dup1\n        /* \"FundMe.sol\":2713:2751  require(success, \"transfer tx failed\") */\n      tag_100\n      jumpi\n      mload(0x40)\n      0x08c379a000000000000000000000000000000000000000000000000000000000\n      dup2\n      mstore\n      0x04\n      add\n      tag_101\n      swap1\n      tag_83\n      jump\t// in\n    tag_101:\n      mload(0x40)\n      dup1\n      swap2\n      sub\n      swap1\n      revert\n    tag_100:\n        /* \"FundMe.sol\":2792:2793  0 */\n      0x00\n        /* \"FundMe.sol\":2762:2777  fundersToAmount */\n      dup1\n        /* \"FundMe.sol\":2762:2789  fundersToAmount[msg.sender] */\n      0x00\n        /* \"FundMe.sol\":2778:2788  msg.sender */\n      caller\n        /* \"FundMe.sol\":2762:2789  fundersToAmount[msg.sender] */\n      0xffffffffffffffffffffffffffffffffffffffff\n      and\n      0xffffffffffffffffffffffffffffffffffffffff\n      and\n      dup2\n      mstore\n      0x20\n      add\n      swap1\n      dup2\n      mstore\n      0x20\n      add\n      0x00\n      keccak256\n        /* \"FundMe.sol\":2762:2793  fundersToAmount[msg.sender] = 0 */\n      dup2\n      swap1\n      sstore\n      pop\n        /* \"FundMe.sol\":2821:2825  true */\n      0x01\n        /* \"FundMe.sol\":2804:2818  getFundSuccess */\n      0x05\n      0x14\n        /* \"FundMe.sol\":2804:2825  getFundSuccess = true */\n      0x0100\n      exp\n      dup2\n      sload\n      dup2\n      0xff\n      mul\n      not\n      and\n      swap1\n      dup4\n      iszero\n      iszero\n      mul\n      or\n      swap1\n      sstore\n      pop\n        /* \"FundMe.sol\":2108:2835  {... */\n      pop\n        /* \"FundMe.sol\":2058:2835  function getFund() external windowClosed onlyOwner{... */\n      jump\t// out\n        /* \"FundMe.sol\":412:463  mapping (address => uint256) public fundersToAmount */\n    tag_32:\n      mstore(0x20, 0x00)\n      dup1\n      0x00\n      mstore\n      keccak256(0x00, 0x40)\n      0x00\n      swap2\n      pop\n      swap1\n      pop\n      sload\n      dup2\n      jump\t// out\n        /* \"FundMe.sol\":1055:1316  function fund() external payable {... */\n    tag_36:\n        /* \"FundMe.sol\":505:519  100 * 10 ** 18 */\n      0x056bc75e2d63100000\n        /* \"FundMe.sol\":1107:1133  convertEthToUsd(msg.value) */\n      tag_103\n        /* \"FundMe.sol\":1123:1132  msg.value */\n      callvalue\n        /* \"FundMe.sol\":1107:1122  convertEthToUsd */\n      tag_69\n        /* \"FundMe.sol\":1107:1133  convertEthToUsd(msg.value) */\n      jump\t// in\n    tag_103:\n        /* \"FundMe.sol\":1107:1150  convertEthToUsd(msg.value) >= MINIMUN_VALUE */\n      lt\n      iszero\n        /* \"FundMe.sol\":1099:1169  require(convertEthToUsd(msg.value) >= MINIMUN_VALUE, \"Send more ETH\" ) */\n      tag_104\n      jumpi\n      mload(0x40)\n      0x08c379a000000000000000000000000000000000000000000000000000000000\n      dup2\n      mstore\n      0x04\n      add\n      tag_105\n      swap1\n      tag_106\n      jump\t// in\n    tag_105:\n      mload(0x40)\n      dup1\n      swap2\n      sub\n      swap1\n      revert\n    tag_104:\n        /* \"FundMe.sol\":1228:1236  lockTime */\n      sload(0x04)\n        /* \"FundMe.sol\":1206:1225  deploymentTimestamp */\n      sload(0x03)\n        /* \"FundMe.sol\":1206:1236  deploymentTimestamp + lockTime */\n      tag_107\n      swap2\n      swap1\n      tag_63\n      jump\t// in\n    tag_107:\n        /* \"FundMe.sol\":1188:1203  block.timestamp */\n      timestamp\n        /* \"FundMe.sol\":1188:1236  block.timestamp < deploymentTimestamp + lockTime */\n      lt\n        /* \"FundMe.sol\":1180:1257  require(block.timestamp < deploymentTimestamp + lockTime, \"window is closed\") */\n      tag_108\n      jumpi\n      mload(0x40)\n      0x08c379a000000000000000000000000000000000000000000000000000000000\n      dup2\n      mstore\n      0x04\n      add\n      tag_109\n      swap1\n      tag_110\n      jump\t// in\n    tag_109:\n      mload(0x40)\n      dup1\n      swap2\n      sub\n      swap1\n      revert\n    tag_108:\n        /* \"FundMe.sol\":1299:1308  msg.value */\n      callvalue\n        /* \"FundMe.sol\":1268:1283  fundersToAmount */\n      0x00\n        /* \"FundMe.sol\":1268:1295  fundersToAmount[msg.sender] */\n      dup1\n        /* \"FundMe.sol\":1284:1294  msg.sender */\n      caller\n        /* \"FundMe.sol\":1268:1295  fundersToAmount[msg.sender] */\n      0xffffffffffffffffffffffffffffffffffffffff\n      and\n      0xffffffffffffffffffffffffffffffffffffffff\n      and\n      dup2\n      mstore\n      0x20\n      add\n      swap1\n      dup2\n      mstore\n      0x20\n      add\n      0x00\n      keccak256\n      0x00\n        /* \"FundMe.sol\":1268:1308  fundersToAmount[msg.sender] += msg.value */\n      dup3\n      dup3\n      sload\n      tag_111\n      swap2\n      swap1\n      tag_63\n      jump\t// in\n    tag_111:\n      swap3\n      pop\n      pop\n      dup2\n      swap1\n      sstore\n      pop\n        /* \"FundMe.sol\":1055:1316  function fund() external payable {... */\n      jump\t// out\n        /* \"FundMe.sol\":1377:1734  function getChainlinkDataFeedLatestAnswer() public view returns (int) {... */\n    tag_39:\n        /* \"FundMe.sol\":1442:1445  int */\n      0x00\n        /* \"FundMe.sol\":1536:1549  int256 answer */\n      dup1\n        /* \"FundMe.sol\":1676:1684  dataFeed */\n      0x01\n      0x00\n      swap1\n      sload\n      swap1\n      0x0100\n      exp\n      swap1\n      div\n      0xffffffffffffffffffffffffffffffffffffffff\n      and\n        /* \"FundMe.sol\":1676:1700  dataFeed.latestRoundData */\n      0xffffffffffffffffffffffffffffffffffffffff\n      and\n      0xfeaf968c\n        /* \"FundMe.sol\":1676:1702  dataFeed.latestRoundData() */\n      mload(0x40)\n      dup2\n      0xffffffff\n      and\n      0xe0\n      shl\n      dup2\n      mstore\n      0x04\n      add\n      0xa0\n      mload(0x40)\n      dup1\n      dup4\n      sub\n      dup2\n      dup7\n      gas\n      staticcall\n      iszero\n      dup1\n      iszero\n      tag_114\n      jumpi\n      returndatasize\n      0x00\n      dup1\n      returndatacopy\n      revert(0x00, returndatasize)\n    tag_114:\n      pop\n      pop\n      pop\n      pop\n      mload(0x40)\n      returndatasize\n      not(0x1f)\n      0x1f\n      dup3\n      add\n      and\n      dup3\n      add\n      dup1\n      0x40\n      mstore\n      pop\n      dup2\n      add\n      swap1\n      tag_115\n      swap2\n      swap1\n      tag_116\n      jump\t// in\n    tag_115:\n        /* \"FundMe.sol\":1486:1702  (... */\n      pop\n      pop\n      pop\n      swap2\n      pop\n      pop\n        /* \"FundMe.sol\":1720:1726  answer */\n      dup1\n        /* \"FundMe.sol\":1713:1726  return answer */\n      swap2\n      pop\n      pop\n        /* \"FundMe.sol\":1377:1734  function getChainlinkDataFeedLatestAnswer() public view returns (int) {... */\n      swap1\n      jump\t// out\n        /* \"FundMe.sol\":3377:3612  function setFunderToAmount(address funder, uint256 amountToUpdate) external { ... */\n    tag_46:\n        /* \"FundMe.sol\":3487:3496  erc20Addr */\n      0x05\n      0x00\n      swap1\n      sload\n      swap1\n      0x0100\n      exp\n      swap1\n      div\n      0xffffffffffffffffffffffffffffffffffffffff\n      and\n        /* \"FundMe.sol\":3473:3496  msg.sender == erc20Addr */\n      0xffffffffffffffffffffffffffffffffffffffff\n      and\n        /* \"FundMe.sol\":3473:3483  msg.sender */\n      caller\n        /* \"FundMe.sol\":3473:3496  msg.sender == erc20Addr */\n      0xffffffffffffffffffffffffffffffffffffffff\n      and\n      eq\n        /* \"FundMe.sol\":3465:3553  require(msg.sender == erc20Addr, \"You do not have the permission to call this function\") */\n      tag_118\n      jumpi\n      mload(0x40)\n      0x08c379a000000000000000000000000000000000000000000000000000000000\n      dup2\n      mstore\n      0x04\n      add\n      tag_119\n      swap1\n      tag_120\n      jump\t// in\n    tag_119:\n      mload(0x40)\n      dup1\n      swap2\n      sub\n      swap1\n      revert\n    tag_118:\n        /* \"FundMe.sol\":3590:3604  amountToUpdate */\n      dup1\n        /* \"FundMe.sol\":3564:3579  fundersToAmount */\n      0x00\n        /* \"FundMe.sol\":3564:3587  fundersToAmount[funder] */\n      dup1\n        /* \"FundMe.sol\":3580:3586  funder */\n      dup5\n        /* \"FundMe.sol\":3564:3587  fundersToAmount[funder] */\n      0xffffffffffffffffffffffffffffffffffffffff\n      and\n      0xffffffffffffffffffffffffffffffffffffffff\n      and\n      dup2\n      mstore\n      0x20\n      add\n      swap1\n      dup2\n      mstore\n      0x20\n      add\n      0x00\n      keccak256\n        /* \"FundMe.sol\":3564:3604  fundersToAmount[funder] = amountToUpdate */\n      dup2\n      swap1\n      sstore\n      pop\n        /* \"FundMe.sol\":3377:3612  function setFunderToAmount(address funder, uint256 amountToUpdate) external { ... */\n      pop\n      pop\n      jump\t// out\n        /* \"FundMe.sol\":746:780  bool public getFundSuccess = false */\n    tag_49:\n      0x05\n      0x14\n      swap1\n      sload\n      swap1\n      0x0100\n      exp\n      swap1\n      div\n      0xff\n      and\n      dup2\n      jump\t// out\n        /* \"FundMe.sol\":1954:2050  function transferOwnership(address newOwner) public onlyOwner{... */\n    tag_55:\n        /* \"FundMe.sol\":3870:3875  owner */\n      0x02\n      0x00\n      swap1\n      sload\n      swap1\n      0x0100\n      exp\n      swap1\n      div\n      0xffffffffffffffffffffffffffffffffffffffff\n      and\n        /* \"FundMe.sol\":3856:3875  msg.sender == owner */\n      0xffffffffffffffffffffffffffffffffffffffff\n      and\n        /* \"FundMe.sol\":3856:3866  msg.sender */\n      caller\n        /* \"FundMe.sol\":3856:3875  msg.sender == owner */\n      0xffffffffffffffffffffffffffffffffffffffff\n      and\n      eq\n        /* \"FundMe.sol\":3848:3913  require(msg.sender == owner, \"Only owner can call this function\") */\n      tag_122\n      jumpi\n      mload(0x40)\n      0x08c379a000000000000000000000000000000000000000000000000000000000\n      dup2\n      mstore\n      0x04\n      add\n      tag_123\n      swap1\n      tag_59\n      jump\t// in\n    tag_123:\n      mload(0x40)\n      dup1\n      swap2\n      sub\n      swap1\n      revert\n    tag_122:\n        /* \"FundMe.sol\":2034:2042  newOwner */\n      dup1\n        /* \"FundMe.sol\":2026:2031  owner */\n      0x02\n      0x00\n        /* \"FundMe.sol\":2026:2042  owner = newOwner */\n      0x0100\n      exp\n      dup2\n      sload\n      dup2\n      0xffffffffffffffffffffffffffffffffffffffff\n      mul\n      not\n      and\n      swap1\n      dup4\n      0xffffffffffffffffffffffffffffffffffffffff\n      and\n      mul\n      or\n      swap1\n      sstore\n      pop\n        /* \"FundMe.sol\":1954:2050  function transferOwnership(address newOwner) public onlyOwner{... */\n      pop\n      jump\t// out\n        /* \"FundMe.sol\":1742:1946  function convertEthToUsd(uint256 ethAmount) internal view returns(uint256) { ... */\n    tag_69:\n        /* \"FundMe.sol\":1808:1815  uint256 */\n      0x00\n        /* \"FundMe.sol\":1829:1845  uint256 ethPrice */\n      dup1\n        /* \"FundMe.sol\":1856:1890  getChainlinkDataFeedLatestAnswer() */\n      tag_126\n        /* \"FundMe.sol\":1856:1888  getChainlinkDataFeedLatestAnswer */\n      tag_39\n        /* \"FundMe.sol\":1856:1890  getChainlinkDataFeedLatestAnswer() */\n      jump\t// in\n    tag_126:\n        /* \"FundMe.sol\":1829:1892  uint256 ethPrice =uint256( getChainlinkDataFeedLatestAnswer() ) */\n      swap1\n      pop\n        /* \"FundMe.sol\":1932:1937  10**8 */\n      0x05f5e100\n        /* \"FundMe.sol\":1922:1930  ethPrice */\n      dup2\n        /* \"FundMe.sol\":1910:1919  ethAmount */\n      dup5\n        /* \"FundMe.sol\":1910:1930  ethAmount * ethPrice */\n      tag_127\n      swap2\n      swap1\n      tag_128\n      jump\t// in\n    tag_127:\n        /* \"FundMe.sol\":1910:1938  ethAmount * ethPrice/(10**8) */\n      tag_129\n      swap2\n      swap1\n      tag_130\n      jump\t// in\n    tag_129:\n        /* \"FundMe.sol\":1903:1938  return ethAmount * ethPrice/(10**8) */\n      swap2\n      pop\n      pop\n        /* \"FundMe.sol\":1742:1946  function convertEthToUsd(uint256 ethAmount) internal view returns(uint256) { ... */\n      swap2\n      swap1\n      pop\n      jump\t// out\n        /* \"#utility.yul\":88:205   */\n    tag_132:\n        /* \"#utility.yul\":197:198   */\n      0x00\n        /* \"#utility.yul\":194:195   */\n      dup1\n        /* \"#utility.yul\":187:199   */\n      revert\n        /* \"#utility.yul\":334:460   */\n    tag_134:\n        /* \"#utility.yul\":371:378   */\n      0x00\n        /* \"#utility.yul\":411:453   */\n      0xffffffffffffffffffffffffffffffffffffffff\n        /* \"#utility.yul\":404:409   */\n      dup3\n        /* \"#utility.yul\":400:454   */\n      and\n        /* \"#utility.yul\":389:454   */\n      swap1\n      pop\n        /* \"#utility.yul\":334:460   */\n      swap2\n      swap1\n      pop\n      jump\t// out\n        /* \"#utility.yul\":466:562   */\n    tag_135:\n        /* \"#utility.yul\":503:510   */\n      0x00\n        /* \"#utility.yul\":532:556   */\n      tag_183\n        /* \"#utility.yul\":550:555   */\n      dup3\n        /* \"#utility.yul\":532:556   */\n      tag_134\n      jump\t// in\n    tag_183:\n        /* \"#utility.yul\":521:556   */\n      swap1\n      pop\n        /* \"#utility.yul\":466:562   */\n      swap2\n      swap1\n      pop\n      jump\t// out\n        /* \"#utility.yul\":568:690   */\n    tag_136:\n        /* \"#utility.yul\":641:665   */\n      tag_185\n        /* \"#utility.yul\":659:664   */\n      dup2\n        /* \"#utility.yul\":641:665   */\n      tag_135\n      jump\t// in\n    tag_185:\n        /* \"#utility.yul\":634:639   */\n      dup2\n        /* \"#utility.yul\":631:666   */\n      eq\n        /* \"#utility.yul\":621:684   */\n      tag_186\n      jumpi\n        /* \"#utility.yul\":680:681   */\n      0x00\n        /* \"#utility.yul\":677:678   */\n      dup1\n        /* \"#utility.yul\":670:682   */\n      revert\n        /* \"#utility.yul\":621:684   */\n    tag_186:\n        /* \"#utility.yul\":568:690   */\n      pop\n      jump\t// out\n        /* \"#utility.yul\":696:835   */\n    tag_137:\n        /* \"#utility.yul\":742:747   */\n      0x00\n        /* \"#utility.yul\":780:786   */\n      dup2\n        /* \"#utility.yul\":767:787   */\n      calldataload\n        /* \"#utility.yul\":758:787   */\n      swap1\n      pop\n        /* \"#utility.yul\":796:829   */\n      tag_188\n        /* \"#utility.yul\":823:828   */\n      dup2\n        /* \"#utility.yul\":796:829   */\n      tag_136\n      jump\t// in\n    tag_188:\n        /* \"#utility.yul\":696:835   */\n      swap3\n      swap2\n      pop\n      pop\n      jump\t// out\n        /* \"#utility.yul\":841:1170   */\n    tag_16:\n        /* \"#utility.yul\":900:906   */\n      0x00\n        /* \"#utility.yul\":949:951   */\n      0x20\n        /* \"#utility.yul\":937:946   */\n      dup3\n        /* \"#utility.yul\":928:935   */\n      dup5\n        /* \"#utility.yul\":924:947   */\n      sub\n        /* \"#utility.yul\":920:952   */\n      slt\n        /* \"#utility.yul\":917:1036   */\n      iszero\n      tag_190\n      jumpi\n        /* \"#utility.yul\":955:1034   */\n      tag_191\n      tag_132\n      jump\t// in\n    tag_191:\n        /* \"#utility.yul\":917:1036   */\n    tag_190:\n        /* \"#utility.yul\":1075:1076   */\n      0x00\n        /* \"#utility.yul\":1100:1153   */\n      tag_192\n        /* \"#utility.yul\":1145:1152   */\n      dup5\n        /* \"#utility.yul\":1136:1142   */\n      dup3\n        /* \"#utility.yul\":1125:1134   */\n      dup6\n        /* \"#utility.yul\":1121:1143   */\n      add\n        /* \"#utility.yul\":1100:1153   */\n      tag_137\n      jump\t// in\n    tag_192:\n        /* \"#utility.yul\":1090:1153   */\n      swap2\n      pop\n        /* \"#utility.yul\":1046:1163   */\n      pop\n        /* \"#utility.yul\":841:1170   */\n      swap3\n      swap2\n      pop\n      pop\n      jump\t// out\n        /* \"#utility.yul\":1176:1294   */\n    tag_138:\n        /* \"#utility.yul\":1263:1287   */\n      tag_194\n        /* \"#utility.yul\":1281:1286   */\n      dup2\n        /* \"#utility.yul\":1263:1287   */\n      tag_135\n      jump\t// in\n    tag_194:\n        /* \"#utility.yul\":1258:1261   */\n      dup3\n        /* \"#utility.yul\":1251:1288   */\n      mstore\n        /* \"#utility.yul\":1176:1294   */\n      pop\n      pop\n      jump\t// out\n        /* \"#utility.yul\":1300:1522   */\n    tag_25:\n        /* \"#utility.yul\":1393:1397   */\n      0x00\n        /* \"#utility.yul\":1431:1433   */\n      0x20\n        /* \"#utility.yul\":1420:1429   */\n      dup3\n        /* \"#utility.yul\":1416:1434   */\n      add\n        /* \"#utility.yul\":1408:1434   */\n      swap1\n      pop\n        /* \"#utility.yul\":1444:1515   */\n      tag_196\n        /* \"#utility.yul\":1512:1513   */\n      0x00\n        /* \"#utility.yul\":1501:1510   */\n      dup4\n        /* \"#utility.yul\":1497:1514   */\n      add\n        /* \"#utility.yul\":1488:1494   */\n      dup5\n        /* \"#utility.yul\":1444:1515   */\n      tag_138\n      jump\t// in\n    tag_196:\n        /* \"#utility.yul\":1300:1522   */\n      swap3\n      swap2\n      pop\n      pop\n      jump\t// out\n        /* \"#utility.yul\":1528:1605   */\n    tag_139:\n        /* \"#utility.yul\":1565:1572   */\n      0x00\n        /* \"#utility.yul\":1594:1599   */\n      dup2\n        /* \"#utility.yul\":1583:1599   */\n      swap1\n      pop\n        /* \"#utility.yul\":1528:1605   */\n      swap2\n      swap1\n      pop\n      jump\t// out\n        /* \"#utility.yul\":1611:1729   */\n    tag_140:\n        /* \"#utility.yul\":1698:1722   */\n      tag_199\n        /* \"#utility.yul\":1716:1721   */\n      dup2\n        /* \"#utility.yul\":1698:1722   */\n      tag_139\n      jump\t// in\n    tag_199:\n        /* \"#utility.yul\":1693:1696   */\n      dup3\n        /* \"#utility.yul\":1686:1723   */\n      mstore\n        /* \"#utility.yul\":1611:1729   */\n      pop\n      pop\n      jump\t// out\n        /* \"#utility.yul\":1735:1957   */\n    tag_34:\n        /* \"#utility.yul\":1828:1832   */\n      0x00\n        /* \"#utility.yul\":1866:1868   */\n      0x20\n        /* \"#utility.yul\":1855:1864   */\n      dup3\n        /* \"#utility.yul\":1851:1869   */\n      add\n        /* \"#utility.yul\":1843:1869   */\n      swap1\n      pop\n        /* \"#utility.yul\":1879:1950   */\n      tag_201\n        /* \"#utility.yul\":1947:1948   */\n      0x00\n        /* \"#utility.yul\":1936:1945   */\n      dup4\n        /* \"#utility.yul\":1932:1949   */\n      add\n        /* \"#utility.yul\":1923:1929   */\n      dup5\n        /* \"#utility.yul\":1879:1950   */\n      tag_140\n      jump\t// in\n    tag_201:\n        /* \"#utility.yul\":1735:1957   */\n      swap3\n      swap2\n      pop\n      pop\n      jump\t// out\n        /* \"#utility.yul\":1963:2039   */\n    tag_141:\n        /* \"#utility.yul\":1999:2006   */\n      0x00\n        /* \"#utility.yul\":2028:2033   */\n      dup2\n        /* \"#utility.yul\":2017:2033   */\n      swap1\n      pop\n        /* \"#utility.yul\":1963:2039   */\n      swap2\n      swap1\n      pop\n      jump\t// out\n        /* \"#utility.yul\":2045:2160   */\n    tag_142:\n        /* \"#utility.yul\":2130:2153   */\n      tag_204\n        /* \"#utility.yul\":2147:2152   */\n      dup2\n        /* \"#utility.yul\":2130:2153   */\n      tag_141\n      jump\t// in\n    tag_204:\n        /* \"#utility.yul\":2125:2128   */\n      dup3\n        /* \"#utility.yul\":2118:2154   */\n      mstore\n        /* \"#utility.yul\":2045:2160   */\n      pop\n      pop\n      jump\t// out\n        /* \"#utility.yul\":2166:2384   */\n    tag_41:\n        /* \"#utility.yul\":2257:2261   */\n      0x00\n        /* \"#utility.yul\":2295:2297   */\n      0x20\n        /* \"#utility.yul\":2284:2293   */\n      dup3\n        /* \"#utility.yul\":2280:2298   */\n      add\n        /* \"#utility.yul\":2272:2298   */\n      swap1\n      pop\n        /* \"#utility.yul\":2308:2377   */\n      tag_206\n        /* \"#utility.yul\":2374:2375   */\n      0x00\n        /* \"#utility.yul\":2363:2372   */\n      dup4\n        /* \"#utility.yul\":2359:2376   */\n      add\n        /* \"#utility.yul\":2350:2356   */\n      dup5\n        /* \"#utility.yul\":2308:2377   */\n      tag_142\n      jump\t// in\n    tag_206:\n        /* \"#utility.yul\":2166:2384   */\n      swap3\n      swap2\n      pop\n      pop\n      jump\t// out\n        /* \"#utility.yul\":2390:2512   */\n    tag_143:\n        /* \"#utility.yul\":2463:2487   */\n      tag_208\n        /* \"#utility.yul\":2481:2486   */\n      dup2\n        /* \"#utility.yul\":2463:2487   */\n      tag_139\n      jump\t// in\n    tag_208:\n        /* \"#utility.yul\":2456:2461   */\n      dup2\n        /* \"#utility.yul\":2453:2488   */\n      eq\n        /* \"#utility.yul\":2443:2506   */\n      tag_209\n      jumpi\n        /* \"#utility.yul\":2502:2503   */\n      0x00\n        /* \"#utility.yul\":2499:2500   */\n      dup1\n        /* \"#utility.yul\":2492:2504   */\n      revert\n        /* \"#utility.yul\":2443:2506   */\n    tag_209:\n        /* \"#utility.yul\":2390:2512   */\n      pop\n      jump\t// out\n        /* \"#utility.yul\":2518:2657   */\n    tag_144:\n        /* \"#utility.yul\":2564:2569   */\n      0x00\n        /* \"#utility.yul\":2602:2608   */\n      dup2\n        /* \"#utility.yul\":2589:2609   */\n      calldataload\n        /* \"#utility.yul\":2580:2609   */\n      swap1\n      pop\n        /* \"#utility.yul\":2618:2651   */\n      tag_211\n        /* \"#utility.yul\":2645:2650   */\n      dup2\n        /* \"#utility.yul\":2618:2651   */\n      tag_143\n      jump\t// in\n    tag_211:\n        /* \"#utility.yul\":2518:2657   */\n      swap3\n      swap2\n      pop\n      pop\n      jump\t// out\n        /* \"#utility.yul\":2663:3137   */\n    tag_45:\n        /* \"#utility.yul\":2731:2737   */\n      0x00\n        /* \"#utility.yul\":2739:2745   */\n      dup1\n        /* \"#utility.yul\":2788:2790   */\n      0x40\n        /* \"#utility.yul\":2776:2785   */\n      dup4\n        /* \"#utility.yul\":2767:2774   */\n      dup6\n        /* \"#utility.yul\":2763:2786   */\n      sub\n        /* \"#utility.yul\":2759:2791   */\n      slt\n        /* \"#utility.yul\":2756:2875   */\n      iszero\n      tag_213\n      jumpi\n        /* \"#utility.yul\":2794:2873   */\n      tag_214\n      tag_132\n      jump\t// in\n    tag_214:\n        /* \"#utility.yul\":2756:2875   */\n    tag_213:\n        /* \"#utility.yul\":2914:2915   */\n      0x00\n        /* \"#utility.yul\":2939:2992   */\n      tag_215\n        /* \"#utility.yul\":2984:2991   */\n      dup6\n        /* \"#utility.yul\":2975:2981   */\n      dup3\n        /* \"#utility.yul\":2964:2973   */\n      dup7\n        /* \"#utility.yul\":2960:2982   */\n      add\n        /* \"#utility.yul\":2939:2992   */\n      tag_137\n      jump\t// in\n    tag_215:\n        /* \"#utility.yul\":2929:2992   */\n      swap3\n      pop\n        /* \"#utility.yul\":2885:3002   */\n      pop\n        /* \"#utility.yul\":3041:3043   */\n      0x20\n        /* \"#utility.yul\":3067:3120   */\n      tag_216\n        /* \"#utility.yul\":3112:3119   */\n      dup6\n        /* \"#utility.yul\":3103:3109   */\n      dup3\n        /* \"#utility.yul\":3092:3101   */\n      dup7\n        /* \"#utility.yul\":3088:3110   */\n      add\n        /* \"#utility.yul\":3067:3120   */\n      tag_144\n      jump\t// in\n    tag_216:\n        /* \"#utility.yul\":3057:3120   */\n      swap2\n      pop\n        /* \"#utility.yul\":3012:3130   */\n      pop\n        /* \"#utility.yul\":2663:3137   */\n      swap3\n      pop\n      swap3\n      swap1\n      pop\n      jump\t// out\n        /* \"#utility.yul\":3143:3233   */\n    tag_145:\n        /* \"#utility.yul\":3177:3184   */\n      0x00\n        /* \"#utility.yul\":3220:3225   */\n      dup2\n        /* \"#utility.yul\":3213:3226   */\n      iszero\n        /* \"#utility.yul\":3206:3227   */\n      iszero\n        /* \"#utility.yul\":3195:3227   */\n      swap1\n      pop\n        /* \"#utility.yul\":3143:3233   */\n      swap2\n      swap1\n      pop\n      jump\t// out\n        /* \"#utility.yul\":3239:3348   */\n    tag_146:\n        /* \"#utility.yul\":3320:3341   */\n      tag_219\n        /* \"#utility.yul\":3335:3340   */\n      dup2\n        /* \"#utility.yul\":3320:3341   */\n      tag_145\n      jump\t// in\n    tag_219:\n        /* \"#utility.yul\":3315:3318   */\n      dup3\n        /* \"#utility.yul\":3308:3342   */\n      mstore\n        /* \"#utility.yul\":3239:3348   */\n      pop\n      pop\n      jump\t// out\n        /* \"#utility.yul\":3354:3564   */\n    tag_51:\n        /* \"#utility.yul\":3441:3445   */\n      0x00\n        /* \"#utility.yul\":3479:3481   */\n      0x20\n        /* \"#utility.yul\":3468:3477   */\n      dup3\n        /* \"#utility.yul\":3464:3482   */\n      add\n        /* \"#utility.yul\":3456:3482   */\n      swap1\n      pop\n        /* \"#utility.yul\":3492:3557   */\n      tag_221\n        /* \"#utility.yul\":3554:3555   */\n      0x00\n        /* \"#utility.yul\":3543:3552   */\n      dup4\n        /* \"#utility.yul\":3539:3556   */\n      add\n        /* \"#utility.yul\":3530:3536   */\n      dup5\n        /* \"#utility.yul\":3492:3557   */\n      tag_146\n      jump\t// in\n    tag_221:\n        /* \"#utility.yul\":3354:3564   */\n      swap3\n      swap2\n      pop\n      pop\n      jump\t// out\n        /* \"#utility.yul\":3570:3739   */\n    tag_147:\n        /* \"#utility.yul\":3654:3665   */\n      0x00\n        /* \"#utility.yul\":3688:3694   */\n      dup3\n        /* \"#utility.yul\":3683:3686   */\n      dup3\n        /* \"#utility.yul\":3676:3695   */\n      mstore\n        /* \"#utility.yul\":3728:3732   */\n      0x20\n        /* \"#utility.yul\":3723:3726   */\n      dup3\n        /* \"#utility.yul\":3719:3733   */\n      add\n        /* \"#utility.yul\":3704:3733   */\n      swap1\n      pop\n        /* \"#utility.yul\":3570:3739   */\n      swap3\n      swap2\n      pop\n      pop\n      jump\t// out\n        /* \"#utility.yul\":3745:3965   */\n    tag_148:\n        /* \"#utility.yul\":3885:3919   */\n      0x4f6e6c79206f776e65722063616e2063616c6c20746869732066756e6374696f\n        /* \"#utility.yul\":3881:3882   */\n      0x00\n        /* \"#utility.yul\":3873:3879   */\n      dup3\n        /* \"#utility.yul\":3869:3883   */\n      add\n        /* \"#utility.yul\":3862:3920   */\n      mstore\n        /* \"#utility.yul\":3954:3957   */\n      0x6e00000000000000000000000000000000000000000000000000000000000000\n        /* \"#utility.yul\":3949:3951   */\n      0x20\n        /* \"#utility.yul\":3941:3947   */\n      dup3\n        /* \"#utility.yul\":3937:3952   */\n      add\n        /* \"#utility.yul\":3930:3958   */\n      mstore\n        /* \"#utility.yul\":3745:3965   */\n      pop\n      jump\t// out\n        /* \"#utility.yul\":3971:4337   */\n    tag_149:\n        /* \"#utility.yul\":4113:4116   */\n      0x00\n        /* \"#utility.yul\":4134:4201   */\n      tag_225\n        /* \"#utility.yul\":4198:4200   */\n      0x21\n        /* \"#utility.yul\":4193:4196   */\n      dup4\n        /* \"#utility.yul\":4134:4201   */\n      tag_147\n      jump\t// in\n    tag_225:\n        /* \"#utility.yul\":4127:4201   */\n      swap2\n      pop\n        /* \"#utility.yul\":4210:4303   */\n      tag_226\n        /* \"#utility.yul\":4299:4302   */\n      dup3\n        /* \"#utility.yul\":4210:4303   */\n      tag_148\n      jump\t// in\n    tag_226:\n        /* \"#utility.yul\":4328:4330   */\n      0x40\n        /* \"#utility.yul\":4323:4326   */\n      dup3\n        /* \"#utility.yul\":4319:4331   */\n      add\n        /* \"#utility.yul\":4312:4331   */\n      swap1\n      pop\n        /* \"#utility.yul\":3971:4337   */\n      swap2\n      swap1\n      pop\n      jump\t// out\n        /* \"#utility.yul\":4343:4762   */\n    tag_59:\n        /* \"#utility.yul\":4509:4513   */\n      0x00\n        /* \"#utility.yul\":4547:4549   */\n      0x20\n        /* \"#utility.yul\":4536:4545   */\n      dup3\n        /* \"#utility.yul\":4532:4550   */\n      add\n        /* \"#utility.yul\":4524:4550   */\n      swap1\n      pop\n        /* \"#utility.yul\":4596:4605   */\n      dup2\n        /* \"#utility.yul\":4590:4594   */\n      dup2\n        /* \"#utility.yul\":4586:4606   */\n      sub\n        /* \"#utility.yul\":4582:4583   */\n      0x00\n        /* \"#utility.yul\":4571:4580   */\n      dup4\n        /* \"#utility.yul\":4567:4584   */\n      add\n        /* \"#utility.yul\":4560:4607   */\n      mstore\n        /* \"#utility.yul\":4624:4755   */\n      tag_228\n        /* \"#utility.yul\":4750:4754   */\n      dup2\n        /* \"#utility.yul\":4624:4755   */\n      tag_149\n      jump\t// in\n    tag_228:\n        /* \"#utility.yul\":4616:4755   */\n      swap1\n      pop\n        /* \"#utility.yul\":4343:4762   */\n      swap2\n      swap1\n      pop\n      jump\t// out\n        /* \"#utility.yul\":4768:4948   */\n    tag_150:\n        /* \"#utility.yul\":4816:4893   */\n      0x4e487b7100000000000000000000000000000000000000000000000000000000\n        /* \"#utility.yul\":4813:4814   */\n      0x00\n        /* \"#utility.yul\":4806:4894   */\n      mstore\n        /* \"#utility.yul\":4913:4917   */\n      0x11\n        /* \"#utility.yul\":4910:4911   */\n      0x04\n        /* \"#utility.yul\":4903:4918   */\n      mstore\n        /* \"#utility.yul\":4937:4941   */\n      0x24\n        /* \"#utility.yul\":4934:4935   */\n      0x00\n        /* \"#utility.yul\":4927:4942   */\n      revert\n        /* \"#utility.yul\":4954:5145   */\n    tag_63:\n        /* \"#utility.yul\":4994:4997   */\n      0x00\n        /* \"#utility.yul\":5013:5033   */\n      tag_231\n        /* \"#utility.yul\":5031:5032   */\n      dup3\n        /* \"#utility.yul\":5013:5033   */\n      tag_139\n      jump\t// in\n    tag_231:\n        /* \"#utility.yul\":5008:5033   */\n      swap2\n      pop\n        /* \"#utility.yul\":5047:5067   */\n      tag_232\n        /* \"#utility.yul\":5065:5066   */\n      dup4\n        /* \"#utility.yul\":5047:5067   */\n      tag_139\n      jump\t// in\n    tag_232:\n        /* \"#utility.yul\":5042:5067   */\n      swap3\n      pop\n        /* \"#utility.yul\":5090:5091   */\n      dup3\n        /* \"#utility.yul\":5087:5088   */\n      dup3\n        /* \"#utility.yul\":5083:5092   */\n      add\n        /* \"#utility.yul\":5076:5092   */\n      swap1\n      pop\n        /* \"#utility.yul\":5111:5114   */\n      dup1\n        /* \"#utility.yul\":5108:5109   */\n      dup3\n        /* \"#utility.yul\":5105:5115   */\n      gt\n        /* \"#utility.yul\":5102:5138   */\n      iszero\n      tag_233\n      jumpi\n        /* \"#utility.yul\":5118:5136   */\n      tag_234\n      tag_150\n      jump\t// in\n    tag_234:\n        /* \"#utility.yul\":5102:5138   */\n    tag_233:\n        /* \"#utility.yul\":4954:5145   */\n      swap3\n      swap2\n      pop\n      pop\n      jump\t// out\n        /* \"#utility.yul\":5151:5321   */\n    tag_151:\n        /* \"#utility.yul\":5291:5313   */\n      0x77696e646f77206973206e6f7420636c6f736564000000000000000000000000\n        /* \"#utility.yul\":5287:5288   */\n      0x00\n        /* \"#utility.yul\":5279:5285   */\n      dup3\n        /* \"#utility.yul\":5275:5289   */\n      add\n        /* \"#utility.yul\":5268:5314   */\n      mstore\n        /* \"#utility.yul\":5151:5321   */\n      pop\n      jump\t// out\n        /* \"#utility.yul\":5327:5693   */\n    tag_152:\n        /* \"#utility.yul\":5469:5472   */\n      0x00\n        /* \"#utility.yul\":5490:5557   */\n      tag_237\n        /* \"#utility.yul\":5554:5556   */\n      0x14\n        /* \"#utility.yul\":5549:5552   */\n      dup4\n        /* \"#utility.yul\":5490:5557   */\n      tag_147\n      jump\t// in\n    tag_237:\n        /* \"#utility.yul\":5483:5557   */\n      swap2\n      pop\n        /* \"#utility.yul\":5566:5659   */\n      tag_238\n        /* \"#utility.yul\":5655:5658   */\n      dup3\n        /* \"#utility.yul\":5566:5659   */\n      tag_151\n      jump\t// in\n    tag_238:\n        /* \"#utility.yul\":5684:5686   */\n      0x20\n        /* \"#utility.yul\":5679:5682   */\n      dup3\n        /* \"#utility.yul\":5675:5687   */\n      add\n        /* \"#utility.yul\":5668:5687   */\n      swap1\n      pop\n        /* \"#utility.yul\":5327:5693   */\n      swap2\n      swap1\n      pop\n      jump\t// out\n        /* \"#utility.yul\":5699:6118   */\n    tag_66:\n        /* \"#utility.yul\":5865:5869   */\n      0x00\n        /* \"#utility.yul\":5903:5905   */\n      0x20\n        /* \"#utility.yul\":5892:5901   */\n      dup3\n        /* \"#utility.yul\":5888:5906   */\n      add\n        /* \"#utility.yul\":5880:5906   */\n      swap1\n      pop\n        /* \"#utility.yul\":5952:5961   */\n      dup2\n        /* \"#utility.yul\":5946:5950   */\n      dup2\n        /* \"#utility.yul\":5942:5962   */\n      sub\n        /* \"#utility.yul\":5938:5939   */\n      0x00\n        /* \"#utility.yul\":5927:5936   */\n      dup4\n        /* \"#utility.yul\":5923:5940   */\n      add\n        /* \"#utility.yul\":5916:5963   */\n      mstore\n        /* \"#utility.yul\":5980:6111   */\n      tag_240\n        /* \"#utility.yul\":6106:6110   */\n      dup2\n        /* \"#utility.yul\":5980:6111   */\n      tag_152\n      jump\t// in\n    tag_240:\n        /* \"#utility.yul\":5972:6111   */\n      swap1\n      pop\n        /* \"#utility.yul\":5699:6118   */\n      swap2\n      swap1\n      pop\n      jump\t// out\n        /* \"#utility.yul\":6124:6291   */\n    tag_153:\n        /* \"#utility.yul\":6264:6283   */\n      0x5441524745542069732072656163686564000000000000000000000000000000\n        /* \"#utility.yul\":6260:6261   */\n      0x00\n        /* \"#utility.yul\":6252:6258   */\n      dup3\n        /* \"#utility.yul\":6248:6262   */\n      add\n        /* \"#utility.yul\":6241:6284   */\n      mstore\n        /* \"#utility.yul\":6124:6291   */\n      pop\n      jump\t// out\n        /* \"#utility.yul\":6297:6663   */\n    tag_154:\n        /* \"#utility.yul\":6439:6442   */\n      0x00\n        /* \"#utility.yul\":6460:6527   */\n      tag_243\n        /* \"#utility.yul\":6524:6526   */\n      0x11\n        /* \"#utility.yul\":6519:6522   */\n      dup4\n        /* \"#utility.yul\":6460:6527   */\n      tag_147\n      jump\t// in\n    tag_243:\n        /* \"#utility.yul\":6453:6527   */\n      swap2\n      pop\n        /* \"#utility.yul\":6536:6629   */\n      tag_244\n        /* \"#utility.yul\":6625:6628   */\n      dup3\n        /* \"#utility.yul\":6536:6629   */\n      tag_153\n      jump\t// in\n    tag_244:\n        /* \"#utility.yul\":6654:6656   */\n      0x20\n        /* \"#utility.yul\":6649:6652   */\n      dup3\n        /* \"#utility.yul\":6645:6657   */\n      add\n        /* \"#utility.yul\":6638:6657   */\n      swap1\n      pop\n        /* \"#utility.yul\":6297:6663   */\n      swap2\n      swap1\n      pop\n      jump\t// out\n        /* \"#utility.yul\":6669:7088   */\n    tag_72:\n        /* \"#utility.yul\":6835:6839   */\n      0x00\n        /* \"#utility.yul\":6873:6875   */\n      0x20\n        /* \"#utility.yul\":6862:6871   */\n      dup3\n        /* \"#utility.yul\":6858:6876   */\n      add\n        /* \"#utility.yul\":6850:6876   */\n      swap1\n      pop\n        /* \"#utility.yul\":6922:6931   */\n      dup2\n        /* \"#utility.yul\":6916:6920   */\n      dup2\n        /* \"#utility.yul\":6912:6932   */\n      sub\n        /* \"#utility.yul\":6908:6909   */\n      0x00\n        /* \"#utility.yul\":6897:6906   */\n      dup4\n        /* \"#utility.yul\":6893:6910   */\n      add\n        /* \"#utility.yul\":6886:6933   */\n      mstore\n        /* \"#utility.yul\":6950:7081   */\n      tag_246\n        /* \"#utility.yul\":7076:7080   */\n      dup2\n        /* \"#utility.yul\":6950:7081   */\n      tag_154\n      jump\t// in\n    tag_246:\n        /* \"#utility.yul\":6942:7081   */\n      swap1\n      pop\n        /* \"#utility.yul\":6669:7088   */\n      swap2\n      swap1\n      pop\n      jump\t// out\n        /* \"#utility.yul\":7094:7268   */\n    tag_155:\n        /* \"#utility.yul\":7234:7260   */\n      0x7468657265206973206e6f2066756e6420666f7220796f750000000000000000\n        /* \"#utility.yul\":7230:7231   */\n      0x00\n        /* \"#utility.yul\":7222:7228   */\n      dup3\n        /* \"#utility.yul\":7218:7232   */\n      add\n        /* \"#utility.yul\":7211:7261   */\n      mstore\n        /* \"#utility.yul\":7094:7268   */\n      pop\n      jump\t// out\n        /* \"#utility.yul\":7274:7640   */\n    tag_156:\n        /* \"#utility.yul\":7416:7419   */\n      0x00\n        /* \"#utility.yul\":7437:7504   */\n      tag_249\n        /* \"#utility.yul\":7501:7503   */\n      0x18\n        /* \"#utility.yul\":7496:7499   */\n      dup4\n        /* \"#utility.yul\":7437:7504   */\n      tag_147\n      jump\t// in\n    tag_249:\n        /* \"#utility.yul\":7430:7504   */\n      swap2\n      pop\n        /* \"#utility.yul\":7513:7606   */\n      tag_250\n        /* \"#utility.yul\":7602:7605   */\n      dup3\n        /* \"#utility.yul\":7513:7606   */\n      tag_155\n      jump\t// in\n    tag_250:\n        /* \"#utility.yul\":7631:7633   */\n      0x20\n        /* \"#utility.yul\":7626:7629   */\n      dup3\n        /* \"#utility.yul\":7622:7634   */\n      add\n        /* \"#utility.yul\":7615:7634   */\n      swap1\n      pop\n        /* \"#utility.yul\":7274:7640   */\n      swap2\n      swap1\n      pop\n      jump\t// out\n        /* \"#utility.yul\":7646:8065   */\n    tag_75:\n        /* \"#utility.yul\":7812:7816   */\n      0x00\n        /* \"#utility.yul\":7850:7852   */\n      0x20\n        /* \"#utility.yul\":7839:7848   */\n      dup3\n        /* \"#utility.yul\":7835:7853   */\n      add\n        /* \"#utility.yul\":7827:7853   */\n      swap1\n      pop\n        /* \"#utility.yul\":7899:7908   */\n      dup2\n        /* \"#utility.yul\":7893:7897   */\n      dup2\n        /* \"#utility.yul\":7889:7909   */\n      sub\n        /* \"#utility.yul\":7885:7886   */\n      0x00\n        /* \"#utility.yul\":7874:7883   */\n      dup4\n        /* \"#utility.yul\":7870:7887   */\n      add\n        /* \"#utility.yul\":7863:7910   */\n      mstore\n        /* \"#utility.yul\":7927:8058   */\n      tag_252\n        /* \"#utility.yul\":8053:8057   */\n      dup2\n        /* \"#utility.yul\":7927:8058   */\n      tag_156\n      jump\t// in\n    tag_252:\n        /* \"#utility.yul\":7919:8058   */\n      swap1\n      pop\n        /* \"#utility.yul\":7646:8065   */\n      swap2\n      swap1\n      pop\n      jump\t// out\n        /* \"#utility.yul\":8071:8218   */\n    tag_157:\n        /* \"#utility.yul\":8172:8183   */\n      0x00\n        /* \"#utility.yul\":8209:8212   */\n      dup2\n        /* \"#utility.yul\":8194:8212   */\n      swap1\n      pop\n        /* \"#utility.yul\":8071:8218   */\n      swap3\n      swap2\n      pop\n      pop\n      jump\t// out\n        /* \"#utility.yul\":8224:8338   */\n    tag_158:\n      pop\n      jump\t// out\n        /* \"#utility.yul\":8344:8742   */\n    tag_159:\n        /* \"#utility.yul\":8503:8506   */\n      0x00\n        /* \"#utility.yul\":8524:8607   */\n      tag_256\n        /* \"#utility.yul\":8605:8606   */\n      0x00\n        /* \"#utility.yul\":8600:8603   */\n      dup4\n        /* \"#utility.yul\":8524:8607   */\n      tag_157\n      jump\t// in\n    tag_256:\n        /* \"#utility.yul\":8517:8607   */\n      swap2\n      pop\n        /* \"#utility.yul\":8616:8709   */\n      tag_257\n        /* \"#utility.yul\":8705:8708   */\n      dup3\n        /* \"#utility.yul\":8616:8709   */\n      tag_158\n      jump\t// in\n    tag_257:\n        /* \"#utility.yul\":8734:8735   */\n      0x00\n        /* \"#utility.yul\":8729:8732   */\n      dup3\n        /* \"#utility.yul\":8725:8736   */\n      add\n        /* \"#utility.yul\":8718:8736   */\n      swap1\n      pop\n        /* \"#utility.yul\":8344:8742   */\n      swap2\n      swap1\n      pop\n      jump\t// out\n        /* \"#utility.yul\":8748:9127   */\n    tag_77:\n        /* \"#utility.yul\":8932:8935   */\n      0x00\n        /* \"#utility.yul\":8954:9101   */\n      tag_259\n        /* \"#utility.yul\":9097:9100   */\n      dup3\n        /* \"#utility.yul\":8954:9101   */\n      tag_159\n      jump\t// in\n    tag_259:\n        /* \"#utility.yul\":8947:9101   */\n      swap2\n      pop\n        /* \"#utility.yul\":9118:9121   */\n      dup2\n        /* \"#utility.yul\":9111:9121   */\n      swap1\n      pop\n        /* \"#utility.yul\":8748:9127   */\n      swap2\n      swap1\n      pop\n      jump\t// out\n        /* \"#utility.yul\":9133:9301   */\n    tag_160:\n        /* \"#utility.yul\":9273:9293   */\n      0x7472616e73666572207478206661696c65640000000000000000000000000000\n        /* \"#utility.yul\":9269:9270   */\n      0x00\n        /* \"#utility.yul\":9261:9267   */\n      dup3\n        /* \"#utility.yul\":9257:9271   */\n      add\n        /* \"#utility.yul\":9250:9294   */\n      mstore\n        /* \"#utility.yul\":9133:9301   */\n      pop\n      jump\t// out\n        /* \"#utility.yul\":9307:9673   */\n    tag_161:\n        /* \"#utility.yul\":9449:9452   */\n      0x00\n        /* \"#utility.yul\":9470:9537   */\n      tag_262\n        /* \"#utility.yul\":9534:9536   */\n      0x12\n        /* \"#utility.yul\":9529:9532   */\n      dup4\n        /* \"#utility.yul\":9470:9537   */\n      tag_147\n      jump\t// in\n    tag_262:\n        /* \"#utility.yul\":9463:9537   */\n      swap2\n      pop\n        /* \"#utility.yul\":9546:9639   */\n      tag_263\n        /* \"#utility.yul\":9635:9638   */\n      dup3\n        /* \"#utility.yul\":9546:9639   */\n      tag_160\n      jump\t// in\n    tag_263:\n        /* \"#utility.yul\":9664:9666   */\n      0x20\n        /* \"#utility.yul\":9659:9662   */\n      dup3\n        /* \"#utility.yul\":9655:9667   */\n      add\n        /* \"#utility.yul\":9648:9667   */\n      swap1\n      pop\n        /* \"#utility.yul\":9307:9673   */\n      swap2\n      swap1\n      pop\n      jump\t// out\n        /* \"#utility.yul\":9679:10098   */\n    tag_83:\n        /* \"#utility.yul\":9845:9849   */\n      0x00\n        /* \"#utility.yul\":9883:9885   */\n      0x20\n        /* \"#utility.yul\":9872:9881   */\n      dup3\n        /* \"#utility.yul\":9868:9886   */\n      add\n        /* \"#utility.yul\":9860:9886   */\n      swap1\n      pop\n        /* \"#utility.yul\":9932:9941   */\n      dup2\n        /* \"#utility.yul\":9926:9930   */\n      dup2\n        /* \"#utility.yul\":9922:9942   */\n      sub\n        /* \"#utility.yul\":9918:9919   */\n      0x00\n        /* \"#utility.yul\":9907:9916   */\n      dup4\n        /* \"#utility.yul\":9903:9920   */\n      add\n        /* \"#utility.yul\":9896:9943   */\n      mstore\n        /* \"#utility.yul\":9960:10091   */\n      tag_265\n        /* \"#utility.yul\":10086:10090   */\n      dup2\n        /* \"#utility.yul\":9960:10091   */\n      tag_161\n      jump\t// in\n    tag_265:\n        /* \"#utility.yul\":9952:10091   */\n      swap1\n      pop\n        /* \"#utility.yul\":9679:10098   */\n      swap2\n      swap1\n      pop\n      jump\t// out\n        /* \"#utility.yul\":10104:10269   */\n    tag_162:\n        /* \"#utility.yul\":10244:10261   */\n      0x4e6f7420656e6f7567682066756e640000000000000000000000000000000000\n        /* \"#utility.yul\":10240:10241   */\n      0x00\n        /* \"#utility.yul\":10232:10238   */\n      dup3\n        /* \"#utility.yul\":10228:10242   */\n      add\n        /* \"#utility.yul\":10221:10262   */\n      mstore\n        /* \"#utility.yul\":10104:10269   */\n      pop\n      jump\t// out\n        /* \"#utility.yul\":10275:10641   */\n    tag_163:\n        /* \"#utility.yul\":10417:10420   */\n      0x00\n        /* \"#utility.yul\":10438:10505   */\n      tag_268\n        /* \"#utility.yul\":10502:10504   */\n      0x0f\n        /* \"#utility.yul\":10497:10500   */\n      dup4\n        /* \"#utility.yul\":10438:10505   */\n      tag_147\n      jump\t// in\n    tag_268:\n        /* \"#utility.yul\":10431:10505   */\n      swap2\n      pop\n        /* \"#utility.yul\":10514:10607   */\n      tag_269\n        /* \"#utility.yul\":10603:10606   */\n      dup3\n        /* \"#utility.yul\":10514:10607   */\n      tag_162\n      jump\t// in\n    tag_269:\n        /* \"#utility.yul\":10632:10634   */\n      0x20\n        /* \"#utility.yul\":10627:10630   */\n      dup3\n        /* \"#utility.yul\":10623:10635   */\n      add\n        /* \"#utility.yul\":10616:10635   */\n      swap1\n      pop\n        /* \"#utility.yul\":10275:10641   */\n      swap2\n      swap1\n      pop\n      jump\t// out\n        /* \"#utility.yul\":10647:11066   */\n    tag_95:\n        /* \"#utility.yul\":10813:10817   */\n      0x00\n        /* \"#utility.yul\":10851:10853   */\n      0x20\n        /* \"#utility.yul\":10840:10849   */\n      dup3\n        /* \"#utility.yul\":10836:10854   */\n      add\n        /* \"#utility.yul\":10828:10854   */\n      swap1\n      pop\n        /* \"#utility.yul\":10900:10909   */\n      dup2\n        /* \"#utility.yul\":10894:10898   */\n      dup2\n        /* \"#utility.yul\":10890:10910   */\n      sub\n        /* \"#utility.yul\":10886:10887   */\n      0x00\n        /* \"#utility.yul\":10875:10884   */\n      dup4\n        /* \"#utility.yul\":10871:10888   */\n      add\n        /* \"#utility.yul\":10864:10911   */\n      mstore\n        /* \"#utility.yul\":10928:11059   */\n      tag_271\n        /* \"#utility.yul\":11054:11058   */\n      dup2\n        /* \"#utility.yul\":10928:11059   */\n      tag_163\n      jump\t// in\n    tag_271:\n        /* \"#utility.yul\":10920:11059   */\n      swap1\n      pop\n        /* \"#utility.yul\":10647:11066   */\n      swap2\n      swap1\n      pop\n      jump\t// out\n        /* \"#utility.yul\":11072:11235   */\n    tag_164:\n        /* \"#utility.yul\":11212:11227   */\n      0x53656e64206d6f72652045544800000000000000000000000000000000000000\n        /* \"#utility.yul\":11208:11209   */\n      0x00\n        /* \"#utility.yul\":11200:11206   */\n      dup3\n        /* \"#utility.yul\":11196:11210   */\n      add\n        /* \"#utility.yul\":11189:11228   */\n      mstore\n        /* \"#utility.yul\":11072:11235   */\n      pop\n      jump\t// out\n        /* \"#utility.yul\":11241:11607   */\n    tag_165:\n        /* \"#utility.yul\":11383:11386   */\n      0x00\n        /* \"#utility.yul\":11404:11471   */\n      tag_274\n        /* \"#utility.yul\":11468:11470   */\n      0x0d\n        /* \"#utility.yul\":11463:11466   */\n      dup4\n        /* \"#utility.yul\":11404:11471   */\n      tag_147\n      jump\t// in\n    tag_274:\n        /* \"#utility.yul\":11397:11471   */\n      swap2\n      pop\n        /* \"#utility.yul\":11480:11573   */\n      tag_275\n        /* \"#utility.yul\":11569:11572   */\n      dup3\n        /* \"#utility.yul\":11480:11573   */\n      tag_164\n      jump\t// in\n    tag_275:\n        /* \"#utility.yul\":11598:11600   */\n      0x20\n        /* \"#utility.yul\":11593:11596   */\n      dup3\n        /* \"#utility.yul\":11589:11601   */\n      add\n        /* \"#utility.yul\":11582:11601   */\n      swap1\n      pop\n        /* \"#utility.yul\":11241:11607   */\n      swap2\n      swap1\n      pop\n      jump\t// out\n        /* \"#utility.yul\":11613:12032   */\n    tag_106:\n        /* \"#utility.yul\":11779:11783   */\n      0x00\n        /* \"#utility.yul\":11817:11819   */\n      0x20\n        /* \"#utility.yul\":11806:11815   */\n      dup3\n        /* \"#utility.yul\":11802:11820   */\n      add\n        /* \"#utility.yul\":11794:11820   */\n      swap1\n      pop\n        /* \"#utility.yul\":11866:11875   */\n      dup2\n        /* \"#utility.yul\":11860:11864   */\n      dup2\n        /* \"#utility.yul\":11856:11876   */\n      sub\n        /* \"#utility.yul\":11852:11853   */\n      0x00\n        /* \"#utility.yul\":11841:11850   */\n      dup4\n        /* \"#utility.yul\":11837:11854   */\n      add\n        /* \"#utility.yul\":11830:11877   */\n      mstore\n        /* \"#utility.yul\":11894:12025   */\n      tag_277\n        /* \"#utility.yul\":12020:12024   */\n      dup2\n        /* \"#utility.yul\":11894:12025   */\n      tag_165\n      jump\t// in\n    tag_277:\n        /* \"#utility.yul\":11886:12025   */\n      swap1\n      pop\n        /* \"#utility.yul\":11613:12032   */\n      swap2\n      swap1\n      pop\n      jump\t// out\n        /* \"#utility.yul\":12038:12204   */\n    tag_166:\n        /* \"#utility.yul\":12178:12196   */\n      0x77696e646f7720697320636c6f73656400000000000000000000000000000000\n        /* \"#utility.yul\":12174:12175   */\n      0x00\n        /* \"#utility.yul\":12166:12172   */\n      dup3\n        /* \"#utility.yul\":12162:12176   */\n      add\n        /* \"#utility.yul\":12155:12197   */\n      mstore\n        /* \"#utility.yul\":12038:12204   */\n      pop\n      jump\t// out\n        /* \"#utility.yul\":12210:12576   */\n    tag_167:\n        /* \"#utility.yul\":12352:12355   */\n      0x00\n        /* \"#utility.yul\":12373:12440   */\n      tag_280\n        /* \"#utility.yul\":12437:12439   */\n      0x10\n        /* \"#utility.yul\":12432:12435   */\n      dup4\n        /* \"#utility.yul\":12373:12440   */\n      tag_147\n      jump\t// in\n    tag_280:\n        /* \"#utility.yul\":12366:12440   */\n      swap2\n      pop\n        /* \"#utility.yul\":12449:12542   */\n      tag_281\n        /* \"#utility.yul\":12538:12541   */\n      dup3\n        /* \"#utility.yul\":12449:12542   */\n      tag_166\n      jump\t// in\n    tag_281:\n        /* \"#utility.yul\":12567:12569   */\n      0x20\n        /* \"#utility.yul\":12562:12565   */\n      dup3\n        /* \"#utility.yul\":12558:12570   */\n      add\n        /* \"#utility.yul\":12551:12570   */\n      swap1\n      pop\n        /* \"#utility.yul\":12210:12576   */\n      swap2\n      swap1\n      pop\n      jump\t// out\n        /* \"#utility.yul\":12582:13001   */\n    tag_110:\n        /* \"#utility.yul\":12748:12752   */\n      0x00\n        /* \"#utility.yul\":12786:12788   */\n      0x20\n        /* \"#utility.yul\":12775:12784   */\n      dup3\n        /* \"#utility.yul\":12771:12789   */\n      add\n        /* \"#utility.yul\":12763:12789   */\n      swap1\n      pop\n        /* \"#utility.yul\":12835:12844   */\n      dup2\n        /* \"#utility.yul\":12829:12833   */\n      dup2\n        /* \"#utility.yul\":12825:12845   */\n      sub\n        /* \"#utility.yul\":12821:12822   */\n      0x00\n        /* \"#utility.yul\":12810:12819   */\n      dup4\n        /* \"#utility.yul\":12806:12823   */\n      add\n        /* \"#utility.yul\":12799:12846   */\n      mstore\n        /* \"#utility.yul\":12863:12994   */\n      tag_283\n        /* \"#utility.yul\":12989:12993   */\n      dup2\n        /* \"#utility.yul\":12863:12994   */\n      tag_167\n      jump\t// in\n    tag_283:\n        /* \"#utility.yul\":12855:12994   */\n      swap1\n      pop\n        /* \"#utility.yul\":12582:13001   */\n      swap2\n      swap1\n      pop\n      jump\t// out\n        /* \"#utility.yul\":13007:13112   */\n    tag_168:\n        /* \"#utility.yul\":13043:13050   */\n      0x00\n        /* \"#utility.yul\":13083:13105   */\n      0xffffffffffffffffffff\n        /* \"#utility.yul\":13076:13081   */\n      dup3\n        /* \"#utility.yul\":13072:13106   */\n      and\n        /* \"#utility.yul\":13061:13106   */\n      swap1\n      pop\n        /* \"#utility.yul\":13007:13112   */\n      swap2\n      swap1\n      pop\n      jump\t// out\n        /* \"#utility.yul\":13118:13238   */\n    tag_169:\n        /* \"#utility.yul\":13190:13213   */\n      tag_286\n        /* \"#utility.yul\":13207:13212   */\n      dup2\n        /* \"#utility.yul\":13190:13213   */\n      tag_168\n      jump\t// in\n    tag_286:\n        /* \"#utility.yul\":13183:13188   */\n      dup2\n        /* \"#utility.yul\":13180:13214   */\n      eq\n        /* \"#utility.yul\":13170:13232   */\n      tag_287\n      jumpi\n        /* \"#utility.yul\":13228:13229   */\n      0x00\n        /* \"#utility.yul\":13225:13226   */\n      dup1\n        /* \"#utility.yul\":13218:13230   */\n      revert\n        /* \"#utility.yul\":13170:13232   */\n    tag_287:\n        /* \"#utility.yul\":13118:13238   */\n      pop\n      jump\t// out\n        /* \"#utility.yul\":13244:13385   */\n    tag_170:\n        /* \"#utility.yul\":13300:13305   */\n      0x00\n        /* \"#utility.yul\":13331:13337   */\n      dup2\n        /* \"#utility.yul\":13325:13338   */\n      mload\n        /* \"#utility.yul\":13316:13338   */\n      swap1\n      pop\n        /* \"#utility.yul\":13347:13379   */\n      tag_289\n        /* \"#utility.yul\":13373:13378   */\n      dup2\n        /* \"#utility.yul\":13347:13379   */\n      tag_169\n      jump\t// in\n    tag_289:\n        /* \"#utility.yul\":13244:13385   */\n      swap3\n      swap2\n      pop\n      pop\n      jump\t// out\n        /* \"#utility.yul\":13391:13511   */\n    tag_171:\n        /* \"#utility.yul\":13463:13486   */\n      tag_291\n        /* \"#utility.yul\":13480:13485   */\n      dup2\n        /* \"#utility.yul\":13463:13486   */\n      tag_141\n      jump\t// in\n    tag_291:\n        /* \"#utility.yul\":13456:13461   */\n      dup2\n        /* \"#utility.yul\":13453:13487   */\n      eq\n        /* \"#utility.yul\":13443:13505   */\n      tag_292\n      jumpi\n        /* \"#utility.yul\":13501:13502   */\n      0x00\n        /* \"#utility.yul\":13498:13499   */\n      dup1\n        /* \"#utility.yul\":13491:13503   */\n      revert\n        /* \"#utility.yul\":13443:13505   */\n    tag_292:\n        /* \"#utility.yul\":13391:13511   */\n      pop\n      jump\t// out\n        /* \"#utility.yul\":13517:13658   */\n    tag_172:\n        /* \"#utility.yul\":13573:13578   */\n      0x00\n        /* \"#utility.yul\":13604:13610   */\n      dup2\n        /* \"#utility.yul\":13598:13611   */\n      mload\n        /* \"#utility.yul\":13589:13611   */\n      swap1\n      pop\n        /* \"#utility.yul\":13620:13652   */\n      tag_294\n        /* \"#utility.yul\":13646:13651   */\n      dup2\n        /* \"#utility.yul\":13620:13652   */\n      tag_171\n      jump\t// in\n    tag_294:\n        /* \"#utility.yul\":13517:13658   */\n      swap3\n      swap2\n      pop\n      pop\n      jump\t// out\n        /* \"#utility.yul\":13664:13807   */\n    tag_173:\n        /* \"#utility.yul\":13721:13726   */\n      0x00\n        /* \"#utility.yul\":13752:13758   */\n      dup2\n        /* \"#utility.yul\":13746:13759   */\n      mload\n        /* \"#utility.yul\":13737:13759   */\n      swap1\n      pop\n        /* \"#utility.yul\":13768:13801   */\n      tag_296\n        /* \"#utility.yul\":13795:13800   */\n      dup2\n        /* \"#utility.yul\":13768:13801   */\n      tag_143\n      jump\t// in\n    tag_296:\n        /* \"#utility.yul\":13664:13807   */\n      swap3\n      swap2\n      pop\n      pop\n      jump\t// out\n        /* \"#utility.yul\":13813:14784   */\n    tag_116:\n        /* \"#utility.yul\":13916:13922   */\n      0x00\n        /* \"#utility.yul\":13924:13930   */\n      dup1\n        /* \"#utility.yul\":13932:13938   */\n      0x00\n        /* \"#utility.yul\":13940:13946   */\n      dup1\n        /* \"#utility.yul\":13948:13954   */\n      0x00\n        /* \"#utility.yul\":13997:14000   */\n      0xa0\n        /* \"#utility.yul\":13985:13994   */\n      dup7\n        /* \"#utility.yul\":13976:13983   */\n      dup9\n        /* \"#utility.yul\":13972:13995   */\n      sub\n        /* \"#utility.yul\":13968:14001   */\n      slt\n        /* \"#utility.yul\":13965:14085   */\n      iszero\n      tag_298\n      jumpi\n        /* \"#utility.yul\":14004:14083   */\n      tag_299\n      tag_132\n      jump\t// in\n    tag_299:\n        /* \"#utility.yul\":13965:14085   */\n    tag_298:\n        /* \"#utility.yul\":14124:14125   */\n      0x00\n        /* \"#utility.yul\":14149:14212   */\n      tag_300\n        /* \"#utility.yul\":14204:14211   */\n      dup9\n        /* \"#utility.yul\":14195:14201   */\n      dup3\n        /* \"#utility.yul\":14184:14193   */\n      dup10\n        /* \"#utility.yul\":14180:14202   */\n      add\n        /* \"#utility.yul\":14149:14212   */\n      tag_170\n      jump\t// in\n    tag_300:\n        /* \"#utility.yul\":14139:14212   */\n      swap6\n      pop\n        /* \"#utility.yul\":14095:14222   */\n      pop\n        /* \"#utility.yul\":14261:14263   */\n      0x20\n        /* \"#utility.yul\":14287:14350   */\n      tag_301\n        /* \"#utility.yul\":14342:14349   */\n      dup9\n        /* \"#utility.yul\":14333:14339   */\n      dup3\n        /* \"#utility.yul\":14322:14331   */\n      dup10\n        /* \"#utility.yul\":14318:14340   */\n      add\n        /* \"#utility.yul\":14287:14350   */\n      tag_172\n      jump\t// in\n    tag_301:\n        /* \"#utility.yul\":14277:14350   */\n      swap5\n      pop\n        /* \"#utility.yul\":14232:14360   */\n      pop\n        /* \"#utility.yul\":14399:14401   */\n      0x40\n        /* \"#utility.yul\":14425:14489   */\n      tag_302\n        /* \"#utility.yul\":14481:14488   */\n      dup9\n        /* \"#utility.yul\":14472:14478   */\n      dup3\n        /* \"#utility.yul\":14461:14470   */\n      dup10\n        /* \"#utility.yul\":14457:14479   */\n      add\n        /* \"#utility.yul\":14425:14489   */\n      tag_173\n      jump\t// in\n    tag_302:\n        /* \"#utility.yul\":14415:14489   */\n      swap4\n      pop\n        /* \"#utility.yul\":14370:14499   */\n      pop\n        /* \"#utility.yul\":14538:14540   */\n      0x60\n        /* \"#utility.yul\":14564:14628   */\n      tag_303\n        /* \"#utility.yul\":14620:14627   */\n      dup9\n        /* \"#utility.yul\":14611:14617   */\n      dup3\n        /* \"#utility.yul\":14600:14609   */\n      dup10\n        /* \"#utility.yul\":14596:14618   */\n      add\n        /* \"#utility.yul\":14564:14628   */\n      tag_173\n      jump\t// in\n    tag_303:\n        /* \"#utility.yul\":14554:14628   */\n      swap3\n      pop\n        /* \"#utility.yul\":14509:14638   */\n      pop\n        /* \"#utility.yul\":14677:14680   */\n      0x80\n        /* \"#utility.yul\":14704:14767   */\n      tag_304\n        /* \"#utility.yul\":14759:14766   */\n      dup9\n        /* \"#utility.yul\":14750:14756   */\n      dup3\n        /* \"#utility.yul\":14739:14748   */\n      dup10\n        /* \"#utility.yul\":14735:14757   */\n      add\n        /* \"#utility.yul\":14704:14767   */\n      tag_170\n      jump\t// in\n    tag_304:\n        /* \"#utility.yul\":14694:14767   */\n      swap2\n      pop\n        /* \"#utility.yul\":14648:14777   */\n      pop\n        /* \"#utility.yul\":13813:14784   */\n      swap3\n      swap6\n      pop\n      swap3\n      swap6\n      swap1\n      swap4\n      pop\n      jump\t// out\n        /* \"#utility.yul\":14790:15029   */\n    tag_174:\n        /* \"#utility.yul\":14930:14964   */\n      0x596f7520646f206e6f74206861766520746865207065726d697373696f6e2074\n        /* \"#utility.yul\":14926:14927   */\n      0x00\n        /* \"#utility.yul\":14918:14924   */\n      dup3\n        /* \"#utility.yul\":14914:14928   */\n      add\n        /* \"#utility.yul\":14907:14965   */\n      mstore\n        /* \"#utility.yul\":14999:15021   */\n      0x6f2063616c6c20746869732066756e6374696f6e000000000000000000000000\n        /* \"#utility.yul\":14994:14996   */\n      0x20\n        /* \"#utility.yul\":14986:14992   */\n      dup3\n        /* \"#utility.yul\":14982:14997   */\n      add\n        /* \"#utility.yul\":14975:15022   */\n      mstore\n        /* \"#utility.yul\":14790:15029   */\n      pop\n      jump\t// out\n        /* \"#utility.yul\":15035:15401   */\n    tag_175:\n        /* \"#utility.yul\":15177:15180   */\n      0x00\n        /* \"#utility.yul\":15198:15265   */\n      tag_307\n        /* \"#utility.yul\":15262:15264   */\n      0x34\n        /* \"#utility.yul\":15257:15260   */\n      dup4\n        /* \"#utility.yul\":15198:15265   */\n      tag_147\n      jump\t// in\n    tag_307:\n        /* \"#utility.yul\":15191:15265   */\n      swap2\n      pop\n        /* \"#utility.yul\":15274:15367   */\n      tag_308\n        /* \"#utility.yul\":15363:15366   */\n      dup3\n        /* \"#utility.yul\":15274:15367   */\n      tag_174\n      jump\t// in\n    tag_308:\n        /* \"#utility.yul\":15392:15394   */\n      0x40\n        /* \"#utility.yul\":15387:15390   */\n      dup3\n        /* \"#utility.yul\":15383:15395   */\n      add\n        /* \"#utility.yul\":15376:15395   */\n      swap1\n      pop\n        /* \"#utility.yul\":15035:15401   */\n      swap2\n      swap1\n      pop\n      jump\t// out\n        /* \"#utility.yul\":15407:15826   */\n    tag_120:\n        /* \"#utility.yul\":15573:15577   */\n      0x00\n        /* \"#utility.yul\":15611:15613   */\n      0x20\n        /* \"#utility.yul\":15600:15609   */\n      dup3\n        /* \"#utility.yul\":15596:15614   */\n      add\n        /* \"#utility.yul\":15588:15614   */\n      swap1\n      pop\n        /* \"#utility.yul\":15660:15669   */\n      dup2\n        /* \"#utility.yul\":15654:15658   */\n      dup2\n        /* \"#utility.yul\":15650:15670   */\n      sub\n        /* \"#utility.yul\":15646:15647   */\n      0x00\n        /* \"#utility.yul\":15635:15644   */\n      dup4\n        /* \"#utility.yul\":15631:15648   */\n      add\n        /* \"#utility.yul\":15624:15671   */\n      mstore\n        /* \"#utility.yul\":15688:15819   */\n      tag_310\n        /* \"#utility.yul\":15814:15818   */\n      dup2\n        /* \"#utility.yul\":15688:15819   */\n      tag_175\n      jump\t// in\n    tag_310:\n        /* \"#utility.yul\":15680:15819   */\n      swap1\n      pop\n        /* \"#utility.yul\":15407:15826   */\n      swap2\n      swap1\n      pop\n      jump\t// out\n        /* \"#utility.yul\":15832:16242   */\n    tag_128:\n        /* \"#utility.yul\":15872:15879   */\n      0x00\n        /* \"#utility.yul\":15895:15915   */\n      tag_312\n        /* \"#utility.yul\":15913:15914   */\n      dup3\n        /* \"#utility.yul\":15895:15915   */\n      tag_139\n      jump\t// in\n    tag_312:\n        /* \"#utility.yul\":15890:15915   */\n      swap2\n      pop\n        /* \"#utility.yul\":15929:15949   */\n      tag_313\n        /* \"#utility.yul\":15947:15948   */\n      dup4\n        /* \"#utility.yul\":15929:15949   */\n      tag_139\n      jump\t// in\n    tag_313:\n        /* \"#utility.yul\":15924:15949   */\n      swap3\n      pop\n        /* \"#utility.yul\":15984:15985   */\n      dup3\n        /* \"#utility.yul\":15981:15982   */\n      dup3\n        /* \"#utility.yul\":15977:15986   */\n      mul\n        /* \"#utility.yul\":16006:16036   */\n      tag_314\n        /* \"#utility.yul\":16024:16035   */\n      dup2\n        /* \"#utility.yul\":16006:16036   */\n      tag_139\n      jump\t// in\n    tag_314:\n        /* \"#utility.yul\":15995:16036   */\n      swap2\n      pop\n        /* \"#utility.yul\":16185:16186   */\n      dup3\n        /* \"#utility.yul\":16176:16183   */\n      dup3\n        /* \"#utility.yul\":16172:16187   */\n      div\n        /* \"#utility.yul\":16169:16170   */\n      dup5\n        /* \"#utility.yul\":16166:16188   */\n      eq\n        /* \"#utility.yul\":16146:16147   */\n      dup4\n        /* \"#utility.yul\":16139:16148   */\n      iszero\n        /* \"#utility.yul\":16119:16202   */\n      or\n        /* \"#utility.yul\":16096:16235   */\n      tag_315\n      jumpi\n        /* \"#utility.yul\":16215:16233   */\n      tag_316\n      tag_150\n      jump\t// in\n    tag_316:\n        /* \"#utility.yul\":16096:16235   */\n    tag_315:\n        /* \"#utility.yul\":15880:16242   */\n      pop\n        /* \"#utility.yul\":15832:16242   */\n      swap3\n      swap2\n      pop\n      pop\n      jump\t// out\n        /* \"#utility.yul\":16248:16428   */\n    tag_176:\n        /* \"#utility.yul\":16296:16373   */\n      0x4e487b7100000000000000000000000000000000000000000000000000000000\n        /* \"#utility.yul\":16293:16294   */\n      0x00\n        /* \"#utility.yul\":16286:16374   */\n      mstore\n        /* \"#utility.yul\":16393:16397   */\n      0x12\n        /* \"#utility.yul\":16390:16391   */\n      0x04\n        /* \"#utility.yul\":16383:16398   */\n      mstore\n        /* \"#utility.yul\":16417:16421   */\n      0x24\n        /* \"#utility.yul\":16414:16415   */\n      0x00\n        /* \"#utility.yul\":16407:16422   */\n      revert\n        /* \"#utility.yul\":16434:16619   */\n    tag_130:\n        /* \"#utility.yul\":16474:16475   */\n      0x00\n        /* \"#utility.yul\":16491:16511   */\n      tag_319\n        /* \"#utility.yul\":16509:16510   */\n      dup3\n        /* \"#utility.yul\":16491:16511   */\n      tag_139\n      jump\t// in\n    tag_319:\n        /* \"#utility.yul\":16486:16511   */\n      swap2\n      pop\n        /* \"#utility.yul\":16525:16545   */\n      tag_320\n        /* \"#utility.yul\":16543:16544   */\n      dup4\n        /* \"#utility.yul\":16525:16545   */\n      tag_139\n      jump\t// in\n    tag_320:\n        /* \"#utility.yul\":16520:16545   */\n      swap3\n      pop\n        /* \"#utility.yul\":16564:16565   */\n      dup3\n        /* \"#utility.yul\":16554:16589   */\n      tag_321\n      jumpi\n        /* \"#utility.yul\":16569:16587   */\n      tag_322\n      tag_176\n      jump\t// in\n    tag_322:\n        /* \"#utility.yul\":16554:16589   */\n    tag_321:\n        /* \"#utility.yul\":16611:16612   */\n      dup3\n        /* \"#utility.yul\":16608:16609   */\n      dup3\n        /* \"#utility.yul\":16604:16613   */\n      div\n        /* \"#utility.yul\":16599:16613   */\n      swap1\n      pop\n        /* \"#utility.yul\":16434:16619   */\n      swap3\n      swap2\n      pop\n      pop\n      jump\t// out\n\n    auxdata: 0xa26469706673582212202fb3b7a0273e9c8c169c565a24733a7a5bac84665f58e5a5fedd24e5503de2d164736f6c63430008180033\n}\n",
				"bytecode": {
					"linkReferences": {},
					"object": "60806040525f600560146101000a81548160ff0219169083151502179055503480156200002a575f80fd5b506040516200149e3803806200149e833981810160405281019062000050919062000135565b73694aa1769357215de4fac081bf1f309adc32530660015f6101000a81548173ffffffffffffffffffffffffffffffffffffffff021916908373ffffffffffffffffffffffffffffffffffffffff1602179055503360025f6101000a81548173ffffffffffffffffffffffffffffffffffffffff021916908373ffffffffffffffffffffffffffffffffffffffff16021790555042600381905550806004819055505062000165565b5f80fd5b5f819050919050565b6200011181620000fd565b81146200011c575f80fd5b50565b5f815190506200012f8162000106565b92915050565b5f602082840312156200014d576200014c620000f9565b5b5f6200015c848285016200011f565b91505092915050565b61132b80620001735f395ff3fe608060405260043610610090575f3560e01c8063b60d428811610058578063b60d42881461014e578063bea4dfb514610158578063d39cf00614610182578063da4658e0146101aa578063f2fde38b146101d457610090565b806313ffff0114610094578063590e1ae3146100bc5780638da5cb5b146100d25780638edd6eb6146100fc5780639f883a0514610112575b5f80fd5b34801561009f575f80fd5b506100ba60048036038101906100b59190610b6e565b6101fc565b005b3480156100c7575f80fd5b506100d06102ce565b005b3480156100dd575f80fd5b506100e661051b565b6040516100f39190610ba8565b60405180910390f35b348015610107575f80fd5b50610110610540565b005b34801561011d575f80fd5b5061013860048036038101906101339190610b6e565b61077e565b6040516101459190610bd9565b60405180910390f35b610156610792565b005b348015610163575f80fd5b5061016c61088b565b6040516101799190610c0a565b60405180910390f35b34801561018d575f80fd5b506101a860048036038101906101a39190610c4d565b610928565b005b3480156101b5575f80fd5b506101be6109fc565b6040516101cb9190610ca5565b60405180910390f35b3480156101df575f80fd5b506101fa60048036038101906101f59190610b6e565b610a0f565b005b60025f9054906101000a900473ffffffffffffffffffffffffffffffffffffffff1673ffffffffffffffffffffffffffffffffffffffff163373ffffffffffffffffffffffffffffffffffffffff161461028b576040517f08c379a000000000000000000000000000000000000000000000000000000000815260040161028290610d3e565b60405180910390fd5b8060055f6101000a81548173ffffffffffffffffffffffffffffffffffffffff021916908373ffffffffffffffffffffffffffffffffffffffff16021790555050565b6004546003546102de9190610d89565b421015610320576040517f08c379a000000000000000000000000000000000000000000000000000000000815260040161031790610e06565b60405180910390fd5b683635c9adc5dea0000061033347610ae1565b10610373576040517f08c379a000000000000000000000000000000000000000000000000000000000815260040161036a90610e6e565b60405180910390fd5b5f805f3373ffffffffffffffffffffffffffffffffffffffff1673ffffffffffffffffffffffffffffffffffffffff1681526020019081526020015f2054036103f1576040517f08c379a00000000000000000000000000000000000000000000000000000000081526004016103e890610ed6565b60405180910390fd5b5f3373ffffffffffffffffffffffffffffffffffffffff165f803373ffffffffffffffffffffffffffffffffffffffff1673ffffffffffffffffffffffffffffffffffffffff1681526020019081526020015f205460405161045290610f21565b5f6040518083038185875af1925050503d805f811461048c576040519150601f19603f3d011682016040523d82523d5f602084013e610491565b606091505b505080915050806104d7576040517f08c379a00000000000000000000000000000000000000000000000000000000081526004016104ce90610f7f565b60405180910390fd5b5f805f3373ffffffffffffffffffffffffffffffffffffffff1673ffffffffffffffffffffffffffffffffffffffff1681526020019081526020015f208190555050565b60025f9054906101000a900473ffffffffffffffffffffffffffffffffffffffff1681565b6004546003546105509190610d89565b421015610592576040517f08c379a000000000000000000000000000000000000000000000000000000000815260040161058990610e06565b60405180910390fd5b60025f9054906101000a900473ffffffffffffffffffffffffffffffffffffffff1673ffffffffffffffffffffffffffffffffffffffff163373ffffffffffffffffffffffffffffffffffffffff1614610621576040517f08c379a000000000000000000000000000000000000000000000000000000000815260040161061890610d3e565b60405180910390fd5b683635c9adc5dea0000061063447610ae1565b1015610675576040517f08c379a000000000000000000000000000000000000000000000000000000000815260040161066c90610fe7565b60405180910390fd5b5f3373ffffffffffffffffffffffffffffffffffffffff164760405161069a90610f21565b5f6040518083038185875af1925050503d805f81146106d4576040519150601f19603f3d011682016040523d82523d5f602084013e6106d9565b606091505b5050809150508061071f576040517f08c379a000000000000000000000000000000000000000000000000000000000815260040161071690610f7f565b60405180910390fd5b5f805f3373ffffffffffffffffffffffffffffffffffffffff1673ffffffffffffffffffffffffffffffffffffffff1681526020019081526020015f20819055506001600560146101000a81548160ff02191690831515021790555050565b5f602052805f5260405f205f915090505481565b68056bc75e2d631000006107a534610ae1565b10156107e6576040517f08c379a00000000000000000000000000000000000000000000000000000000081526004016107dd9061104f565b60405180910390fd5b6004546003546107f69190610d89565b4210610837576040517f08c379a000000000000000000000000000000000000000000000000000000000815260040161082e906110b7565b60405180910390fd5b345f803373ffffffffffffffffffffffffffffffffffffffff1673ffffffffffffffffffffffffffffffffffffffff1681526020019081526020015f205f8282546108829190610d89565b92505081905550565b5f8060015f9054906101000a900473ffffffffffffffffffffffffffffffffffffffff1673ffffffffffffffffffffffffffffffffffffffff1663feaf968c6040518163ffffffff1660e01b815260040160a060405180830381865afa1580156108f7573d5f803e3d5ffd5b505050506040513d601f19601f8201168201806040525081019061091b9190611152565b5050509150508091505090565b60055f9054906101000a900473ffffffffffffffffffffffffffffffffffffffff1673ffffffffffffffffffffffffffffffffffffffff163373ffffffffffffffffffffffffffffffffffffffff16146109b7576040517f08c379a00000000000000000000000000000000000000000000000000000000081526004016109ae90611239565b60405180910390fd5b805f808473ffffffffffffffffffffffffffffffffffffffff1673ffffffffffffffffffffffffffffffffffffffff1681526020019081526020015f20819055505050565b600560149054906101000a900460ff1681565b60025f9054906101000a900473ffffffffffffffffffffffffffffffffffffffff1673ffffffffffffffffffffffffffffffffffffffff163373ffffffffffffffffffffffffffffffffffffffff1614610a9e576040517f08c379a0000000000000000000000000000000000000000000000000000000008152600401610a9590610d3e565b60405180910390fd5b8060025f6101000a81548173ffffffffffffffffffffffffffffffffffffffff021916908373ffffffffffffffffffffffffffffffffffffffff16021790555050565b5f80610aeb61088b565b90506305f5e1008184610afe9190611257565b610b0891906112c5565b915050919050565b5f80fd5b5f73ffffffffffffffffffffffffffffffffffffffff82169050919050565b5f610b3d82610b14565b9050919050565b610b4d81610b33565b8114610b57575f80fd5b50565b5f81359050610b6881610b44565b92915050565b5f60208284031215610b8357610b82610b10565b5b5f610b9084828501610b5a565b91505092915050565b610ba281610b33565b82525050565b5f602082019050610bbb5f830184610b99565b92915050565b5f819050919050565b610bd381610bc1565b82525050565b5f602082019050610bec5f830184610bca565b92915050565b5f819050919050565b610c0481610bf2565b82525050565b5f602082019050610c1d5f830184610bfb565b92915050565b610c2c81610bc1565b8114610c36575f80fd5b50565b5f81359050610c4781610c23565b92915050565b5f8060408385031215610c6357610c62610b10565b5b5f610c7085828601610b5a565b9250506020610c8185828601610c39565b9150509250929050565b5f8115159050919050565b610c9f81610c8b565b82525050565b5f602082019050610cb85f830184610c96565b92915050565b5f82825260208201905092915050565b7f4f6e6c79206f776e65722063616e2063616c6c20746869732066756e6374696f5f8201527f6e00000000000000000000000000000000000000000000000000000000000000602082015250565b5f610d28602183610cbe565b9150610d3382610cce565b604082019050919050565b5f6020820190508181035f830152610d5581610d1c565b9050919050565b7f4e487b71000000000000000000000000000000000000000000000000000000005f52601160045260245ffd5b5f610d9382610bc1565b9150610d9e83610bc1565b9250828201905080821115610db657610db5610d5c565b5b92915050565b7f77696e646f77206973206e6f7420636c6f7365640000000000000000000000005f82015250565b5f610df0601483610cbe565b9150610dfb82610dbc565b602082019050919050565b5f6020820190508181035f830152610e1d81610de4565b9050919050565b7f54415247455420697320726561636865640000000000000000000000000000005f82015250565b5f610e58601183610cbe565b9150610e6382610e24565b602082019050919050565b5f6020820190508181035f830152610e8581610e4c565b9050919050565b7f7468657265206973206e6f2066756e6420666f7220796f7500000000000000005f82015250565b5f610ec0601883610cbe565b9150610ecb82610e8c565b602082019050919050565b5f6020820190508181035f830152610eed81610eb4565b9050919050565b5f81905092915050565b50565b5f610f0c5f83610ef4565b9150610f1782610efe565b5f82019050919050565b5f610f2b82610f01565b9150819050919050565b7f7472616e73666572207478206661696c656400000000000000000000000000005f82015250565b5f610f69601283610cbe565b9150610f7482610f35565b602082019050919050565b5f6020820190508181035f830152610f9681610f5d565b9050919050565b7f4e6f7420656e6f7567682066756e6400000000000000000000000000000000005f82015250565b5f610fd1600f83610cbe565b9150610fdc82610f9d565b602082019050919050565b5f6020820190508181035f830152610ffe81610fc5565b9050919050565b7f53656e64206d6f726520455448000000000000000000000000000000000000005f82015250565b5f611039600d83610cbe565b915061104482611005565b602082019050919050565b5f6020820190508181035f8301526110668161102d565b9050919050565b7f77696e646f7720697320636c6f736564000000000000000000000000000000005f82015250565b5f6110a1601083610cbe565b91506110ac8261106d565b602082019050919050565b5f6020820190508181035f8301526110ce81611095565b9050919050565b5f69ffffffffffffffffffff82169050919050565b6110f3816110d5565b81146110fd575f80fd5b50565b5f8151905061110e816110ea565b92915050565b61111d81610bf2565b8114611127575f80fd5b50565b5f8151905061113881611114565b92915050565b5f8151905061114c81610c23565b92915050565b5f805f805f60a0868803121561116b5761116a610b10565b5b5f61117888828901611100565b95505060206111898882890161112a565b945050604061119a8882890161113e565b93505060606111ab8882890161113e565b92505060806111bc88828901611100565b9150509295509295909350565b7f596f7520646f206e6f74206861766520746865207065726d697373696f6e20745f8201527f6f2063616c6c20746869732066756e6374696f6e000000000000000000000000602082015250565b5f611223603483610cbe565b915061122e826111c9565b604082019050919050565b5f6020820190508181035f83015261125081611217565b9050919050565b5f61126182610bc1565b915061126c83610bc1565b925082820261127a81610bc1565b9150828204841483151761129157611290610d5c565b5b5092915050565b7f4e487b71000000000000000000000000000000000000000000000000000000005f52601260045260245ffd5b5f6112cf82610bc1565b91506112da83610bc1565b9250826112ea576112e9611298565b5b82820490509291505056fea26469706673582212202fb3b7a0273e9c8c169c565a24733a7a5bac84665f58e5a5fedd24e5503de2d164736f6c63430008180033",
					"opcodes": "PUSH1 0x80 PUSH1 0x40 MSTORE PUSH0 PUSH1 0x5 PUSH1 0x14 PUSH2 0x100 EXP DUP2 SLOAD DUP2 PUSH1 0xFF MUL NOT AND SWAP1 DUP4 ISZERO ISZERO MUL OR SWAP1 SSTORE POP CALLVALUE DUP1 ISZERO PUSH3 0x2A JUMPI PUSH0 DUP1 REVERT JUMPDEST POP PUSH1 0x40 MLOAD PUSH3 0x149E CODESIZE SUB DUP1 PUSH3 0x149E DUP4 CODECOPY DUP2 DUP2 ADD PUSH1 0x40 MSTORE DUP2 ADD SWAP1 PUSH3 0x50 SWAP2 SWAP1 PUSH3 0x135 JUMP JUMPDEST PUSH20 0x694AA1769357215DE4FAC081BF1F309ADC325306 PUSH1 0x1 PUSH0 PUSH2 0x100 EXP DUP2 SLOAD DUP2 PUSH20 0xFFFFFFFFFFFFFFFFFFFFFFFFFFFFFFFFFFFFFFFF MUL NOT AND SWAP1 DUP4 PUSH20 0xFFFFFFFFFFFFFFFFFFFFFFFFFFFFFFFFFFFFFFFF AND MUL OR SWAP1 SSTORE POP CALLER PUSH1 0x2 PUSH0 PUSH2 0x100 EXP DUP2 SLOAD DUP2 PUSH20 0xFFFFFFFFFFFFFFFFFFFFFFFFFFFFFFFFFFFFFFFF MUL NOT AND SWAP1 DUP4 PUSH20 0xFFFFFFFFFFFFFFFFFFFFFFFFFFFFFFFFFFFFFFFF AND MUL OR SWAP1 SSTORE POP TIMESTAMP PUSH1 0x3 DUP2 SWAP1 SSTORE POP DUP1 PUSH1 0x4 DUP2 SWAP1 SSTORE POP POP PUSH3 0x165 JUMP JUMPDEST PUSH0 DUP1 REVERT JUMPDEST PUSH0 DUP2 SWAP1 POP SWAP2 SWAP1 POP JUMP JUMPDEST PUSH3 0x111 DUP2 PUSH3 0xFD JUMP JUMPDEST DUP2 EQ PUSH3 0x11C JUMPI PUSH0 DUP1 REVERT JUMPDEST POP JUMP JUMPDEST PUSH0 DUP2 MLOAD SWAP1 POP PUSH3 0x12F DUP2 PUSH3 0x106 JUMP JUMPDEST SWAP3 SWAP2 POP POP JUMP JUMPDEST PUSH0 PUSH1 0x20 DUP3 DUP5 SUB SLT ISZERO PUSH3 0x14D JUMPI PUSH3 0x14C PUSH3 0xF9 JUMP JUMPDEST JUMPDEST PUSH0 PUSH3 0x15C DUP5 DUP3 DUP6 ADD PUSH3 0x11F JUMP JUMPDEST SWAP2 POP POP SWAP3 SWAP2 POP POP JUMP JUMPDEST PUSH2 0x132B DUP1 PUSH3 0x173 PUSH0 CODECOPY PUSH0 RETURN INVALID PUSH1 0x80 PUSH1 0x40 MSTORE PUSH1 0x4 CALLDATASIZE LT PUSH2 0x90 JUMPI PUSH0 CALLDATALOAD PUSH1 0xE0 SHR DUP1 PUSH4 0xB60D4288 GT PUSH2 0x58 JUMPI DUP1 PUSH4 0xB60D4288 EQ PUSH2 0x14E JUMPI DUP1 PUSH4 0xBEA4DFB5 EQ PUSH2 0x158 JUMPI DUP1 PUSH4 0xD39CF006 EQ PUSH2 0x182 JUMPI DUP1 PUSH4 0xDA4658E0 EQ PUSH2 0x1AA JUMPI DUP1 PUSH4 0xF2FDE38B EQ PUSH2 0x1D4 JUMPI PUSH2 0x90 JUMP JUMPDEST DUP1 PUSH4 0x13FFFF01 EQ PUSH2 0x94 JUMPI DUP1 PUSH4 0x590E1AE3 EQ PUSH2 0xBC JUMPI DUP1 PUSH4 0x8DA5CB5B EQ PUSH2 0xD2 JUMPI DUP1 PUSH4 0x8EDD6EB6 EQ PUSH2 0xFC JUMPI DUP1 PUSH4 0x9F883A05 EQ PUSH2 0x112 JUMPI JUMPDEST PUSH0 DUP1 REVERT JUMPDEST CALLVALUE DUP1 ISZERO PUSH2 0x9F JUMPI PUSH0 DUP1 REVERT JUMPDEST POP PUSH2 0xBA PUSH1 0x4 DUP1 CALLDATASIZE SUB DUP2 ADD SWAP1 PUSH2 0xB5 SWAP2 SWAP1 PUSH2 0xB6E JUMP JUMPDEST PUSH2 0x1FC JUMP JUMPDEST STOP JUMPDEST CALLVALUE DUP1 ISZERO PUSH2 0xC7 JUMPI PUSH0 DUP1 REVERT JUMPDEST POP PUSH2 0xD0 PUSH2 0x2CE JUMP JUMPDEST STOP JUMPDEST CALLVALUE DUP1 ISZERO PUSH2 0xDD JUMPI PUSH0 DUP1 REVERT JUMPDEST POP PUSH2 0xE6 PUSH2 0x51B JUMP JUMPDEST PUSH1 0x40 MLOAD PUSH2 0xF3 SWAP2 SWAP1 PUSH2 0xBA8 JUMP JUMPDEST PUSH1 0x40 MLOAD DUP1 SWAP2 SUB SWAP1 RETURN JUMPDEST CALLVALUE DUP1 ISZERO PUSH2 0x107 JUMPI PUSH0 DUP1 REVERT JUMPDEST POP PUSH2 0x110 PUSH2 0x540 JUMP JUMPDEST STOP JUMPDEST CALLVALUE DUP1 ISZERO PUSH2 0x11D JUMPI PUSH0 DUP1 REVERT JUMPDEST POP PUSH2 0x138 PUSH1 0x4 DUP1 CALLDATASIZE SUB DUP2 ADD SWAP1 PUSH2 0x133 SWAP2 SWAP1 PUSH2 0xB6E JUMP JUMPDEST PUSH2 0x77E JUMP JUMPDEST PUSH1 0x40 MLOAD PUSH2 0x145 SWAP2 SWAP1 PUSH2 0xBD9 JUMP JUMPDEST PUSH1 0x40 MLOAD DUP1 SWAP2 SUB SWAP1 RETURN JUMPDEST PUSH2 0x156 PUSH2 0x792 JUMP JUMPDEST STOP JUMPDEST CALLVALUE DUP1 ISZERO PUSH2 0x163 JUMPI PUSH0 DUP1 REVERT JUMPDEST POP PUSH2 0x16C PUSH2 0x88B JUMP JUMPDEST PUSH1 0x40 MLOAD PUSH2 0x179 SWAP2 SWAP1 PUSH2 0xC0A JUMP JUMPDEST PUSH1 0x40 MLOAD DUP1 SWAP2 SUB SWAP1 RETURN JUMPDEST CALLVALUE DUP1 ISZERO PUSH2 0x18D JUMPI PUSH0 DUP1 REVERT JUMPDEST POP PUSH2 0x1A8 PUSH1 0x4 DUP1 CALLDATASIZE SUB DUP2 ADD SWAP1 PUSH2 0x1A3 SWAP2 SWAP1 PUSH2 0xC4D JUMP JUMPDEST PUSH2 0x928 JUMP JUMPDEST STOP JUMPDEST CALLVALUE DUP1 ISZERO PUSH2 0x1B5 JUMPI PUSH0 DUP1 REVERT JUMPDEST POP PUSH2 0x1BE PUSH2 0x9FC JUMP JUMPDEST PUSH1 0x40 MLOAD PUSH2 0x1CB SWAP2 SWAP1 PUSH2 0xCA5 JUMP JUMPDEST PUSH1 0x40 MLOAD DUP1 SWAP2 SUB SWAP1 RETURN JUMPDEST CALLVALUE DUP1 ISZERO PUSH2 0x1DF JUMPI PUSH0 DUP1 REVERT JUMPDEST POP PUSH2 0x1FA PUSH1 0x4 DUP1 CALLDATASIZE SUB DUP2 ADD SWAP1 PUSH2 0x1F5 SWAP2 SWAP1 PUSH2 0xB6E JUMP JUMPDEST PUSH2 0xA0F JUMP JUMPDEST STOP JUMPDEST PUSH1 0x2 PUSH0 SWAP1 SLOAD SWAP1 PUSH2 0x100 EXP SWAP1 DIV PUSH20 0xFFFFFFFFFFFFFFFFFFFFFFFFFFFFFFFFFFFFFFFF AND PUSH20 0xFFFFFFFFFFFFFFFFFFFFFFFFFFFFFFFFFFFFFFFF AND CALLER PUSH20 0xFFFFFFFFFFFFFFFFFFFFFFFFFFFFFFFFFFFFFFFF AND EQ PUSH2 0x28B JUMPI PUSH1 0x40 MLOAD PUSH32 0x8C379A000000000000000000000000000000000000000000000000000000000 DUP2 MSTORE PUSH1 0x4 ADD PUSH2 0x282 SWAP1 PUSH2 0xD3E JUMP JUMPDEST PUSH1 0x40 MLOAD DUP1 SWAP2 SUB SWAP1 REVERT JUMPDEST DUP1 PUSH1 0x5 PUSH0 PUSH2 0x100 EXP DUP2 SLOAD DUP2 PUSH20 0xFFFFFFFFFFFFFFFFFFFFFFFFFFFFFFFFFFFFFFFF MUL NOT AND SWAP1 DUP4 PUSH20 0xFFFFFFFFFFFFFFFFFFFFFFFFFFFFFFFFFFFFFFFF AND MUL OR SWAP1 SSTORE POP POP JUMP JUMPDEST PUSH1 0x4 SLOAD PUSH1 0x3 SLOAD PUSH2 0x2DE SWAP2 SWAP1 PUSH2 0xD89 JUMP JUMPDEST TIMESTAMP LT ISZERO PUSH2 0x320 JUMPI PUSH1 0x40 MLOAD PUSH32 0x8C379A000000000000000000000000000000000000000000000000000000000 DUP2 MSTORE PUSH1 0x4 ADD PUSH2 0x317 SWAP1 PUSH2 0xE06 JUMP JUMPDEST PUSH1 0x40 MLOAD DUP1 SWAP2 SUB SWAP1 REVERT JUMPDEST PUSH9 0x3635C9ADC5DEA00000 PUSH2 0x333 SELFBALANCE PUSH2 0xAE1 JUMP JUMPDEST LT PUSH2 0x373 JUMPI PUSH1 0x40 MLOAD PUSH32 0x8C379A000000000000000000000000000000000000000000000000000000000 DUP2 MSTORE PUSH1 0x4 ADD PUSH2 0x36A SWAP1 PUSH2 0xE6E JUMP JUMPDEST PUSH1 0x40 MLOAD DUP1 SWAP2 SUB SWAP1 REVERT JUMPDEST PUSH0 DUP1 PUSH0 CALLER PUSH20 0xFFFFFFFFFFFFFFFFFFFFFFFFFFFFFFFFFFFFFFFF AND PUSH20 0xFFFFFFFFFFFFFFFFFFFFFFFFFFFFFFFFFFFFFFFF AND DUP2 MSTORE PUSH1 0x20 ADD SWAP1 DUP2 MSTORE PUSH1 0x20 ADD PUSH0 KECCAK256 SLOAD SUB PUSH2 0x3F1 JUMPI PUSH1 0x40 MLOAD PUSH32 0x8C379A000000000000000000000000000000000000000000000000000000000 DUP2 MSTORE PUSH1 0x4 ADD PUSH2 0x3E8 SWAP1 PUSH2 0xED6 JUMP JUMPDEST PUSH1 0x40 MLOAD DUP1 SWAP2 SUB SWAP1 REVERT JUMPDEST PUSH0 CALLER PUSH20 0xFFFFFFFFFFFFFFFFFFFFFFFFFFFFFFFFFFFFFFFF AND PUSH0 DUP1 CALLER PUSH20 0xFFFFFFFFFFFFFFFFFFFFFFFFFFFFFFFFFFFFFFFF AND PUSH20 0xFFFFFFFFFFFFFFFFFFFFFFFFFFFFFFFFFFFFFFFF AND DUP2 MSTORE PUSH1 0x20 ADD SWAP1 DUP2 MSTORE PUSH1 0x20 ADD PUSH0 KECCAK256 SLOAD PUSH1 0x40 MLOAD PUSH2 0x452 SWAP1 PUSH2 0xF21 JUMP JUMPDEST PUSH0 PUSH1 0x40 MLOAD DUP1 DUP4 SUB DUP2 DUP6 DUP8 GAS CALL SWAP3 POP POP POP RETURNDATASIZE DUP1 PUSH0 DUP2 EQ PUSH2 0x48C JUMPI PUSH1 0x40 MLOAD SWAP2 POP PUSH1 0x1F NOT PUSH1 0x3F RETURNDATASIZE ADD AND DUP3 ADD PUSH1 0x40 MSTORE RETURNDATASIZE DUP3 MSTORE RETURNDATASIZE PUSH0 PUSH1 0x20 DUP5 ADD RETURNDATACOPY PUSH2 0x491 JUMP JUMPDEST PUSH1 0x60 SWAP2 POP JUMPDEST POP POP DUP1 SWAP2 POP POP DUP1 PUSH2 0x4D7 JUMPI PUSH1 0x40 MLOAD PUSH32 0x8C379A000000000000000000000000000000000000000000000000000000000 DUP2 MSTORE PUSH1 0x4 ADD PUSH2 0x4CE SWAP1 PUSH2 0xF7F JUMP JUMPDEST PUSH1 0x40 MLOAD DUP1 SWAP2 SUB SWAP1 REVERT JUMPDEST PUSH0 DUP1 PUSH0 CALLER PUSH20 0xFFFFFFFFFFFFFFFFFFFFFFFFFFFFFFFFFFFFFFFF AND PUSH20 0xFFFFFFFFFFFFFFFFFFFFFFFFFFFFFFFFFFFFFFFF AND DUP2 MSTORE PUSH1 0x20 ADD SWAP1 DUP2 MSTORE PUSH1 0x20 ADD PUSH0 KECCAK256 DUP2 SWAP1 SSTORE POP POP JUMP JUMPDEST PUSH1 0x2 PUSH0 SWAP1 SLOAD SWAP1 PUSH2 0x100 EXP SWAP1 DIV PUSH20 0xFFFFFFFFFFFFFFFFFFFFFFFFFFFFFFFFFFFFFFFF AND DUP2 JUMP JUMPDEST PUSH1 0x4 SLOAD PUSH1 0x3 SLOAD PUSH2 0x550 SWAP2 SWAP1 PUSH2 0xD89 JUMP JUMPDEST TIMESTAMP LT ISZERO PUSH2 0x592 JUMPI PUSH1 0x40 MLOAD PUSH32 0x8C379A000000000000000000000000000000000000000000000000000000000 DUP2 MSTORE PUSH1 0x4 ADD PUSH2 0x589 SWAP1 PUSH2 0xE06 JUMP JUMPDEST PUSH1 0x40 MLOAD DUP1 SWAP2 SUB SWAP1 REVERT JUMPDEST PUSH1 0x2 PUSH0 SWAP1 SLOAD SWAP1 PUSH2 0x100 EXP SWAP1 DIV PUSH20 0xFFFFFFFFFFFFFFFFFFFFFFFFFFFFFFFFFFFFFFFF AND PUSH20 0xFFFFFFFFFFFFFFFFFFFFFFFFFFFFFFFFFFFFFFFF AND CALLER PUSH20 0xFFFFFFFFFFFFFFFFFFFFFFFFFFFFFFFFFFFFFFFF AND EQ PUSH2 0x621 JUMPI PUSH1 0x40 MLOAD PUSH32 0x8C379A000000000000000000000000000000000000000000000000000000000 DUP2 MSTORE PUSH1 0x4 ADD PUSH2 0x618 SWAP1 PUSH2 0xD3E JUMP JUMPDEST PUSH1 0x40 MLOAD DUP1 SWAP2 SUB SWAP1 REVERT JUMPDEST PUSH9 0x3635C9ADC5DEA00000 PUSH2 0x634 SELFBALANCE PUSH2 0xAE1 JUMP JUMPDEST LT ISZERO PUSH2 0x675 JUMPI PUSH1 0x40 MLOAD PUSH32 0x8C379A000000000000000000000000000000000000000000000000000000000 DUP2 MSTORE PUSH1 0x4 ADD PUSH2 0x66C SWAP1 PUSH2 0xFE7 JUMP JUMPDEST PUSH1 0x40 MLOAD DUP1 SWAP2 SUB SWAP1 REVERT JUMPDEST PUSH0 CALLER PUSH20 0xFFFFFFFFFFFFFFFFFFFFFFFFFFFFFFFFFFFFFFFF AND SELFBALANCE PUSH1 0x40 MLOAD PUSH2 0x69A SWAP1 PUSH2 0xF21 JUMP JUMPDEST PUSH0 PUSH1 0x40 MLOAD DUP1 DUP4 SUB DUP2 DUP6 DUP8 GAS CALL SWAP3 POP POP POP RETURNDATASIZE DUP1 PUSH0 DUP2 EQ PUSH2 0x6D4 JUMPI PUSH1 0x40 MLOAD SWAP2 POP PUSH1 0x1F NOT PUSH1 0x3F RETURNDATASIZE ADD AND DUP3 ADD PUSH1 0x40 MSTORE RETURNDATASIZE DUP3 MSTORE RETURNDATASIZE PUSH0 PUSH1 0x20 DUP5 ADD RETURNDATACOPY PUSH2 0x6D9 JUMP JUMPDEST PUSH1 0x60 SWAP2 POP JUMPDEST POP POP DUP1 SWAP2 POP POP DUP1 PUSH2 0x71F JUMPI PUSH1 0x40 MLOAD PUSH32 0x8C379A000000000000000000000000000000000000000000000000000000000 DUP2 MSTORE PUSH1 0x4 ADD PUSH2 0x716 SWAP1 PUSH2 0xF7F JUMP JUMPDEST PUSH1 0x40 MLOAD DUP1 SWAP2 SUB SWAP1 REVERT JUMPDEST PUSH0 DUP1 PUSH0 CALLER PUSH20 0xFFFFFFFFFFFFFFFFFFFFFFFFFFFFFFFFFFFFFFFF AND PUSH20 0xFFFFFFFFFFFFFFFFFFFFFFFFFFFFFFFFFFFFFFFF AND DUP2 MSTORE PUSH1 0x20 ADD SWAP1 DUP2 MSTORE PUSH1 0x20 ADD PUSH0 KECCAK256 DUP2 SWAP1 SSTORE POP PUSH1 0x1 PUSH1 0x5 PUSH1 0x14 PUSH2 0x100 EXP DUP2 SLOAD DUP2 PUSH1 0xFF MUL NOT AND SWAP1 DUP4 ISZERO ISZERO MUL OR SWAP1 SSTORE POP POP JUMP JUMPDEST PUSH0 PUSH1 0x20 MSTORE DUP1 PUSH0 MSTORE PUSH1 0x40 PUSH0 KECCAK256 PUSH0 SWAP2 POP SWAP1 POP SLOAD DUP2 JUMP JUMPDEST PUSH9 0x56BC75E2D63100000 PUSH2 0x7A5 CALLVALUE PUSH2 0xAE1 JUMP JUMPDEST LT ISZERO PUSH2 0x7E6 JUMPI PUSH1 0x40 MLOAD PUSH32 0x8C379A000000000000000000000000000000000000000000000000000000000 DUP2 MSTORE PUSH1 0x4 ADD PUSH2 0x7DD SWAP1 PUSH2 0x104F JUMP JUMPDEST PUSH1 0x40 MLOAD DUP1 SWAP2 SUB SWAP1 REVERT JUMPDEST PUSH1 0x4 SLOAD PUSH1 0x3 SLOAD PUSH2 0x7F6 SWAP2 SWAP1 PUSH2 0xD89 JUMP JUMPDEST TIMESTAMP LT PUSH2 0x837 JUMPI PUSH1 0x40 MLOAD PUSH32 0x8C379A000000000000000000000000000000000000000000000000000000000 DUP2 MSTORE PUSH1 0x4 ADD PUSH2 0x82E SWAP1 PUSH2 0x10B7 JUMP JUMPDEST PUSH1 0x40 MLOAD DUP1 SWAP2 SUB SWAP1 REVERT JUMPDEST CALLVALUE PUSH0 DUP1 CALLER PUSH20 0xFFFFFFFFFFFFFFFFFFFFFFFFFFFFFFFFFFFFFFFF AND PUSH20 0xFFFFFFFFFFFFFFFFFFFFFFFFFFFFFFFFFFFFFFFF AND DUP2 MSTORE PUSH1 0x20 ADD SWAP1 DUP2 MSTORE PUSH1 0x20 ADD PUSH0 KECCAK256 PUSH0 DUP3 DUP3 SLOAD PUSH2 0x882 SWAP2 SWAP1 PUSH2 0xD89 JUMP JUMPDEST SWAP3 POP POP DUP2 SWAP1 SSTORE POP JUMP JUMPDEST PUSH0 DUP1 PUSH1 0x1 PUSH0 SWAP1 SLOAD SWAP1 PUSH2 0x100 EXP SWAP1 DIV PUSH20 0xFFFFFFFFFFFFFFFFFFFFFFFFFFFFFFFFFFFFFFFF AND PUSH20 0xFFFFFFFFFFFFFFFFFFFFFFFFFFFFFFFFFFFFFFFF AND PUSH4 0xFEAF968C PUSH1 0x40 MLOAD DUP2 PUSH4 0xFFFFFFFF AND PUSH1 0xE0 SHL DUP2 MSTORE PUSH1 0x4 ADD PUSH1 0xA0 PUSH1 0x40 MLOAD DUP1 DUP4 SUB DUP2 DUP7 GAS STATICCALL ISZERO DUP1 ISZERO PUSH2 0x8F7 JUMPI RETURNDATASIZE PUSH0 DUP1 RETURNDATACOPY RETURNDATASIZE PUSH0 REVERT JUMPDEST POP POP POP POP PUSH1 0x40 MLOAD RETURNDATASIZE PUSH1 0x1F NOT PUSH1 0x1F DUP3 ADD AND DUP3 ADD DUP1 PUSH1 0x40 MSTORE POP DUP2 ADD SWAP1 PUSH2 0x91B SWAP2 SWAP1 PUSH2 0x1152 JUMP JUMPDEST POP POP POP SWAP2 POP POP DUP1 SWAP2 POP POP SWAP1 JUMP JUMPDEST PUSH1 0x5 PUSH0 SWAP1 SLOAD SWAP1 PUSH2 0x100 EXP SWAP1 DIV PUSH20 0xFFFFFFFFFFFFFFFFFFFFFFFFFFFFFFFFFFFFFFFF AND PUSH20 0xFFFFFFFFFFFFFFFFFFFFFFFFFFFFFFFFFFFFFFFF AND CALLER PUSH20 0xFFFFFFFFFFFFFFFFFFFFFFFFFFFFFFFFFFFFFFFF AND EQ PUSH2 0x9B7 JUMPI PUSH1 0x40 MLOAD PUSH32 0x8C379A000000000000000000000000000000000000000000000000000000000 DUP2 MSTORE PUSH1 0x4 ADD PUSH2 0x9AE SWAP1 PUSH2 0x1239 JUMP JUMPDEST PUSH1 0x40 MLOAD DUP1 SWAP2 SUB SWAP1 REVERT JUMPDEST DUP1 PUSH0 DUP1 DUP5 PUSH20 0xFFFFFFFFFFFFFFFFFFFFFFFFFFFFFFFFFFFFFFFF AND PUSH20 0xFFFFFFFFFFFFFFFFFFFFFFFFFFFFFFFFFFFFFFFF AND DUP2 MSTORE PUSH1 0x20 ADD SWAP1 DUP2 MSTORE PUSH1 0x20 ADD PUSH0 KECCAK256 DUP2 SWAP1 SSTORE POP POP POP JUMP JUMPDEST PUSH1 0x5 PUSH1 0x14 SWAP1 SLOAD SWAP1 PUSH2 0x100 EXP SWAP1 DIV PUSH1 0xFF AND DUP2 JUMP JUMPDEST PUSH1 0x2 PUSH0 SWAP1 SLOAD SWAP1 PUSH2 0x100 EXP SWAP1 DIV PUSH20 0xFFFFFFFFFFFFFFFFFFFFFFFFFFFFFFFFFFFFFFFF AND PUSH20 0xFFFFFFFFFFFFFFFFFFFFFFFFFFFFFFFFFFFFFFFF AND CALLER PUSH20 0xFFFFFFFFFFFFFFFFFFFFFFFFFFFFFFFFFFFFFFFF AND EQ PUSH2 0xA9E JUMPI PUSH1 0x40 MLOAD PUSH32 0x8C379A000000000000000000000000000000000000000000000000000000000 DUP2 MSTORE PUSH1 0x4 ADD PUSH2 0xA95 SWAP1 PUSH2 0xD3E JUMP JUMPDEST PUSH1 0x40 MLOAD DUP1 SWAP2 SUB SWAP1 REVERT JUMPDEST DUP1 PUSH1 0x2 PUSH0 PUSH2 0x100 EXP DUP2 SLOAD DUP2 PUSH20 0xFFFFFFFFFFFFFFFFFFFFFFFFFFFFFFFFFFFFFFFF MUL NOT AND SWAP1 DUP4 PUSH20 0xFFFFFFFFFFFFFFFFFFFFFFFFFFFFFFFFFFFFFFFF AND MUL OR SWAP1 SSTORE POP POP JUMP JUMPDEST PUSH0 DUP1 PUSH2 0xAEB PUSH2 0x88B JUMP JUMPDEST SWAP1 POP PUSH4 0x5F5E100 DUP2 DUP5 PUSH2 0xAFE SWAP2 SWAP1 PUSH2 0x1257 JUMP JUMPDEST PUSH2 0xB08 SWAP2 SWAP1 PUSH2 0x12C5 JUMP JUMPDEST SWAP2 POP POP SWAP2 SWAP1 POP JUMP JUMPDEST PUSH0 DUP1 REVERT JUMPDEST PUSH0 PUSH20 0xFFFFFFFFFFFFFFFFFFFFFFFFFFFFFFFFFFFFFFFF DUP3 AND SWAP1 POP SWAP2 SWAP1 POP JUMP JUMPDEST PUSH0 PUSH2 0xB3D DUP3 PUSH2 0xB14 JUMP JUMPDEST SWAP1 POP SWAP2 SWAP1 POP JUMP JUMPDEST PUSH2 0xB4D DUP2 PUSH2 0xB33 JUMP JUMPDEST DUP2 EQ PUSH2 0xB57 JUMPI PUSH0 DUP1 REVERT JUMPDEST POP JUMP JUMPDEST PUSH0 DUP2 CALLDATALOAD SWAP1 POP PUSH2 0xB68 DUP2 PUSH2 0xB44 JUMP JUMPDEST SWAP3 SWAP2 POP POP JUMP JUMPDEST PUSH0 PUSH1 0x20 DUP3 DUP5 SUB SLT ISZERO PUSH2 0xB83 JUMPI PUSH2 0xB82 PUSH2 0xB10 JUMP JUMPDEST JUMPDEST PUSH0 PUSH2 0xB90 DUP5 DUP3 DUP6 ADD PUSH2 0xB5A JUMP JUMPDEST SWAP2 POP POP SWAP3 SWAP2 POP POP JUMP JUMPDEST PUSH2 0xBA2 DUP2 PUSH2 0xB33 JUMP JUMPDEST DUP3 MSTORE POP POP JUMP JUMPDEST PUSH0 PUSH1 0x20 DUP3 ADD SWAP1 POP PUSH2 0xBBB PUSH0 DUP4 ADD DUP5 PUSH2 0xB99 JUMP JUMPDEST SWAP3 SWAP2 POP POP JUMP JUMPDEST PUSH0 DUP2 SWAP1 POP SWAP2 SWAP1 POP JUMP JUMPDEST PUSH2 0xBD3 DUP2 PUSH2 0xBC1 JUMP JUMPDEST DUP3 MSTORE POP POP JUMP JUMPDEST PUSH0 PUSH1 0x20 DUP3 ADD SWAP1 POP PUSH2 0xBEC PUSH0 DUP4 ADD DUP5 PUSH2 0xBCA JUMP JUMPDEST SWAP3 SWAP2 POP POP JUMP JUMPDEST PUSH0 DUP2 SWAP1 POP SWAP2 SWAP1 POP JUMP JUMPDEST PUSH2 0xC04 DUP2 PUSH2 0xBF2 JUMP JUMPDEST DUP3 MSTORE POP POP JUMP JUMPDEST PUSH0 PUSH1 0x20 DUP3 ADD SWAP1 POP PUSH2 0xC1D PUSH0 DUP4 ADD DUP5 PUSH2 0xBFB JUMP JUMPDEST SWAP3 SWAP2 POP POP JUMP JUMPDEST PUSH2 0xC2C DUP2 PUSH2 0xBC1 JUMP JUMPDEST DUP2 EQ PUSH2 0xC36 JUMPI PUSH0 DUP1 REVERT JUMPDEST POP JUMP JUMPDEST PUSH0 DUP2 CALLDATALOAD SWAP1 POP PUSH2 0xC47 DUP2 PUSH2 0xC23 JUMP JUMPDEST SWAP3 SWAP2 POP POP JUMP JUMPDEST PUSH0 DUP1 PUSH1 0x40 DUP4 DUP6 SUB SLT ISZERO PUSH2 0xC63 JUMPI PUSH2 0xC62 PUSH2 0xB10 JUMP JUMPDEST JUMPDEST PUSH0 PUSH2 0xC70 DUP6 DUP3 DUP7 ADD PUSH2 0xB5A JUMP JUMPDEST SWAP3 POP POP PUSH1 0x20 PUSH2 0xC81 DUP6 DUP3 DUP7 ADD PUSH2 0xC39 JUMP JUMPDEST SWAP2 POP POP SWAP3 POP SWAP3 SWAP1 POP JUMP JUMPDEST PUSH0 DUP2 ISZERO ISZERO SWAP1 POP SWAP2 SWAP1 POP JUMP JUMPDEST PUSH2 0xC9F DUP2 PUSH2 0xC8B JUMP JUMPDEST DUP3 MSTORE POP POP JUMP JUMPDEST PUSH0 PUSH1 0x20 DUP3 ADD SWAP1 POP PUSH2 0xCB8 PUSH0 DUP4 ADD DUP5 PUSH2 0xC96 JUMP JUMPDEST SWAP3 SWAP2 POP POP JUMP JUMPDEST PUSH0 DUP3 DUP3 MSTORE PUSH1 0x20 DUP3 ADD SWAP1 POP SWAP3 SWAP2 POP POP JUMP JUMPDEST PUSH32 0x4F6E6C79206F776E65722063616E2063616C6C20746869732066756E6374696F PUSH0 DUP3 ADD MSTORE PUSH32 0x6E00000000000000000000000000000000000000000000000000000000000000 PUSH1 0x20 DUP3 ADD MSTORE POP JUMP JUMPDEST PUSH0 PUSH2 0xD28 PUSH1 0x21 DUP4 PUSH2 0xCBE JUMP JUMPDEST SWAP2 POP PUSH2 0xD33 DUP3 PUSH2 0xCCE JUMP JUMPDEST PUSH1 0x40 DUP3 ADD SWAP1 POP SWAP2 SWAP1 POP JUMP JUMPDEST PUSH0 PUSH1 0x20 DUP3 ADD SWAP1 POP DUP2 DUP2 SUB PUSH0 DUP4 ADD MSTORE PUSH2 0xD55 DUP2 PUSH2 0xD1C JUMP JUMPDEST SWAP1 POP SWAP2 SWAP1 POP JUMP JUMPDEST PUSH32 0x4E487B7100000000000000000000000000000000000000000000000000000000 PUSH0 MSTORE PUSH1 0x11 PUSH1 0x4 MSTORE PUSH1 0x24 PUSH0 REVERT JUMPDEST PUSH0 PUSH2 0xD93 DUP3 PUSH2 0xBC1 JUMP JUMPDEST SWAP2 POP PUSH2 0xD9E DUP4 PUSH2 0xBC1 JUMP JUMPDEST SWAP3 POP DUP3 DUP3 ADD SWAP1 POP DUP1 DUP3 GT ISZERO PUSH2 0xDB6 JUMPI PUSH2 0xDB5 PUSH2 0xD5C JUMP JUMPDEST JUMPDEST SWAP3 SWAP2 POP POP JUMP JUMPDEST PUSH32 0x77696E646F77206973206E6F7420636C6F736564000000000000000000000000 PUSH0 DUP3 ADD MSTORE POP JUMP JUMPDEST PUSH0 PUSH2 0xDF0 PUSH1 0x14 DUP4 PUSH2 0xCBE JUMP JUMPDEST SWAP2 POP PUSH2 0xDFB DUP3 PUSH2 0xDBC JUMP JUMPDEST PUSH1 0x20 DUP3 ADD SWAP1 POP SWAP2 SWAP1 POP JUMP JUMPDEST PUSH0 PUSH1 0x20 DUP3 ADD SWAP1 POP DUP2 DUP2 SUB PUSH0 DUP4 ADD MSTORE PUSH2 0xE1D DUP2 PUSH2 0xDE4 JUMP JUMPDEST SWAP1 POP SWAP2 SWAP1 POP JUMP JUMPDEST PUSH32 0x5441524745542069732072656163686564000000000000000000000000000000 PUSH0 DUP3 ADD MSTORE POP JUMP JUMPDEST PUSH0 PUSH2 0xE58 PUSH1 0x11 DUP4 PUSH2 0xCBE JUMP JUMPDEST SWAP2 POP PUSH2 0xE63 DUP3 PUSH2 0xE24 JUMP JUMPDEST PUSH1 0x20 DUP3 ADD SWAP1 POP SWAP2 SWAP1 POP JUMP JUMPDEST PUSH0 PUSH1 0x20 DUP3 ADD SWAP1 POP DUP2 DUP2 SUB PUSH0 DUP4 ADD MSTORE PUSH2 0xE85 DUP2 PUSH2 0xE4C JUMP JUMPDEST SWAP1 POP SWAP2 SWAP1 POP JUMP JUMPDEST PUSH32 0x7468657265206973206E6F2066756E6420666F7220796F750000000000000000 PUSH0 DUP3 ADD MSTORE POP JUMP JUMPDEST PUSH0 PUSH2 0xEC0 PUSH1 0x18 DUP4 PUSH2 0xCBE JUMP JUMPDEST SWAP2 POP PUSH2 0xECB DUP3 PUSH2 0xE8C JUMP JUMPDEST PUSH1 0x20 DUP3 ADD SWAP1 POP SWAP2 SWAP1 POP JUMP JUMPDEST PUSH0 PUSH1 0x20 DUP3 ADD SWAP1 POP DUP2 DUP2 SUB PUSH0 DUP4 ADD MSTORE PUSH2 0xEED DUP2 PUSH2 0xEB4 JUMP JUMPDEST SWAP1 POP SWAP2 SWAP1 POP JUMP JUMPDEST PUSH0 DUP2 SWAP1 POP SWAP3 SWAP2 POP POP JUMP JUMPDEST POP JUMP JUMPDEST PUSH0 PUSH2 0xF0C PUSH0 DUP4 PUSH2 0xEF4 JUMP JUMPDEST SWAP2 POP PUSH2 0xF17 DUP3 PUSH2 0xEFE JUMP JUMPDEST PUSH0 DUP3 ADD SWAP1 POP SWAP2 SWAP1 POP JUMP JUMPDEST PUSH0 PUSH2 0xF2B DUP3 PUSH2 0xF01 JUMP JUMPDEST SWAP2 POP DUP2 SWAP1 POP SWAP2 SWAP1 POP JUMP JUMPDEST PUSH32 0x7472616E73666572207478206661696C65640000000000000000000000000000 PUSH0 DUP3 ADD MSTORE POP JUMP JUMPDEST PUSH0 PUSH2 0xF69 PUSH1 0x12 DUP4 PUSH2 0xCBE JUMP JUMPDEST SWAP2 POP PUSH2 0xF74 DUP3 PUSH2 0xF35 JUMP JUMPDEST PUSH1 0x20 DUP3 ADD SWAP1 POP SWAP2 SWAP1 POP JUMP JUMPDEST PUSH0 PUSH1 0x20 DUP3 ADD SWAP1 POP DUP2 DUP2 SUB PUSH0 DUP4 ADD MSTORE PUSH2 0xF96 DUP2 PUSH2 0xF5D JUMP JUMPDEST SWAP1 POP SWAP2 SWAP1 POP JUMP JUMPDEST PUSH32 0x4E6F7420656E6F7567682066756E640000000000000000000000000000000000 PUSH0 DUP3 ADD MSTORE POP JUMP JUMPDEST PUSH0 PUSH2 0xFD1 PUSH1 0xF DUP4 PUSH2 0xCBE JUMP JUMPDEST SWAP2 POP PUSH2 0xFDC DUP3 PUSH2 0xF9D JUMP JUMPDEST PUSH1 0x20 DUP3 ADD SWAP1 POP SWAP2 SWAP1 POP JUMP JUMPDEST PUSH0 PUSH1 0x20 DUP3 ADD SWAP1 POP DUP2 DUP2 SUB PUSH0 DUP4 ADD MSTORE PUSH2 0xFFE DUP2 PUSH2 0xFC5 JUMP JUMPDEST SWAP1 POP SWAP2 SWAP1 POP JUMP JUMPDEST PUSH32 0x53656E64206D6F72652045544800000000000000000000000000000000000000 PUSH0 DUP3 ADD MSTORE POP JUMP JUMPDEST PUSH0 PUSH2 0x1039 PUSH1 0xD DUP4 PUSH2 0xCBE JUMP JUMPDEST SWAP2 POP PUSH2 0x1044 DUP3 PUSH2 0x1005 JUMP JUMPDEST PUSH1 0x20 DUP3 ADD SWAP1 POP SWAP2 SWAP1 POP JUMP JUMPDEST PUSH0 PUSH1 0x20 DUP3 ADD SWAP1 POP DUP2 DUP2 SUB PUSH0 DUP4 ADD MSTORE PUSH2 0x1066 DUP2 PUSH2 0x102D JUMP JUMPDEST SWAP1 POP SWAP2 SWAP1 POP JUMP JUMPDEST PUSH32 0x77696E646F7720697320636C6F73656400000000000000000000000000000000 PUSH0 DUP3 ADD MSTORE POP JUMP JUMPDEST PUSH0 PUSH2 0x10A1 PUSH1 0x10 DUP4 PUSH2 0xCBE JUMP JUMPDEST SWAP2 POP PUSH2 0x10AC DUP3 PUSH2 0x106D JUMP JUMPDEST PUSH1 0x20 DUP3 ADD SWAP1 POP SWAP2 SWAP1 POP JUMP JUMPDEST PUSH0 PUSH1 0x20 DUP3 ADD SWAP1 POP DUP2 DUP2 SUB PUSH0 DUP4 ADD MSTORE PUSH2 0x10CE DUP2 PUSH2 0x1095 JUMP JUMPDEST SWAP1 POP SWAP2 SWAP1 POP JUMP JUMPDEST PUSH0 PUSH10 0xFFFFFFFFFFFFFFFFFFFF DUP3 AND SWAP1 POP SWAP2 SWAP1 POP JUMP JUMPDEST PUSH2 0x10F3 DUP2 PUSH2 0x10D5 JUMP JUMPDEST DUP2 EQ PUSH2 0x10FD JUMPI PUSH0 DUP1 REVERT JUMPDEST POP JUMP JUMPDEST PUSH0 DUP2 MLOAD SWAP1 POP PUSH2 0x110E DUP2 PUSH2 0x10EA JUMP JUMPDEST SWAP3 SWAP2 POP POP JUMP JUMPDEST PUSH2 0x111D DUP2 PUSH2 0xBF2 JUMP JUMPDEST DUP2 EQ PUSH2 0x1127 JUMPI PUSH0 DUP1 REVERT JUMPDEST POP JUMP JUMPDEST PUSH0 DUP2 MLOAD SWAP1 POP PUSH2 0x1138 DUP2 PUSH2 0x1114 JUMP JUMPDEST SWAP3 SWAP2 POP POP JUMP JUMPDEST PUSH0 DUP2 MLOAD SWAP1 POP PUSH2 0x114C DUP2 PUSH2 0xC23 JUMP JUMPDEST SWAP3 SWAP2 POP POP JUMP JUMPDEST PUSH0 DUP1 PUSH0 DUP1 PUSH0 PUSH1 0xA0 DUP7 DUP9 SUB SLT ISZERO PUSH2 0x116B JUMPI PUSH2 0x116A PUSH2 0xB10 JUMP JUMPDEST JUMPDEST PUSH0 PUSH2 0x1178 DUP9 DUP3 DUP10 ADD PUSH2 0x1100 JUMP JUMPDEST SWAP6 POP POP PUSH1 0x20 PUSH2 0x1189 DUP9 DUP3 DUP10 ADD PUSH2 0x112A JUMP JUMPDEST SWAP5 POP POP PUSH1 0x40 PUSH2 0x119A DUP9 DUP3 DUP10 ADD PUSH2 0x113E JUMP JUMPDEST SWAP4 POP POP PUSH1 0x60 PUSH2 0x11AB DUP9 DUP3 DUP10 ADD PUSH2 0x113E JUMP JUMPDEST SWAP3 POP POP PUSH1 0x80 PUSH2 0x11BC DUP9 DUP3 DUP10 ADD PUSH2 0x1100 JUMP JUMPDEST SWAP2 POP POP SWAP3 SWAP6 POP SWAP3 SWAP6 SWAP1 SWAP4 POP JUMP JUMPDEST PUSH32 0x596F7520646F206E6F74206861766520746865207065726D697373696F6E2074 PUSH0 DUP3 ADD MSTORE PUSH32 0x6F2063616C6C20746869732066756E6374696F6E000000000000000000000000 PUSH1 0x20 DUP3 ADD MSTORE POP JUMP JUMPDEST PUSH0 PUSH2 0x1223 PUSH1 0x34 DUP4 PUSH2 0xCBE JUMP JUMPDEST SWAP2 POP PUSH2 0x122E DUP3 PUSH2 0x11C9 JUMP JUMPDEST PUSH1 0x40 DUP3 ADD SWAP1 POP SWAP2 SWAP1 POP JUMP JUMPDEST PUSH0 PUSH1 0x20 DUP3 ADD SWAP1 POP DUP2 DUP2 SUB PUSH0 DUP4 ADD MSTORE PUSH2 0x1250 DUP2 PUSH2 0x1217 JUMP JUMPDEST SWAP1 POP SWAP2 SWAP1 POP JUMP JUMPDEST PUSH0 PUSH2 0x1261 DUP3 PUSH2 0xBC1 JUMP JUMPDEST SWAP2 POP PUSH2 0x126C DUP4 PUSH2 0xBC1 JUMP JUMPDEST SWAP3 POP DUP3 DUP3 MUL PUSH2 0x127A DUP2 PUSH2 0xBC1 JUMP JUMPDEST SWAP2 POP DUP3 DUP3 DIV DUP5 EQ DUP4 ISZERO OR PUSH2 0x1291 JUMPI PUSH2 0x1290 PUSH2 0xD5C JUMP JUMPDEST JUMPDEST POP SWAP3 SWAP2 POP POP JUMP JUMPDEST PUSH32 0x4E487B7100000000000000000000000000000000000000000000000000000000 PUSH0 MSTORE PUSH1 0x12 PUSH1 0x4 MSTORE PUSH1 0x24 PUSH0 REVERT JUMPDEST PUSH0 PUSH2 0x12CF DUP3 PUSH2 0xBC1 JUMP JUMPDEST SWAP2 POP PUSH2 0x12DA DUP4 PUSH2 0xBC1 JUMP JUMPDEST SWAP3 POP DUP3 PUSH2 0x12EA JUMPI PUSH2 0x12E9 PUSH2 0x1298 JUMP JUMPDEST JUMPDEST DUP3 DUP3 DIV SWAP1 POP SWAP3 SWAP2 POP POP JUMP INVALID LOG2 PUSH5 0x6970667358 0x22 SLT KECCAK256 0x2F 0xB3 0xB7 LOG0 0x27 RETURNDATACOPY SWAP13 DUP13 AND SWAP13 JUMP GAS 0x24 PUSH20 0x3A7A5BAC84665F58E5A5FEDD24E5503DE2D16473 PUSH16 0x6C634300081800330000000000000000 "
				},
				"gasEstimates": {
					"creation": {
						"codeDepositCost": "981400",
						"executionCost": "infinite",
						"totalCost": "infinite"
					},
					"external": {
						"fund()": "infinite",
						"fundersToAmount(address)": "2890",
						"getChainlinkDataFeedLatestAnswer()": "infinite",
						"getFund()": "infinite",
						"getFundSuccess()": "2583",
						"owner()": "2553",
						"refund()": "infinite",
						"setErc20Addr(address)": "26885",
						"setFunderToAmount(address,uint256)": "25035",
						"transferOwnership(address)": "26972"
					},
					"internal": {
						"convertEthToUsd(uint256)": "infinite"
					}
				},
				"methodIdentifiers": {
					"fund()": "b60d4288",
					"fundersToAmount(address)": "9f883a05",
					"getChainlinkDataFeedLatestAnswer()": "bea4dfb5",
					"getFund()": "8edd6eb6",
					"getFundSuccess()": "da4658e0",
					"owner()": "8da5cb5b",
					"refund()": "590e1ae3",
					"setErc20Addr(address)": "13ffff01",
					"setFunderToAmount(address,uint256)": "d39cf006",
					"transferOwnership(address)": "f2fde38b"
				}
			},
			"storageLayout": {
				"storage": [
					{
						"astId": 839,
						"contract": "FundMe.sol:FundMe",
						"label": "fundersToAmount",
						"offset": 0,
						"slot": "0",
						"type": "t_mapping(t_address,t_uint256)"
					},
					{
						"astId": 849,
						"contract": "FundMe.sol:FundMe",
						"label": "dataFeed",
						"offset": 0,
						"slot": "1",
						"type": "t_contract(AggregatorV3Interface)45"
					},
					{
						"astId": 858,
						"contract": "FundMe.sol:FundMe",
						"label": "owner",
						"offset": 0,
						"slot": "2",
						"type": "t_address"
					},
					{
						"astId": 860,
						"contract": "FundMe.sol:FundMe",
						"label": "deploymentTimestamp",
						"offset": 0,
						"slot": "3",
						"type": "t_uint256"
					},
					{
						"astId": 862,
						"contract": "FundMe.sol:FundMe",
						"label": "lockTime",
						"offset": 0,
						"slot": "4",
						"type": "t_uint256"
					},
					{
						"astId": 864,
						"contract": "FundMe.sol:FundMe",
						"label": "erc20Addr",
						"offset": 0,
						"slot": "5",
						"type": "t_address"
					},
					{
						"astId": 867,
						"contract": "FundMe.sol:FundMe",
						"label": "getFundSuccess",
						"offset": 20,
						"slot": "5",
						"type": "t_bool"
					}
				],
				"types": {
					"t_address": {
						"encoding": "inplace",
						"label": "address",
						"numberOfBytes": "20"
					},
					"t_bool": {
						"encoding": "inplace",
						"label": "bool",
						"numberOfBytes": "1"
					},
					"t_contract(AggregatorV3Interface)45": {
						"encoding": "inplace",
						"label": "contract AggregatorV3Interface",
						"numberOfBytes": "20"
					},
					"t_mapping(t_address,t_uint256)": {
						"encoding": "mapping",
						"key": "t_address",
						"label": "mapping(address => uint256)",
						"numberOfBytes": "32",
						"value": "t_uint256"
					},
					"t_uint256": {
						"encoding": "inplace",
						"label": "uint256",
						"numberOfBytes": "32"
					}
				}
			},
			"userdoc": {
				"kind": "user",
				"methods": {
					"getChainlinkDataFeedLatestAnswer()": {
						"notice": "Returns the latest answer."
					}
				},
				"version": 1
			}
		}
	}
}