{
	"data": {
		"bytecode": {
			"linkReferences": {},
			"object": "608060405234801561000f575f80fd5b5073694aa1769357215de4fac081bf1f309adc32530660015f6101000a81548173ffffffffffffffffffffffffffffffffffffffff021916908373ffffffffffffffffffffffffffffffffffffffff1602179055503360025f6101000a81548173ffffffffffffffffffffffffffffffffffffffff021916908373ffffffffffffffffffffffffffffffffffffffff160217905550610de4806100b15f395ff3fe60806040526004361061006f575f3560e01c80639f883a051161004d5780639f883a05146100c9578063b60d428814610105578063bea4dfb51461010f578063f2fde38b146101395761006f565b8063590e1ae3146100735780638da5cb5b146100895780638edd6eb6146100b3575b5f80fd5b34801561007e575f80fd5b50610087610161565b005b348015610094575f80fd5b5061009d61035c565b6040516100aa91906107eb565b60405180910390f35b3480156100be575f80fd5b506100c7610381565b005b3480156100d4575f80fd5b506100ef60048036038101906100ea9190610832565b610552565b6040516100fc9190610875565b60405180910390f35b61010d610566565b005b34801561011a575f80fd5b5061012361060e565b60405161013091906108a6565b60405180910390f35b348015610144575f80fd5b5061015f600480360381019061015a9190610832565b6106ab565b005b683635c9adc5dea000006101744761077d565b106101b4576040517f08c379a00000000000000000000000000000000000000000000000000000000081526004016101ab90610919565b60405180910390fd5b5f805f3373ffffffffffffffffffffffffffffffffffffffff1673ffffffffffffffffffffffffffffffffffffffff1681526020019081526020015f205403610232576040517f08c379a000000000000000000000000000000000000000000000000000000000815260040161022990610981565b60405180910390fd5b5f3373ffffffffffffffffffffffffffffffffffffffff165f803373ffffffffffffffffffffffffffffffffffffffff1673ffffffffffffffffffffffffffffffffffffffff1681526020019081526020015f2054604051610293906109cc565b5f6040518083038185875af1925050503d805f81146102cd576040519150601f19603f3d011682016040523d82523d5f602084013e6102d2565b606091505b50508091505080610318576040517f08c379a000000000000000000000000000000000000000000000000000000000815260040161030f90610a2a565b60405180910390fd5b5f805f3373ffffffffffffffffffffffffffffffffffffffff1673ffffffffffffffffffffffffffffffffffffffff1681526020019081526020015f208190555050565b60025f9054906101000a900473ffffffffffffffffffffffffffffffffffffffff1681565b683635c9adc5dea000006103944761077d565b10156103d5576040517f08c379a00000000000000000000000000000000000000000000000000000000081526004016103cc90610a92565b60405180910390fd5b60025f9054906101000a900473ffffffffffffffffffffffffffffffffffffffff1673ffffffffffffffffffffffffffffffffffffffff163373ffffffffffffffffffffffffffffffffffffffff1614610464576040517f08c379a000000000000000000000000000000000000000000000000000000000815260040161045b90610b20565b60405180910390fd5b5f3373ffffffffffffffffffffffffffffffffffffffff1647604051610489906109cc565b5f6040518083038185875af1925050503d805f81146104c3576040519150601f19603f3d011682016040523d82523d5f602084013e6104c8565b606091505b5050809150508061050e576040517f08c379a000000000000000000000000000000000000000000000000000000000815260040161050590610a2a565b60405180910390fd5b5f805f3373ffffffffffffffffffffffffffffffffffffffff1673ffffffffffffffffffffffffffffffffffffffff1681526020019081526020015f208190555050565b5f602052805f5260405f205f915090505481565b68056bc75e2d631000006105793461077d565b10156105ba576040517f08c379a00000000000000000000000000000000000000000000000000000000081526004016105b190610b88565b60405180910390fd5b345f803373ffffffffffffffffffffffffffffffffffffffff1673ffffffffffffffffffffffffffffffffffffffff1681526020019081526020015f205f8282546106059190610bd3565b92505081905550565b5f8060015f9054906101000a900473ffffffffffffffffffffffffffffffffffffffff1673ffffffffffffffffffffffffffffffffffffffff1663feaf968c6040518163ffffffff1660e01b815260040160a060405180830381865afa15801561067a573d5f803e3d5ffd5b505050506040513d601f19601f8201168201806040525081019061069e9190610c99565b5050509150508091505090565b60025f9054906101000a900473ffffffffffffffffffffffffffffffffffffffff1673ffffffffffffffffffffffffffffffffffffffff163373ffffffffffffffffffffffffffffffffffffffff161461073a576040517f08c379a000000000000000000000000000000000000000000000000000000000815260040161073190610b20565b60405180910390fd5b8060025f6101000a81548173ffffffffffffffffffffffffffffffffffffffff021916908373ffffffffffffffffffffffffffffffffffffffff16021790555050565b5f8061078761060e565b90506305f5e100818461079a9190610d10565b6107a49190610d7e565b915050919050565b5f73ffffffffffffffffffffffffffffffffffffffff82169050919050565b5f6107d5826107ac565b9050919050565b6107e5816107cb565b82525050565b5f6020820190506107fe5f8301846107dc565b92915050565b5f80fd5b610811816107cb565b811461081b575f80fd5b50565b5f8135905061082c81610808565b92915050565b5f6020828403121561084757610846610804565b5b5f6108548482850161081e565b91505092915050565b5f819050919050565b61086f8161085d565b82525050565b5f6020820190506108885f830184610866565b92915050565b5f819050919050565b6108a08161088e565b82525050565b5f6020820190506108b95f830184610897565b92915050565b5f82825260208201905092915050565b7f54415247455420697320726561636865640000000000000000000000000000005f82015250565b5f6109036011836108bf565b915061090e826108cf565b602082019050919050565b5f6020820190508181035f830152610930816108f7565b9050919050565b7f7468657265206973206e6f2066756e6420666f7220796f7500000000000000005f82015250565b5f61096b6018836108bf565b915061097682610937565b602082019050919050565b5f6020820190508181035f8301526109988161095f565b9050919050565b5f81905092915050565b50565b5f6109b75f8361099f565b91506109c2826109a9565b5f82019050919050565b5f6109d6826109ac565b9150819050919050565b7f7472616e73666572207478206661696c656400000000000000000000000000005f82015250565b5f610a146012836108bf565b9150610a1f826109e0565b602082019050919050565b5f6020820190508181035f830152610a4181610a08565b9050919050565b7f4e6f7420656e6f7567682066756e6400000000000000000000000000000000005f82015250565b5f610a7c600f836108bf565b9150610a8782610a48565b602082019050919050565b5f6020820190508181035f830152610aa981610a70565b9050919050565b7f4f6e6c79206f776e65722063616e2063616c6c20746869732066756e6374696f5f8201527f6e00000000000000000000000000000000000000000000000000000000000000602082015250565b5f610b0a6021836108bf565b9150610b1582610ab0565b604082019050919050565b5f6020820190508181035f830152610b3781610afe565b9050919050565b7f53656e64206d6f726520455448000000000000000000000000000000000000005f82015250565b5f610b72600d836108bf565b9150610b7d82610b3e565b602082019050919050565b5f6020820190508181035f830152610b9f81610b66565b9050919050565b7f4e487b71000000000000000000000000000000000000000000000000000000005f52601160045260245ffd5b5f610bdd8261085d565b9150610be88361085d565b9250828201905080821115610c0057610bff610ba6565b5b92915050565b5f69ffffffffffffffffffff82169050919050565b610c2481610c06565b8114610c2e575f80fd5b50565b5f81519050610c3f81610c1b565b92915050565b610c4e8161088e565b8114610c58575f80fd5b50565b5f81519050610c6981610c45565b92915050565b610c788161085d565b8114610c82575f80fd5b50565b5f81519050610c9381610c6f565b92915050565b5f805f805f60a08688031215610cb257610cb1610804565b5b5f610cbf88828901610c31565b9550506020610cd088828901610c5b565b9450506040610ce188828901610c85565b9350506060610cf288828901610c85565b9250506080610d0388828901610c31565b9150509295509295909350565b5f610d1a8261085d565b9150610d258361085d565b9250828202610d338161085d565b91508282048414831517610d4a57610d49610ba6565b5b5092915050565b7f4e487b71000000000000000000000000000000000000000000000000000000005f52601260045260245ffd5b5f610d888261085d565b9150610d938361085d565b925082610da357610da2610d51565b5b82820490509291505056fea26469706673582212207382f173ec240ed69e1e594b8c39455f33a401b7628b91a0bae2c0ecfa78dd4a64736f6c63430008180033",
			"opcodes": "PUSH1 0x80 PUSH1 0x40 MSTORE CALLVALUE DUP1 ISZERO PUSH2 0xF JUMPI PUSH0 DUP1 REVERT JUMPDEST POP PUSH20 0x694AA1769357215DE4FAC081BF1F309ADC325306 PUSH1 0x1 PUSH0 PUSH2 0x100 EXP DUP2 SLOAD DUP2 PUSH20 0xFFFFFFFFFFFFFFFFFFFFFFFFFFFFFFFFFFFFFFFF MUL NOT AND SWAP1 DUP4 PUSH20 0xFFFFFFFFFFFFFFFFFFFFFFFFFFFFFFFFFFFFFFFF AND MUL OR SWAP1 SSTORE POP CALLER PUSH1 0x2 PUSH0 PUSH2 0x100 EXP DUP2 SLOAD DUP2 PUSH20 0xFFFFFFFFFFFFFFFFFFFFFFFFFFFFFFFFFFFFFFFF MUL NOT AND SWAP1 DUP4 PUSH20 0xFFFFFFFFFFFFFFFFFFFFFFFFFFFFFFFFFFFFFFFF AND MUL OR SWAP1 SSTORE POP PUSH2 0xDE4 DUP1 PUSH2 0xB1 PUSH0 CODECOPY PUSH0 RETURN INVALID PUSH1 0x80 PUSH1 0x40 MSTORE PUSH1 0x4 CALLDATASIZE LT PUSH2 0x6F JUMPI PUSH0 CALLDATALOAD PUSH1 0xE0 SHR DUP1 PUSH4 0x9F883A05 GT PUSH2 0x4D JUMPI DUP1 PUSH4 0x9F883A05 EQ PUSH2 0xC9 JUMPI DUP1 PUSH4 0xB60D4288 EQ PUSH2 0x105 JUMPI DUP1 PUSH4 0xBEA4DFB5 EQ PUSH2 0x10F JUMPI DUP1 PUSH4 0xF2FDE38B EQ PUSH2 0x139 JUMPI PUSH2 0x6F JUMP JUMPDEST DUP1 PUSH4 0x590E1AE3 EQ PUSH2 0x73 JUMPI DUP1 PUSH4 0x8DA5CB5B EQ PUSH2 0x89 JUMPI DUP1 PUSH4 0x8EDD6EB6 EQ PUSH2 0xB3 JUMPI JUMPDEST PUSH0 DUP1 REVERT JUMPDEST CALLVALUE DUP1 ISZERO PUSH2 0x7E JUMPI PUSH0 DUP1 REVERT JUMPDEST POP PUSH2 0x87 PUSH2 0x161 JUMP JUMPDEST STOP JUMPDEST CALLVALUE DUP1 ISZERO PUSH2 0x94 JUMPI PUSH0 DUP1 REVERT JUMPDEST POP PUSH2 0x9D PUSH2 0x35C JUMP JUMPDEST PUSH1 0x40 MLOAD PUSH2 0xAA SWAP2 SWAP1 PUSH2 0x7EB JUMP JUMPDEST PUSH1 0x40 MLOAD DUP1 SWAP2 SUB SWAP1 RETURN JUMPDEST CALLVALUE DUP1 ISZERO PUSH2 0xBE JUMPI PUSH0 DUP1 REVERT JUMPDEST POP PUSH2 0xC7 PUSH2 0x381 JUMP JUMPDEST STOP JUMPDEST CALLVALUE DUP1 ISZERO PUSH2 0xD4 JUMPI PUSH0 DUP1 REVERT JUMPDEST POP PUSH2 0xEF PUSH1 0x4 DUP1 CALLDATASIZE SUB DUP2 ADD SWAP1 PUSH2 0xEA SWAP2 SWAP1 PUSH2 0x832 JUMP JUMPDEST PUSH2 0x552 JUMP JUMPDEST PUSH1 0x40 MLOAD PUSH2 0xFC SWAP2 SWAP1 PUSH2 0x875 JUMP JUMPDEST PUSH1 0x40 MLOAD DUP1 SWAP2 SUB SWAP1 RETURN JUMPDEST PUSH2 0x10D PUSH2 0x566 JUMP JUMPDEST STOP JUMPDEST CALLVALUE DUP1 ISZERO PUSH2 0x11A JUMPI PUSH0 DUP1 REVERT JUMPDEST POP PUSH2 0x123 PUSH2 0x60E JUMP JUMPDEST PUSH1 0x40 MLOAD PUSH2 0x130 SWAP2 SWAP1 PUSH2 0x8A6 JUMP JUMPDEST PUSH1 0x40 MLOAD DUP1 SWAP2 SUB SWAP1 RETURN JUMPDEST CALLVALUE DUP1 ISZERO PUSH2 0x144 JUMPI PUSH0 DUP1 REVERT JUMPDEST POP PUSH2 0x15F PUSH1 0x4 DUP1 CALLDATASIZE SUB DUP2 ADD SWAP1 PUSH2 0x15A SWAP2 SWAP1 PUSH2 0x832 JUMP JUMPDEST PUSH2 0x6AB JUMP JUMPDEST STOP JUMPDEST PUSH9 0x3635C9ADC5DEA00000 PUSH2 0x174 SELFBALANCE PUSH2 0x77D JUMP JUMPDEST LT PUSH2 0x1B4 JUMPI PUSH1 0x40 MLOAD PUSH32 0x8C379A000000000000000000000000000000000000000000000000000000000 DUP2 MSTORE PUSH1 0x4 ADD PUSH2 0x1AB SWAP1 PUSH2 0x919 JUMP JUMPDEST PUSH1 0x40 MLOAD DUP1 SWAP2 SUB SWAP1 REVERT JUMPDEST PUSH0 DUP1 PUSH0 CALLER PUSH20 0xFFFFFFFFFFFFFFFFFFFFFFFFFFFFFFFFFFFFFFFF AND PUSH20 0xFFFFFFFFFFFFFFFFFFFFFFFFFFFFFFFFFFFFFFFF AND DUP2 MSTORE PUSH1 0x20 ADD SWAP1 DUP2 MSTORE PUSH1 0x20 ADD PUSH0 KECCAK256 SLOAD SUB PUSH2 0x232 JUMPI PUSH1 0x40 MLOAD PUSH32 0x8C379A000000000000000000000000000000000000000000000000000000000 DUP2 MSTORE PUSH1 0x4 ADD PUSH2 0x229 SWAP1 PUSH2 0x981 JUMP JUMPDEST PUSH1 0x40 MLOAD DUP1 SWAP2 SUB SWAP1 REVERT JUMPDEST PUSH0 CALLER PUSH20 0xFFFFFFFFFFFFFFFFFFFFFFFFFFFFFFFFFFFFFFFF AND PUSH0 DUP1 CALLER PUSH20 0xFFFFFFFFFFFFFFFFFFFFFFFFFFFFFFFFFFFFFFFF AND PUSH20 0xFFFFFFFFFFFFFFFFFFFFFFFFFFFFFFFFFFFFFFFF AND DUP2 MSTORE PUSH1 0x20 ADD SWAP1 DUP2 MSTORE PUSH1 0x20 ADD PUSH0 KECCAK256 SLOAD PUSH1 0x40 MLOAD PUSH2 0x293 SWAP1 PUSH2 0x9CC JUMP JUMPDEST PUSH0 PUSH1 0x40 MLOAD DUP1 DUP4 SUB DUP2 DUP6 DUP8 GAS CALL SWAP3 POP POP POP RETURNDATASIZE DUP1 PUSH0 DUP2 EQ PUSH2 0x2CD JUMPI PUSH1 0x40 MLOAD SWAP2 POP PUSH1 0x1F NOT PUSH1 0x3F RETURNDATASIZE ADD AND DUP3 ADD PUSH1 0x40 MSTORE RETURNDATASIZE DUP3 MSTORE RETURNDATASIZE PUSH0 PUSH1 0x20 DUP5 ADD RETURNDATACOPY PUSH2 0x2D2 JUMP JUMPDEST PUSH1 0x60 SWAP2 POP JUMPDEST POP POP DUP1 SWAP2 POP POP DUP1 PUSH2 0x318 JUMPI PUSH1 0x40 MLOAD PUSH32 0x8C379A000000000000000000000000000000000000000000000000000000000 DUP2 MSTORE PUSH1 0x4 ADD PUSH2 0x30F SWAP1 PUSH2 0xA2A JUMP JUMPDEST PUSH1 0x40 MLOAD DUP1 SWAP2 SUB SWAP1 REVERT JUMPDEST PUSH0 DUP1 PUSH0 CALLER PUSH20 0xFFFFFFFFFFFFFFFFFFFFFFFFFFFFFFFFFFFFFFFF AND PUSH20 0xFFFFFFFFFFFFFFFFFFFFFFFFFFFFFFFFFFFFFFFF AND DUP2 MSTORE PUSH1 0x20 ADD SWAP1 DUP2 MSTORE PUSH1 0x20 ADD PUSH0 KECCAK256 DUP2 SWAP1 SSTORE POP POP JUMP JUMPDEST PUSH1 0x2 PUSH0 SWAP1 SLOAD SWAP1 PUSH2 0x100 EXP SWAP1 DIV PUSH20 0xFFFFFFFFFFFFFFFFFFFFFFFFFFFFFFFFFFFFFFFF AND DUP2 JUMP JUMPDEST PUSH9 0x3635C9ADC5DEA00000 PUSH2 0x394 SELFBALANCE PUSH2 0x77D JUMP JUMPDEST LT ISZERO PUSH2 0x3D5 JUMPI PUSH1 0x40 MLOAD PUSH32 0x8C379A000000000000000000000000000000000000000000000000000000000 DUP2 MSTORE PUSH1 0x4 ADD PUSH2 0x3CC SWAP1 PUSH2 0xA92 JUMP JUMPDEST PUSH1 0x40 MLOAD DUP1 SWAP2 SUB SWAP1 REVERT JUMPDEST PUSH1 0x2 PUSH0 SWAP1 SLOAD SWAP1 PUSH2 0x100 EXP SWAP1 DIV PUSH20 0xFFFFFFFFFFFFFFFFFFFFFFFFFFFFFFFFFFFFFFFF AND PUSH20 0xFFFFFFFFFFFFFFFFFFFFFFFFFFFFFFFFFFFFFFFF AND CALLER PUSH20 0xFFFFFFFFFFFFFFFFFFFFFFFFFFFFFFFFFFFFFFFF AND EQ PUSH2 0x464 JUMPI PUSH1 0x40 MLOAD PUSH32 0x8C379A000000000000000000000000000000000000000000000000000000000 DUP2 MSTORE PUSH1 0x4 ADD PUSH2 0x45B SWAP1 PUSH2 0xB20 JUMP JUMPDEST PUSH1 0x40 MLOAD DUP1 SWAP2 SUB SWAP1 REVERT JUMPDEST PUSH0 CALLER PUSH20 0xFFFFFFFFFFFFFFFFFFFFFFFFFFFFFFFFFFFFFFFF AND SELFBALANCE PUSH1 0x40 MLOAD PUSH2 0x489 SWAP1 PUSH2 0x9CC JUMP JUMPDEST PUSH0 PUSH1 0x40 MLOAD DUP1 DUP4 SUB DUP2 DUP6 DUP8 GAS CALL SWAP3 POP POP POP RETURNDATASIZE DUP1 PUSH0 DUP2 EQ PUSH2 0x4C3 JUMPI PUSH1 0x40 MLOAD SWAP2 POP PUSH1 0x1F NOT PUSH1 0x3F RETURNDATASIZE ADD AND DUP3 ADD PUSH1 0x40 MSTORE RETURNDATASIZE DUP3 MSTORE RETURNDATASIZE PUSH0 PUSH1 0x20 DUP5 ADD RETURNDATACOPY PUSH2 0x4C8 JUMP JUMPDEST PUSH1 0x60 SWAP2 POP JUMPDEST POP POP DUP1 SWAP2 POP POP DUP1 PUSH2 0x50E JUMPI PUSH1 0x40 MLOAD PUSH32 0x8C379A000000000000000000000000000000000000000000000000000000000 DUP2 MSTORE PUSH1 0x4 ADD PUSH2 0x505 SWAP1 PUSH2 0xA2A JUMP JUMPDEST PUSH1 0x40 MLOAD DUP1 SWAP2 SUB SWAP1 REVERT JUMPDEST PUSH0 DUP1 PUSH0 CALLER PUSH20 0xFFFFFFFFFFFFFFFFFFFFFFFFFFFFFFFFFFFFFFFF AND PUSH20 0xFFFFFFFFFFFFFFFFFFFFFFFFFFFFFFFFFFFFFFFF AND DUP2 MSTORE PUSH1 0x20 ADD SWAP1 DUP2 MSTORE PUSH1 0x20 ADD PUSH0 KECCAK256 DUP2 SWAP1 SSTORE POP POP JUMP JUMPDEST PUSH0 PUSH1 0x20 MSTORE DUP1 PUSH0 MSTORE PUSH1 0x40 PUSH0 KECCAK256 PUSH0 SWAP2 POP SWAP1 POP SLOAD DUP2 JUMP JUMPDEST PUSH9 0x56BC75E2D63100000 PUSH2 0x579 CALLVALUE PUSH2 0x77D JUMP JUMPDEST LT ISZERO PUSH2 0x5BA JUMPI PUSH1 0x40 MLOAD PUSH32 0x8C379A000000000000000000000000000000000000000000000000000000000 DUP2 MSTORE PUSH1 0x4 ADD PUSH2 0x5B1 SWAP1 PUSH2 0xB88 JUMP JUMPDEST PUSH1 0x40 MLOAD DUP1 SWAP2 SUB SWAP1 REVERT JUMPDEST CALLVALUE PUSH0 DUP1 CALLER PUSH20 0xFFFFFFFFFFFFFFFFFFFFFFFFFFFFFFFFFFFFFFFF AND PUSH20 0xFFFFFFFFFFFFFFFFFFFFFFFFFFFFFFFFFFFFFFFF AND DUP2 MSTORE PUSH1 0x20 ADD SWAP1 DUP2 MSTORE PUSH1 0x20 ADD PUSH0 KECCAK256 PUSH0 DUP3 DUP3 SLOAD PUSH2 0x605 SWAP2 SWAP1 PUSH2 0xBD3 JUMP JUMPDEST SWAP3 POP POP DUP2 SWAP1 SSTORE POP JUMP JUMPDEST PUSH0 DUP1 PUSH1 0x1 PUSH0 SWAP1 SLOAD SWAP1 PUSH2 0x100 EXP SWAP1 DIV PUSH20 0xFFFFFFFFFFFFFFFFFFFFFFFFFFFFFFFFFFFFFFFF AND PUSH20 0xFFFFFFFFFFFFFFFFFFFFFFFFFFFFFFFFFFFFFFFF AND PUSH4 0xFEAF968C PUSH1 0x40 MLOAD DUP2 PUSH4 0xFFFFFFFF AND PUSH1 0xE0 SHL DUP2 MSTORE PUSH1 0x4 ADD PUSH1 0xA0 PUSH1 0x40 MLOAD DUP1 DUP4 SUB DUP2 DUP7 GAS STATICCALL ISZERO DUP1 ISZERO PUSH2 0x67A JUMPI RETURNDATASIZE PUSH0 DUP1 RETURNDATACOPY RETURNDATASIZE PUSH0 REVERT JUMPDEST POP POP POP POP PUSH1 0x40 MLOAD RETURNDATASIZE PUSH1 0x1F NOT PUSH1 0x1F DUP3 ADD AND DUP3 ADD DUP1 PUSH1 0x40 MSTORE POP DUP2 ADD SWAP1 PUSH2 0x69E SWAP2 SWAP1 PUSH2 0xC99 JUMP JUMPDEST POP POP POP SWAP2 POP POP DUP1 SWAP2 POP POP SWAP1 JUMP JUMPDEST PUSH1 0x2 PUSH0 SWAP1 SLOAD SWAP1 PUSH2 0x100 EXP SWAP1 DIV PUSH20 0xFFFFFFFFFFFFFFFFFFFFFFFFFFFFFFFFFFFFFFFF AND PUSH20 0xFFFFFFFFFFFFFFFFFFFFFFFFFFFFFFFFFFFFFFFF AND CALLER PUSH20 0xFFFFFFFFFFFFFFFFFFFFFFFFFFFFFFFFFFFFFFFF AND EQ PUSH2 0x73A JUMPI PUSH1 0x40 MLOAD PUSH32 0x8C379A000000000000000000000000000000000000000000000000000000000 DUP2 MSTORE PUSH1 0x4 ADD PUSH2 0x731 SWAP1 PUSH2 0xB20 JUMP JUMPDEST PUSH1 0x40 MLOAD DUP1 SWAP2 SUB SWAP1 REVERT JUMPDEST DUP1 PUSH1 0x2 PUSH0 PUSH2 0x100 EXP DUP2 SLOAD DUP2 PUSH20 0xFFFFFFFFFFFFFFFFFFFFFFFFFFFFFFFFFFFFFFFF MUL NOT AND SWAP1 DUP4 PUSH20 0xFFFFFFFFFFFFFFFFFFFFFFFFFFFFFFFFFFFFFFFF AND MUL OR SWAP1 SSTORE POP POP JUMP JUMPDEST PUSH0 DUP1 PUSH2 0x787 PUSH2 0x60E JUMP JUMPDEST SWAP1 POP PUSH4 0x5F5E100 DUP2 DUP5 PUSH2 0x79A SWAP2 SWAP1 PUSH2 0xD10 JUMP JUMPDEST PUSH2 0x7A4 SWAP2 SWAP1 PUSH2 0xD7E JUMP JUMPDEST SWAP2 POP POP SWAP2 SWAP1 POP JUMP JUMPDEST PUSH0 PUSH20 0xFFFFFFFFFFFFFFFFFFFFFFFFFFFFFFFFFFFFFFFF DUP3 AND SWAP1 POP SWAP2 SWAP1 POP JUMP JUMPDEST PUSH0 PUSH2 0x7D5 DUP3 PUSH2 0x7AC JUMP JUMPDEST SWAP1 POP SWAP2 SWAP1 POP JUMP JUMPDEST PUSH2 0x7E5 DUP2 PUSH2 0x7CB JUMP JUMPDEST DUP3 MSTORE POP POP JUMP JUMPDEST PUSH0 PUSH1 0x20 DUP3 ADD SWAP1 POP PUSH2 0x7FE PUSH0 DUP4 ADD DUP5 PUSH2 0x7DC JUMP JUMPDEST SWAP3 SWAP2 POP POP JUMP JUMPDEST PUSH0 DUP1 REVERT JUMPDEST PUSH2 0x811 DUP2 PUSH2 0x7CB JUMP JUMPDEST DUP2 EQ PUSH2 0x81B JUMPI PUSH0 DUP1 REVERT JUMPDEST POP JUMP JUMPDEST PUSH0 DUP2 CALLDATALOAD SWAP1 POP PUSH2 0x82C DUP2 PUSH2 0x808 JUMP JUMPDEST SWAP3 SWAP2 POP POP JUMP JUMPDEST PUSH0 PUSH1 0x20 DUP3 DUP5 SUB SLT ISZERO PUSH2 0x847 JUMPI PUSH2 0x846 PUSH2 0x804 JUMP JUMPDEST JUMPDEST PUSH0 PUSH2 0x854 DUP5 DUP3 DUP6 ADD PUSH2 0x81E JUMP JUMPDEST SWAP2 POP POP SWAP3 SWAP2 POP POP JUMP JUMPDEST PUSH0 DUP2 SWAP1 POP SWAP2 SWAP1 POP JUMP JUMPDEST PUSH2 0x86F DUP2 PUSH2 0x85D JUMP JUMPDEST DUP3 MSTORE POP POP JUMP JUMPDEST PUSH0 PUSH1 0x20 DUP3 ADD SWAP1 POP PUSH2 0x888 PUSH0 DUP4 ADD DUP5 PUSH2 0x866 JUMP JUMPDEST SWAP3 SWAP2 POP POP JUMP JUMPDEST PUSH0 DUP2 SWAP1 POP SWAP2 SWAP1 POP JUMP JUMPDEST PUSH2 0x8A0 DUP2 PUSH2 0x88E JUMP JUMPDEST DUP3 MSTORE POP POP JUMP JUMPDEST PUSH0 PUSH1 0x20 DUP3 ADD SWAP1 POP PUSH2 0x8B9 PUSH0 DUP4 ADD DUP5 PUSH2 0x897 JUMP JUMPDEST SWAP3 SWAP2 POP POP JUMP JUMPDEST PUSH0 DUP3 DUP3 MSTORE PUSH1 0x20 DUP3 ADD SWAP1 POP SWAP3 SWAP2 POP POP JUMP JUMPDEST PUSH32 0x5441524745542069732072656163686564000000000000000000000000000000 PUSH0 DUP3 ADD MSTORE POP JUMP JUMPDEST PUSH0 PUSH2 0x903 PUSH1 0x11 DUP4 PUSH2 0x8BF JUMP JUMPDEST SWAP2 POP PUSH2 0x90E DUP3 PUSH2 0x8CF JUMP JUMPDEST PUSH1 0x20 DUP3 ADD SWAP1 POP SWAP2 SWAP1 POP JUMP JUMPDEST PUSH0 PUSH1 0x20 DUP3 ADD SWAP1 POP DUP2 DUP2 SUB PUSH0 DUP4 ADD MSTORE PUSH2 0x930 DUP2 PUSH2 0x8F7 JUMP JUMPDEST SWAP1 POP SWAP2 SWAP1 POP JUMP JUMPDEST PUSH32 0x7468657265206973206E6F2066756E6420666F7220796F750000000000000000 PUSH0 DUP3 ADD MSTORE POP JUMP JUMPDEST PUSH0 PUSH2 0x96B PUSH1 0x18 DUP4 PUSH2 0x8BF JUMP JUMPDEST SWAP2 POP PUSH2 0x976 DUP3 PUSH2 0x937 JUMP JUMPDEST PUSH1 0x20 DUP3 ADD SWAP1 POP SWAP2 SWAP1 POP JUMP JUMPDEST PUSH0 PUSH1 0x20 DUP3 ADD SWAP1 POP DUP2 DUP2 SUB PUSH0 DUP4 ADD MSTORE PUSH2 0x998 DUP2 PUSH2 0x95F JUMP JUMPDEST SWAP1 POP SWAP2 SWAP1 POP JUMP JUMPDEST PUSH0 DUP2 SWAP1 POP SWAP3 SWAP2 POP POP JUMP JUMPDEST POP JUMP JUMPDEST PUSH0 PUSH2 0x9B7 PUSH0 DUP4 PUSH2 0x99F JUMP JUMPDEST SWAP2 POP PUSH2 0x9C2 DUP3 PUSH2 0x9A9 JUMP JUMPDEST PUSH0 DUP3 ADD SWAP1 POP SWAP2 SWAP1 POP JUMP JUMPDEST PUSH0 PUSH2 0x9D6 DUP3 PUSH2 0x9AC JUMP JUMPDEST SWAP2 POP DUP2 SWAP1 POP SWAP2 SWAP1 POP JUMP JUMPDEST PUSH32 0x7472616E73666572207478206661696C65640000000000000000000000000000 PUSH0 DUP3 ADD MSTORE POP JUMP JUMPDEST PUSH0 PUSH2 0xA14 PUSH1 0x12 DUP4 PUSH2 0x8BF JUMP JUMPDEST SWAP2 POP PUSH2 0xA1F DUP3 PUSH2 0x9E0 JUMP JUMPDEST PUSH1 0x20 DUP3 ADD SWAP1 POP SWAP2 SWAP1 POP JUMP JUMPDEST PUSH0 PUSH1 0x20 DUP3 ADD SWAP1 POP DUP2 DUP2 SUB PUSH0 DUP4 ADD MSTORE PUSH2 0xA41 DUP2 PUSH2 0xA08 JUMP JUMPDEST SWAP1 POP SWAP2 SWAP1 POP JUMP JUMPDEST PUSH32 0x4E6F7420656E6F7567682066756E640000000000000000000000000000000000 PUSH0 DUP3 ADD MSTORE POP JUMP JUMPDEST PUSH0 PUSH2 0xA7C PUSH1 0xF DUP4 PUSH2 0x8BF JUMP JUMPDEST SWAP2 POP PUSH2 0xA87 DUP3 PUSH2 0xA48 JUMP JUMPDEST PUSH1 0x20 DUP3 ADD SWAP1 POP SWAP2 SWAP1 POP JUMP JUMPDEST PUSH0 PUSH1 0x20 DUP3 ADD SWAP1 POP DUP2 DUP2 SUB PUSH0 DUP4 ADD MSTORE PUSH2 0xAA9 DUP2 PUSH2 0xA70 JUMP JUMPDEST SWAP1 POP SWAP2 SWAP1 POP JUMP JUMPDEST PUSH32 0x4F6E6C79206F776E65722063616E2063616C6C20746869732066756E6374696F PUSH0 DUP3 ADD MSTORE PUSH32 0x6E00000000000000000000000000000000000000000000000000000000000000 PUSH1 0x20 DUP3 ADD MSTORE POP JUMP JUMPDEST PUSH0 PUSH2 0xB0A PUSH1 0x21 DUP4 PUSH2 0x8BF JUMP JUMPDEST SWAP2 POP PUSH2 0xB15 DUP3 PUSH2 0xAB0 JUMP JUMPDEST PUSH1 0x40 DUP3 ADD SWAP1 POP SWAP2 SWAP1 POP JUMP JUMPDEST PUSH0 PUSH1 0x20 DUP3 ADD SWAP1 POP DUP2 DUP2 SUB PUSH0 DUP4 ADD MSTORE PUSH2 0xB37 DUP2 PUSH2 0xAFE JUMP JUMPDEST SWAP1 POP SWAP2 SWAP1 POP JUMP JUMPDEST PUSH32 0x53656E64206D6F72652045544800000000000000000000000000000000000000 PUSH0 DUP3 ADD MSTORE POP JUMP JUMPDEST PUSH0 PUSH2 0xB72 PUSH1 0xD DUP4 PUSH2 0x8BF JUMP JUMPDEST SWAP2 POP PUSH2 0xB7D DUP3 PUSH2 0xB3E JUMP JUMPDEST PUSH1 0x20 DUP3 ADD SWAP1 POP SWAP2 SWAP1 POP JUMP JUMPDEST PUSH0 PUSH1 0x20 DUP3 ADD SWAP1 POP DUP2 DUP2 SUB PUSH0 DUP4 ADD MSTORE PUSH2 0xB9F DUP2 PUSH2 0xB66 JUMP JUMPDEST SWAP1 POP SWAP2 SWAP1 POP JUMP JUMPDEST PUSH32 0x4E487B7100000000000000000000000000000000000000000000000000000000 PUSH0 MSTORE PUSH1 0x11 PUSH1 0x4 MSTORE PUSH1 0x24 PUSH0 REVERT JUMPDEST PUSH0 PUSH2 0xBDD DUP3 PUSH2 0x85D JUMP JUMPDEST SWAP2 POP PUSH2 0xBE8 DUP4 PUSH2 0x85D JUMP JUMPDEST SWAP3 POP DUP3 DUP3 ADD SWAP1 POP DUP1 DUP3 GT ISZERO PUSH2 0xC00 JUMPI PUSH2 0xBFF PUSH2 0xBA6 JUMP JUMPDEST JUMPDEST SWAP3 SWAP2 POP POP JUMP JUMPDEST PUSH0 PUSH10 0xFFFFFFFFFFFFFFFFFFFF DUP3 AND SWAP1 POP SWAP2 SWAP1 POP JUMP JUMPDEST PUSH2 0xC24 DUP2 PUSH2 0xC06 JUMP JUMPDEST DUP2 EQ PUSH2 0xC2E JUMPI PUSH0 DUP1 REVERT JUMPDEST POP JUMP JUMPDEST PUSH0 DUP2 MLOAD SWAP1 POP PUSH2 0xC3F DUP2 PUSH2 0xC1B JUMP JUMPDEST SWAP3 SWAP2 POP POP JUMP JUMPDEST PUSH2 0xC4E DUP2 PUSH2 0x88E JUMP JUMPDEST DUP2 EQ PUSH2 0xC58 JUMPI PUSH0 DUP1 REVERT JUMPDEST POP JUMP JUMPDEST PUSH0 DUP2 MLOAD SWAP1 POP PUSH2 0xC69 DUP2 PUSH2 0xC45 JUMP JUMPDEST SWAP3 SWAP2 POP POP JUMP JUMPDEST PUSH2 0xC78 DUP2 PUSH2 0x85D JUMP JUMPDEST DUP2 EQ PUSH2 0xC82 JUMPI PUSH0 DUP1 REVERT JUMPDEST POP JUMP JUMPDEST PUSH0 DUP2 MLOAD SWAP1 POP PUSH2 0xC93 DUP2 PUSH2 0xC6F JUMP JUMPDEST SWAP3 SWAP2 POP POP JUMP JUMPDEST PUSH0 DUP1 PUSH0 DUP1 PUSH0 PUSH1 0xA0 DUP7 DUP9 SUB SLT ISZERO PUSH2 0xCB2 JUMPI PUSH2 0xCB1 PUSH2 0x804 JUMP JUMPDEST JUMPDEST PUSH0 PUSH2 0xCBF DUP9 DUP3 DUP10 ADD PUSH2 0xC31 JUMP JUMPDEST SWAP6 POP POP PUSH1 0x20 PUSH2 0xCD0 DUP9 DUP3 DUP10 ADD PUSH2 0xC5B JUMP JUMPDEST SWAP5 POP POP PUSH1 0x40 PUSH2 0xCE1 DUP9 DUP3 DUP10 ADD PUSH2 0xC85 JUMP JUMPDEST SWAP4 POP POP PUSH1 0x60 PUSH2 0xCF2 DUP9 DUP3 DUP10 ADD PUSH2 0xC85 JUMP JUMPDEST SWAP3 POP POP PUSH1 0x80 PUSH2 0xD03 DUP9 DUP3 DUP10 ADD PUSH2 0xC31 JUMP JUMPDEST SWAP2 POP POP SWAP3 SWAP6 POP SWAP3 SWAP6 SWAP1 SWAP4 POP JUMP JUMPDEST PUSH0 PUSH2 0xD1A DUP3 PUSH2 0x85D JUMP JUMPDEST SWAP2 POP PUSH2 0xD25 DUP4 PUSH2 0x85D JUMP JUMPDEST SWAP3 POP DUP3 DUP3 MUL PUSH2 0xD33 DUP2 PUSH2 0x85D JUMP JUMPDEST SWAP2 POP DUP3 DUP3 DIV DUP5 EQ DUP4 ISZERO OR PUSH2 0xD4A JUMPI PUSH2 0xD49 PUSH2 0xBA6 JUMP JUMPDEST JUMPDEST POP SWAP3 SWAP2 POP POP JUMP JUMPDEST PUSH32 0x4E487B7100000000000000000000000000000000000000000000000000000000 PUSH0 MSTORE PUSH1 0x12 PUSH1 0x4 MSTORE PUSH1 0x24 PUSH0 REVERT JUMPDEST PUSH0 PUSH2 0xD88 DUP3 PUSH2 0x85D JUMP JUMPDEST SWAP2 POP PUSH2 0xD93 DUP4 PUSH2 0x85D JUMP JUMPDEST SWAP3 POP DUP3 PUSH2 0xDA3 JUMPI PUSH2 0xDA2 PUSH2 0xD51 JUMP JUMPDEST JUMPDEST DUP3 DUP3 DIV SWAP1 POP SWAP3 SWAP2 POP POP JUMP INVALID LOG2 PUSH5 0x6970667358 0x22 SLT KECCAK256 PUSH20 0x82F173EC240ED69E1E594B8C39455F33A401B762 DUP12 SWAP2 LOG0 0xBA 0xE2 0xC0 0xEC STATICCALL PUSH25 0xDD4A64736F6C63430008180033000000000000000000000000 "
		},
		"gasEstimates": {
			"creation": {
				"codeDepositCost": "711200",
				"executionCost": "49276",
				"totalCost": "760476"
			},
			"external": {
				"fund()": "infinite",
				"fundersToAmount(address)": "2801",
				"getChainlinkDataFeedLatestAnswer()": "infinite",
				"getFund()": "infinite",
				"owner()": "2531",
				"refund()": "infinite",
				"transferOwnership(address)": "26950"
			},
			"internal": {
				"convertEthToUsd(uint256)": "infinite"
			}
		},
		"methodIdentifiers": {
			"fund()": "b60d4288",
			"fundersToAmount(address)": "9f883a05",
			"getChainlinkDataFeedLatestAnswer()": "bea4dfb5",
			"getFund()": "8edd6eb6",
			"owner()": "8da5cb5b",
			"refund()": "590e1ae3",
			"transferOwnership(address)": "f2fde38b"
		}
	},
	"abi": [
		{
			"inputs": [],
			"stateMutability": "nonpayable",
			"type": "constructor"
		},
		{
			"inputs": [],
			"name": "fund",
			"outputs": [],
			"stateMutability": "payable",
			"type": "function"
		},
		{
			"inputs": [
				{
					"internalType": "address",
					"name": "",
					"type": "address"
				}
			],
			"name": "fundersToAmount",
			"outputs": [
				{
					"internalType": "uint256",
					"name": "",
					"type": "uint256"
				}
			],
			"stateMutability": "view",
			"type": "function"
		},
		{
			"inputs": [],
			"name": "getChainlinkDataFeedLatestAnswer",
			"outputs": [
				{
					"internalType": "int256",
					"name": "",
					"type": "int256"
				}
			],
			"stateMutability": "view",
			"type": "function"
		},
		{
			"inputs": [],
			"name": "getFund",
			"outputs": [],
			"stateMutability": "nonpayable",
			"type": "function"
		},
		{
			"inputs": [],
			"name": "owner",
			"outputs": [
				{
					"internalType": "address",
					"name": "",
					"type": "address"
				}
			],
			"stateMutability": "view",
			"type": "function"
		},
		{
			"inputs": [],
			"name": "refund",
			"outputs": [],
			"stateMutability": "nonpayable",
			"type": "function"
		},
		{
			"inputs": [
				{
					"internalType": "address",
					"name": "newOwner",
					"type": "address"
				}
			],
			"name": "transferOwnership",
			"outputs": [],
			"stateMutability": "nonpayable",
			"type": "function"
		}
	]
}